:020000040800F2
:1000000098A300202902000841070008B50600084F
:100010003D070008D9020008FF0C0008000000009E
:10002000000000000000000000000000FD080008C3
:100030003503000800000000D1070008550A000839
:10004000430200084302000843020008430200087C
:100050004302000843020008390300084302000875
:100060006D0300082D040008650400084302000821
:10007000430200084302000843020008430200084C
:10008000430200084302000843020008430200083C
:10009000430200084302000843020008430200082C
:1000A000430200084302000843020008430200081C
:1000B000430200084302000843020008430200080C
:1000C00043020008430200084302000843020008FC
:1000D00043020008C10A0008430200084302000866
:1000E00043020008430200084302000843020008DC
:1000F00043020008430200084302000843020008CC
:1001000043020008430200084302000843020008BB
:1001100043020008430200084302000843020008AB
:10012000430200084302000843020008430200089B
:10013000430200084302000843020008430200088B
:10014000430200084302000843020008430200087B
:10015000430200084302000843020008430200086B
:10016000430200084302000843020008430200085B
:10017000430200084302000843020008430200084B
:10018000430200084302000800F002F800F03CF8C7
:100190000AA090E8000C82448344AAF10107DA45E2
:1001A00001D100F031F8AFF2090EBAE80F0013F0F8
:1001B000010F18BFFB1A43F0010318476C0D000034
:1001C0008C0D0000103A24BF78C878C1FAD85207C5
:1001D00024BF30C830C144BF04680C6070470000C1
:1001E0000023002400250026103A28BF78C1FBD840
:1001F000520728BF30C148BF0B6070471FB500F0E1
:100200008DFE1FBD10B510BD00F033F81146FFF78D
:10021000F5FF00F0D9FD00F051F803B4FFF7F2FF4D
:1002200003BC00F06EFD0000094880470948004704
:10023000FEE7FEE7FEE7FEE7FEE7FEE7FEE7FEE796
:10024000FEE7FEE704480549054A064B70470000F3
:10025000590A000889010008989D002098A30020F1
:10026000989F0020989F0020704770477047704704
:100270007047754600F02CF8AE46050069465346B7
:1002800020F00700854618B020B5FFF7DBFFBDE87A
:1002900020404FF000064FF000074FF000084FF0ED
:1002A000000B21F00701AC46ACE8C009ACE8C0097E
:1002B000ACE8C009ACE8C0098D46704710B50446EB
:1002C000AFF300802046BDE81040FFF7A6BF000056
:1002D00000487047349D002000BFFEE71CB5012197
:1002E000202000F077FAFF20009000208DF8040015
:1002F00002208DF8050001208DF8070069460B48A3
:1003000000F062F90121102000F064FA0C20009046
:1003100000208DF8040003208DF8050002208DF8E0
:1003200007006946024800F04FF91CBD0014024066
:10033000001002407047000010B50A2000F002FDD6
:100340000121084800F0ABF9012807D106480068F0
:1003500008B9012000E0002003490860012000F0F6
:10036000E3F810BD00000240A082424210B52948C7
:100370000068282844DB27480068B0F5C87F3FDACA
:1003800000202549086004E023480068401C2249F9
:100390000860214800686E28F6DB4FF4C8701E49DB
:1003A00008601FE01C49086800EBD0714910A0EB01
:1003B000410191B9194800681949096801EBC10266
:1003C00002EB0111174A02EBC101174A1268885467
:1003D00015480068401C144908600F480068401E1A
:1003E0000D4908600C4800680028DBDC00200E493D
:1003F0000860094908600A480068401C084908600C
:1004000004480068401C03490860042000F08CF890
:1004100010BD0000080000200C0000201C82424299
:10042000000000202C0000200400002010B5002057
:1004300008490860084908600849086008480068D9
:1004400008B9012000E0002005490860082000F0FC
:100450006BF810BD04000020000000200800002000
:10046000A882424210B50A2000F06CFC10210D4811
:1004700000F015F988B90C48006808B9012000E0BF
:100480000020094908600948D0F8A80208B90120ED
:1004900000E000200449091D0860102000F044F825
:1004A00010BD000000100240A4824242008042427F
:1004B0000EB500F001F90121880300F09BF902213B
:1004C000042000F01DFA0321042000F019FA0C208A
:1004D000009000208DF804000C208DF8050001200C
:1004E0008DF80600684600F025F808208DF8080011
:1004F00003208DF8090002208DF80A0001208DF8F4
:100500000B0002A800F01EF909208DF80800002059
:100510008DF809008DF80A0001208DF80B0002A863
:1005200000F010F90EBD000001490860704700009E
:10053000143C0140002123498279002A3AD00A461E
:10054000126803689A430B461A600A1D1268036812
:100550009A430B1D1A60027911440A6803681A4312
:100560000A60184A0832126803689A43154B083328
:100570001A601A1D126803689A43124B0C331A60F2
:100580004279102A0ED11A1F126803681A430D4BC4
:1005900008331A601A1D126803681A43094B0C339A
:1005A0001A600DE00749427911440A6803681A434A
:1005B0000A6005E0027911440A6803689A430A60F8
:1005C00070470000003C0140F0B50A4600210023BE
:1005D000002400BF3DE0012505FA01F3156805EA96
:1005E00003049C4234D105684F000326BE40B54346
:1005F000056015794E00B5400668354305601579EC
:10060000012D02D01579022D16D185684F000326E1
:10061000BE40B543856055794E00B5408668354388
:100620008560456801268E40B543456045689679EA
:100630008E40B6B235434560C5684F000326BE40C4
:10064000B543C560D5794E00B540C6683543C56031
:10065000491C1029BFD3F0BDF0B5002300244D077D
:10066000ED0E02FA05F3CE1000F1200555F82650E4
:100670004E07F70E0F26BE40B543CF1000F12006FF
:1006800046F82750CE1000F1200555F8265045EACF
:100690000304CE1000F1200545F82640F0BD0246C7
:1006A000002013690B400BB1012000E000207047CF
:1006B0000183704700BFFEE71CB50121112000F047
:1006C00089F81020009000208DF8040003208DF898
:1006D000050001208DF8070069460648FFF774FF02
:1006E0000120009002208DF8070069460248FFF7BC
:1006F0006BFF1CBD00100240000002401CB5012130
:10070000202000F067F84FF4C060009001208DF8C1
:10071000040000208DF8060003208DF8050001205C
:100720008DF8070069460448FFF74EFF4FF4C0619B
:100730000148FFF7BDFF1CBD0014024000BFFEE7EB
:100740007047000070B5002100230F22C4781CB34D
:10075000174C246804F4E064C4F5E064C4F3072192
:10076000C1F10404E3B20A4144789C40E1B28478C8
:10077000144021430C07210E0E4C05786155047876
:1007800004F01F050124AC4005786D11AD0005F1A2
:10079000E025C5F8004109E0047804F01F050124B4
:1007A000AC40054D0678761145F8264070BD000036
:1007B0000CED00E000E400E080E100E002490143CC
:1007C000024A1160704700000000FA050CED00E0DD
:1007D0007047000029B1064A12680243044B1A60B0
:1007E00004E0034A12688243014B1A60704700001C
:1007F0003038024029B1064A12680243044B1A609D
:1008000004E0034A12688243014B1A6070470000FB
:1008100044380240F0B500210022002402250026C1
:100820000223324F3F6807F00C0121B1042905D0A3
:10083000082937D105E02E4F076036E02D4F0760BD
:1008400033E02A4F3F1F3F68C7F38056274F3F1FB3
:100850003F6807F03F036EB1264FB7FBF3F7DFF8B1
:100860008CC0ACF1040CDCF800C0CCF3881C07FB96
:100870000CF40CE01E4FB7FBF3F7DFF870C0ACF1DF
:10088000040CDCF800C0CCF3881C07FB0CF4174FF9
:100890003F1F3F68C7F301477F1C7D00B4FBF5F79E
:1008A000076002E0124F076000BF00BF0F4F3F68B4
:1008B00007F0F0010909104F7A5C0768D7404760DC
:1008C0000A4F3F6807F4E051890A0B4F7A5C47688A
:1008D000D7408760054F3F6807F46041490B064FDA
:1008E0007A5C4768D740C760F0BD00000838024016
:1008F0000024F40000127A001A0000207047000063
:1009000030B500228B071C0F0F2303FA04F20B4BA8
:100910008C1053F824309343084C8D1044F8253044
:1009200023468C1053F824308C07240F00FA04F46B
:100930002343024C8D1044F8253030BD0838014067
:100940000CB50020019000903448006840F48030DD
:100950003249086000BF3148006800F40030009060
:100960000198401C0190009818B90198B0F5A04F6B
:10097000F1D12A48006800F4003010B10120009045
:1009800001E0002000900098012846D12348403023
:10099000006840F0805021494031086020480068DC
:1009A00040F440401E4908601C48083000681B495C
:1009B000083108600846006840F4004008600846B6
:1009C000006840F4A05008601648091F0860081F1E
:1009D000006840F08070091F086000BF0F48006881
:1009E00000F000700028F9D040F205700E49086050
:1009F0000A480830006820F0030008490831086000
:100A00000846006840F00200086000BF0348083054
:100A1000006800F00C000828F8D10CBD0038024036
:100A20000070004008544007003C0240042808D1F0
:100A30004FF0E021096941F004014FF0E02211611B
:100A400007E04FF0E021096921F004014FF0E022B6
:100A5000116170477047000010B51548006840F4F8
:100A60007000134908601348006840F00100114904
:100A7000086000200F49083108600E4800680E49E0
:100A800008400C4908600D48091D0860081F0068EF
:100A900020F48020091F0860002006490C310860FE
:100AA000FFF74EFF4FF0006001498039086010BD2C
:100AB00088ED00E000380240FFFFF6FE1030002411
:100AC00010B540F225511D4800F057F810B31B48EF
:100AD00000F00CF9C4B21A48008800F40040C8B90C
:100AE0001748008800F4804060B10A2C03D0002031
:100AF0001349088020E01248008840F40040104963
:100B0000088019E00D2C06D10D48008840F4804083
:100B10000B49088010E00A480088C0F30D0009491D
:100B20000C5407480088401C054908800846008886
:100B3000C72801DD0020088010BD00000010014022
:100B4000180000206C9C002021B1828942F40052E0
:100B5000828104E082894DF6FF731A4082817047DA
:100B600002460020B1F5007F00D100BF13880B4082
:100B70000BB1012000E00020704770B50246002450
:100B800000230025002040F66A16B14200D100BFC4
:100B9000C1F3421501F01F03012606FA03F3012DEC
:100BA00002D19689334006E0022D02D1168A3340E5
:100BB00001E0968A33400C12012606FA04F41688E6
:100BC000344013B10CB1012000E0002070BDF0B53D
:100BD0000346002400260025002040F66A17B9428B
:100BE00000D100BF1846C1F3421401F01F060127CF
:100BF00007FA06F5012C01D10C3004E0022C01D1DA
:100C0000103000E014301AB107682F43076002E08B
:100C10000768AF430760F0BD2DE9FF4705460E4664
:100C20000024A14600BFA046B08900B100BF2C8AB5
:100C300024F44054F08804432C82AC8941F20C60C7
:100C40008443B08831890843718908430443AC81E7
:100C5000AC8A24F44074B0890443AC826846FFF740
:100C6000D9FD2048854202D01F48854202D1DDF8D7
:100C70000C9001E0DDF80890A88900F4004040B134
:100C800009EBC90000EB091031684900B0FBF1F72E
:100C900007E009EBC90000EB091031688900B0FBDF
:100CA000F1F76420B7FBF0F004012009642101FB97
:100CB0001078A88900F4004040B1322000EBC80051
:100CC000B0FBF1F000F00700044308E0322000EB35
:100CD00008106421B0FBF1F000F00F0004432C81F8
:100CE000BDE8FF87001001400014014001468888DC
:100CF000C0F308007047C1F308028280704700BF4C
:100D0000FEE700BF7047000010B504466FF0040016
:100D1000FFF78CFEE11704EB5171C1F3C701074ADD
:100D200011701046007800EB4001C1EBC0104FF687
:100D3000FF7101EAC0000249088010BD10000020C8
:100D40001200002070B504464FF4077094FBF0F0D9
:100D5000C6B24FF4077094FBF0F100FB114085B26E
:100D600005E04FF4077000F009F8701EC6B2002EBF
:100D7000F7D115B1284600F001F870BD0146114ABF
:100D800012884A434FF0E0235A6100229A611A46C2
:100D9000126942F001021A6100BF4FF0E0221069AF
:100DA00000F001021AB100F48032002AF5D04FF0B1
:100DB000E022126922F001024FF0E0231A610022C2
:100DC0009A617047120000204FF4A060FFF7F6FC14
:100DD000A820FFF799FF4FF4FA3000F049F8FFF729
:100DE0008DFCFFF77BFAFFF763FB3BE000242CE070
:100DF000002526E004EBC40000EB04101A4901EBC7
:100E0000C000405DFF2808D1FE2004EBC40101EBC7
:100E10000411154A02EBC101485504EBC40000EB74
:100E20000410114A02EBC000415D1048FFF763FF58
:100E300000BF40210D48FFF793FE0128F9D1681C3F
:100E400085B26E2DD6DB601C84B2502CD0DBFF2126
:100E50000648FFF750FF00BF40210448FFF780FE1F
:100E60000128F9D1C2E700002C0000200010014049
:100E700010B588B0044601210846FFF7ABFC0121FC
:100E80001020FFF7B7FC072209212248FFF7E4FBF7
:100E900007220A211F48FFF7DFFB4FF4C0600690CE
:100EA00002208DF81C008DF81D0000208DF81E001A
:100EB00001208DF81F0006A91648FFF785FB029454
:100EC0000020ADF80C00ADF80E00ADF81000ADF844
:100ED00014000C20ADF8120002A90F48FFF79CFE89
:100EE00001210D48FFF730FE012240F225510A484A
:100EF000FFF76DFE25208DF8040003208DF8050016
:100F00008DF8060001208DF8070001A8FFF71AFCF4
:100F100008B010BD00000240001001404FF04070CA
:100F2000E1EE100A70470000480F000800000020A2
:100F30002C000000C4010008740F00082C000020E1
:100F40006CA30000E00100080000000000000000A9
:100F50000000000000000000000000000000000091
:100F60000000000000000102030401020304060760
:040F7000080900006C
:040000050800018965
:00000001FF
