:020000040800F2
:1000000078250020CD010008A9050008E1040008BA
:10001000A50500087D0200088D13000800000000FF
:10002000000000000000000000000000610B00085C
:100030008102000800000000490A0008750C000851
:10004000E7010008E7010008E7010008E7010008F0
:10005000E7010008E7010008E7010008E7010008E0
:10006000E7010008E701000885020008E701000831
:10007000E7010008E7010008E7010008E7010008C0
:10008000E7010008E7010008E7010008E7010008B0
:10009000E7010008E7010008E70100080103000884
:1000A000E7010008E7010008E7010008E701000890
:1000B000E7010008E7010008E7010008E701000880
:1000C000E7010008E7010008E7010008E701000870
:1000D000E70100082D120008E7010008E701000809
:1000E000E7010008E7010008E7010008E701000850
:1000F000E7010008E7010008E7010008E701000840
:10010000E7010008E7010008D90C0008E701000832
:10011000E7010008E7010008E7010008E70100081F
:10012000E7010008E7010008E7010008E70100080F
:1001300000F002F800F03AF80AA090E8000C8244BF
:100140008344AAF10107DA4501D100F02FF8AFF29C
:10015000090EBAE80F0013F0010F18BFFB1A43F0A5
:1001600001031847D4210000F4210000103A24BFF5
:1001700078C878C1FAD8520724BF30C830C144BF0C
:1001800004680C607047000000230024002500264E
:10019000103A28BF78C1FBD8520728BF30C148BFEA
:1001A0000B6070471FB51FBD10B510BD00F038F8CB
:1001B0001146FFF7F7FF01F02BFA00F056F803B4F1
:1001C000FFF7F2FF03BC01F03FF900000948804748
:1001D00009480047FEE7FEE7FEE7FEE7FEE7FEE729
:1001E000FEE7FEE7FEE7FEE704480549054A064B41
:1001F00070470000790C000831010008781F0020CA
:100200007825002078210020782100207047704751
:10021000704770477047000000487047181F002063
:100220007546FFF7F9FFAE4605006946534620F0D4
:100230000700854618B020B5FFF7D6FFBDE820407F
:100240004FF000064FF000074FF000084FF0000B92
:1002500021F00701AC46ACE8C009ACE8C009ACE845
:10026000C009ACE8C0098D46704710B50446AFF32D
:1002700000802046BDE81040FFF7A1BF00BFFEE7A9
:100280007047000010B51A480068132826DD194889
:100290000068462822DA16480068032190FBF1F234
:1002A00001FB1200D0B9002400E0641C5F2CFCDDCF
:1002B00063240CE0104800680E49096801EBC10294
:1002C00002EB01110D4A02EB81010855641E002C5E
:1002D000F0DA08480068401C0649086004480068D5
:1002E000401C03490860102000F018F810BD000001
:1002F0001C000020200000201481224278000020F1
:1003000010B500200349086003490860402000F050
:1003100005F810BD200000201C00002001490860E5
:1003200070470000140401402DE9F0410246002509
:100330000026002000230024002791F803C00CF0C1
:100340000F0591F803C00CF0100CBCF1000F03D0A6
:1003500091F802C04CEA050591F800C0BCF1000F0D
:1003600031D0146800202BE04FF0010C0CFA00F3A0
:10037000B1F800C00CEA03069E4220D183004FF082
:100380000F0C0CFA03F7BC4305FA03FC4CEA040417
:1003900091F803C0BCF1280F06D14FF0010C0CFA04
:1003A00000FCC2F814C00AE091F803C0BCF1480F89
:1003B00005D14FF0010C0CFA00FCC2F810C0401C33
:1003C0000828D1D31460B1F800C0BCF1FF0F34DDB0
:1003D000546800202EE000F1080C4FF0010808FAE4
:1003E0000CF3B1F800C00CEA03069E4221D1830051
:1003F0004FF00F0C0CFA03F7BC4305FA03FC4CEA70
:10040000040491F803C0BCF1280F05D100F1080CD9
:1004100008FA0CF8C2F8148091F803C0BCF1480F38
:1004200007D100F1080C4FF0010808FA0CF8C2F8E7
:100430001080401C0828CED35460BDE8F081000035
:10044000F0B50A46002300240021002500F00046F4
:10045000B6F1004F02D11D4EF16901E01B4E7168EB
:10046000C0F3034583B200F44016B6F5401F08D12F
:1004700021F07061154E766826F07066134F7E602D
:1004800012E000F48016B6F5801F06D1032606FAA6
:1004900005F4A14341F0706106E0460D360103FA10
:1004A00006F6B14341F0706122B1460D360103FA00
:1004B00006F6314300F00046B6F1004F02D1034E7C
:1004C000F16101E0014E7160F0BD000000000140EB
:1004D0000146886880B2704741617047016170478A
:1004E00000BFFEE710B54FF480410848FFF7F6FF64
:1004F00040210748FFF7F2FF40210548FFF7ECFFD6
:100500004FF480410148FFF7E7FF10BD00100140A4
:100510000018014010B54FF480410648FFF7DEFF98
:1005200040210548FFF7D8FF40210348FFF7D6FFD9
:1005300010BD0000001001400018014010B54FF43C
:1005400080410448FFF7CAFF4FF480410148FFF79C
:10055000C3FF10BD0010014008B510208DF8030046
:1005600003208DF802000F20ADF8000001210420C7
:1005700000F07CFA69460A48FFF7D6FE48208DF85D
:10058000030003208DF80200F020ADF8000069465A
:100590000348FFF7C9FE0F210148FFF79DFF08BD83
:1005A0000008014000BFFEE77047000070B5002161
:1005B00000230F22C47804B3154C246804F4E064CB
:1005C000C4F5E064210AC1F10403CA40447804FA86
:1005D00003F184781440214309010E4C0678A1559B
:1005E000047804F01F050124AC4005786D11AD00BE
:1005F00005F1E025C5F8004109E0047804F01F0585
:100600000124AC40044D0678761145F8264070BDB3
:100610000CED00E000E400E080E100E0024901436D
:10062000024A1160704700000000FA050CED00E07E
:1006300070B5002418E004F1B000002100F07FF94B
:100640000021084600F07BF90021102000F077F926
:10065000002505E00121002000F071F9681CC5B2F9
:10066000802DF7DB601CC4B2082CE4DB70BD0000F9
:1006700008B50121502000F0F9F94FF48040ADF8A1
:10068000000010208DF8030003208DF80200694659
:100690004548FFF749FE4FF480414348FFF71EFFEE
:1006A0004020ADF8000010208DF8030003208DF8E5
:1006B000020069463D48FFF737FE40213B48FFF7FF
:1006C0000DFFC82000F0E4FE0021AE2000F037F955
:1006D0000021084600F033F90021102000F02FF926
:1006E0000021402000F02BF90021B02000F027F974
:1006F0000021812000F023F90021FF2000F01FF9E4
:100700000021A12000F01BF90021A62000F017F91C
:100710000021A82000F013F900213F2000F00FF97C
:100720000021C82000F00BF90021D32000F007F9C8
:100730000021084600F003F90021D52000F0FFF861
:100740000021802000F0FBF80021D82000F0F7F80D
:100750000021052000F0F3F80021D92000F0EFF887
:100760000021F12000F0EBF80021DA2000F0E7F89A
:100770000021122000F0E3F80021DB2000F0DFF878
:100780000021302000F0DBF800218D2000F0D7F8A8
:100790000021142000F0D3F80021AF2000F0CFF8A2
:1007A000FFF746FF08BD000000100140001801409F
:1007B00070B504460D4605F1B000002100F0BFF809
:1007C000102141EA1410002100F0B9F804F00F00E4
:1007D000002100F0B4F870BD2DE9F04707460E4641
:1007E0009046994600250024A8F12000C5B27F2F2D
:1007F00002DD0027B01CC6B2B9F1100F24D131467A
:100800003846FFF7D5FF002408E004EB0511194A2C
:10081000505C012100F093F8601CC4B2082CF4DB9A
:10082000701CC1B23846FFF7C3FF002409E004EB97
:10083000051108310F4A505C012100F080F8601C5E
:10084000C4B2082CF3DB12E031463846FFF7B0FFA4
:1008500000240AE005EB4501074A02EB4101085D6F
:10086000012100F06CF8601CC4B2062CF2DBBDE87C
:10087000F0870000481D0008201B00082DE9FF5FDD
:10088000074691461E460E9D4FF0000A002435E0B3
:10089000301B401EC1B20A2001F06CF8B9FBF0F029
:1008A0000A21B0FBF1F201FB1208BAF1000F14D1DA
:1008B000701EA04211DDB8F1000F0CD1AB4605EB64
:1008C000DB71491001FB0471C8B22B46202201994B
:1008D000FFF782FF10E04FF0010AAB4605EBDB713A
:1008E000491001FB0471C8B208F13001CAB22B46AD
:1008F0000199FFF771FF00BF601CC4B2B442C7DBAF
:10090000BDE8FF9F2DE9F04104460F461546984685
:1009100000260FE0AA5D434639462046FFF75CFFFC
:1009200004F10800C4B2782C02DD0024B81CC7B260
:10093000701CC6B2A85D0028ECD1BDE8F08170B58E
:1009400004460D461DB1E0B200F068FD02E0E0B2E1
:1009500000F04EFD70BD000030B589B005460C4674
:100960000121022000F072F80121112000F07EF830
:1009700001213248FFF764FD4FF47070ADF820009C
:1009800018208DF8230003208DF8220008A92C4898
:10099000FFF7CAFCADF81850ADF814400020ADF8D0
:1009A0001A00ADF8160005A9264800F0EDFB7020EE
:1009B000ADF804000120ADF806000020ADF80A00F3
:1009C0000220ADF80C0001A91E4800F079FA0821B8
:1009D0001C4800F0C1FA01A91A4800F0C7FA082122
:1009E000184800F015FB01A9164800F01FFB08216C
:1009F000144800F06BFB01A9124800F071FB0821BC
:100A0000104800F0ABFB01210E4800F023FA7821DA
:100A10000C4800F0B0FB78210A4800F0AEFB7821CA
:100A2000084800F0ACFB0021064800F0AAFB0121B9
:100A3000044800F01EFA09B030BD0000000C1A0096
:100A400000100140000400407047000029B1064A30
:100A5000D2690243044BDA6104E0034AD26982435B
:100A6000014BDA61704700000010024029B1064ACC
:100A700092690243044B9A6104E0034A92698243FB
:100A8000014B9A61704700000010024030B5002110
:100A90000022002400232D4D6D6805F00C0121B1CA
:100AA000042905D0082923D105E0294D056022E05D
:100AB000274D05601FE0254D6D6805F47012234D2C
:100AC0006D6805F48034022505EB92421CB9214D76
:100AD000554305600BE01D4D6D6805F400351DB1F3
:100AE0001C4D5543056002E0194D5543056002E079
:100AF000174D056000BF00BF144D6D6805F0F00193
:100B00000909154D6B5C0568DD4045600F4D6D684A
:100B100005F4E061090A104D6B5C4568DD408560B5
:100B20000A4D6D6805F46051C90A0B4D6B5C456850
:100B3000DD40C560054D6D6805F44041890B074DEA
:100B40006B5CC568B5FBF3F5056130BD0010024074
:100B500000127A0000093D004200002052000020EF
:100B6000704710B500F002F810BD00000CB5002071
:100B7000019000903348006840F4803031490860AB
:100B800000BF3048006800F4003000900198401C1D
:100B90000190009818B90198B0F5A06FF1D12948DB
:100BA000006800F4003010B10120009001E0002046
:100BB00000900098012843D12348006840F01000BD
:100BC000214908600846006820F0030008600846D4
:100BD000006840F0020008601A48406819494860FF
:100BE0000846406848600846406840F480604860B5
:100BF0000846406820F47C1048600846406840F48D
:100C0000E81048600846006840F08070086000BF47
:100C10000C48006800F000700028F9D009484068CE
:100C200020F00300074948600846406840F0020091
:100C3000486000BF0348406800F00C000828F9D164
:100C40000CBD00000010024000200240042808D122
:100C50004FF0E021096941F004014FF0E0221161F9
:100C600007E04FF0E021096921F004014FF0E02294
:100C7000116170477047000010B51348006840F0DC
:100C800001001149086008464068104908400E49B3
:100C90004860084600680E4908400B49086008464D
:100CA000006820F4802008600846406820F4FE00B8
:100CB00048604FF41F008860FFF753FF4FF000605B
:100CC0000449086010BD0000001002400000FFF859
:100CD000FFFFF6FE08ED00E010B501213D4800F0F1
:100CE000D4F8002874D03C480078401C3A49087079
:100CF00008460078192190FBF1F201FB1200002850
:100D000062D13549087000F0E9FB344908700846A3
:100D10000078102858D0084600780C2804D14120CB
:100D20002F490870FFF784FC2C4800780D2804D167
:100D300042202B490870FFF77BFC284800780E28DA
:100D400004D1432026490870FFF772FC234800783D
:100D50000F280CD1FFF76CFC22480078401C214979
:100D6000087008460078032801DD002008701B4841
:100D700000780B2804D11C480078C0431A49087039
:100D800017480078412807D116480078012803D178
:100D9000124800781549087011480078422807D198
:100DA00010480078012803D10C48007810490870D9
:100DB0000B480078432807D10A480078012803D15E
:100DC000064800780B4908700121024800F04EF8EF
:100DD00010BD0000000C00401A000020250000207B
:100DE00024000020140000201900002058000020DA
:100DF000620000206C0000207FB505460C460121F2
:100E00000820FFF723FEADF80850ADF8044000209D
:100E1000ADF80A00ADF8060001A90D4800F0B4F9DC
:100E2000012211460A4800F041F832208DF80000F6
:100E300000208DF801008DF8020001208DF80300DC
:100E40006846FFF7B3FB0121014800F012F87FBDAF
:100E5000000C004021B1028842F08002028004E0D0
:100E600002884FF67F731A4002807047CA4302829D
:100E7000704721B1028842F00102028004E002883A
:100E80004FF6FE731A400280704730B502460020CC
:100E900000230024158A05EA0103958905EA010467
:100EA00013B10CB1012000E0002030BD1AB18389DC
:100EB0000B43838102E083898B4383817047000069
:100EC00070B5002400220023058C4FF6FE763540D5
:100ED0000584028C8388048B4FF68F752C40B51ED9
:100EE0002C400D882C43751E2A400D892A434D88BD
:100EF0002A43144DA8420BD0134DA84208D0134DDD
:100F0000A84205D0124DA84202D0124DA84213D1DA
:100F10004FF6F7752A404D892A434FF6FB752A4054
:100F20008D882A434FF6FF652B404FF6FF552B4027
:100F30008D892B43CD892B4383800483CD8885867F
:100F4000028470BD002C014000340140004001408B
:100F500000440140004801400A460021018B4FF641
:100F6000F7731940114301837047000070B50024E6
:100F700000220023058C4FF6EF7635400584028C65
:100F80008388048B48F6FF752C404FF6FF452C40B4
:100F90000D884FF6FF7606EA05252C434FF6DF75E0
:100FA0002A400D8906EA05152A434D8806EA0515EB
:100FB0002A43154DA84202D0144DA8421DD14FF628
:100FC0007F752A404D894FF6FF7606EA05152A43BC
:100FD0004FF6BF752A408D8806EA05152A434FF65D
:100FE000FF352B404FF2FF752B408D8906EA8505B2
:100FF0002B43CD8906EA85052B4383800483CD8866
:101000000587028470BD0000002C014000340140BF
:101010000A460021018B4FF2FF7319404FF6FF7310
:1010200003EA0223194301837047000070B50024CE
:1010300000220023058C4FF6FF6635400584028CA4
:101040008388848B4FF68F752C404FF6FC752C40AF
:101050000D882C434FF6FF552A400D894FF6FF7639
:1010600006EA05252A434D8806EA05252A43154D3B
:10107000A84202D0144DA8421DD14FF2FF752A405C
:101080004D894FF6FF7606EA05252A434FF6FF35D0
:101090002A408D8806EA05252A434EF6FF752B4027
:1010A0004DF6FF752B408D8906EA05152B43CD893A
:1010B00006EA05152B4383808483CD8885870284C7
:1010C00070BD0000002C0140003401400A460021A0
:1010D000818B4FF6F77319401143818370470000ED
:1010E00070B5002200230024058C4EF6FF763540B3
:1010F0000584038C8488828B48F6FF752A404FF65E
:10110000FF452A400D884FF6FF7606EA05252A435B
:101110004DF6FF752B400D8906EA05352B434D88AA
:1011200006EA05352B430B4DA84202D00A4DA842D2
:1011300008D14BF6FF752C408D894FF6FF7606EAF5
:1011400085152C4384808283CD88A0F84050038489
:1011500070BD0000002C0140003401400A4600210F
:10116000818B4FF2FF7319404FF6FF7303EA02239E
:101170001943818370478186704701877047818753
:101180007047A0F840107047002202881D4B98421B
:101190000ED01D4B98420BD0B0F1804F08D01B4BA6
:1011A000984205D01A4B984202D01A4B984204D16B
:1011B0004FF68F731A404B881A43174B984207D04B
:1011C000164B984204D04FF6FF431A40CB881A437F
:1011D00002808B8883850B8803850A4B98420BD04D
:1011E000094B984208D00E4B984205D00D4B9842BF
:1011F00002D00D4B984201D10B7A038601238382E2
:1012000070470000002C0140003401400004004001
:1012100000080040000C0040001000400014004096
:1012200000400140004401400048014010B540F238
:101230002551024800F010F810BD000000380140B0
:1012400021B1828942F40052828104E082894DF604
:10125000FF731A408281704770B502460024002354
:101260000025002040F66A16B14200D100BFC1F34C
:10127000421501F01F03012606FA03F3012D02D1E6
:101280009689334006E0022D02D1168A334001E0F0
:10129000968A33400C12012606FA04F4168834406C
:1012A00013B10CB1012000E0002070BD2DE9F04722
:1012B00086B005460E460024A24600BFA146002780
:1012C000B08900B100BF2F462C8A4CF6FF70044055
:1012D000F08804432C82AC894EF6F3100440B088A9
:1012E00031890843718908430443AC81AC8A4FF6C5
:1012F000FF400440B0890443AC8201A8FFF7C6FB5D
:101300001F48874202D1DDF810A001E0DDF80CA0F3
:10131000A88900F4004040B10AEBCA0000EB0A10B3
:1013200031684900B0FBF1F807E00AEBCA0000EBB6
:101330000A1031688900B0FBF1F86420B8FBF0F0C6
:1013400004012009642101FB1089A88900F40040F0
:1013500040B1322000EBC900B0FBF1F000F0070013
:10136000044308E0322000EB09106421B0FBF1F0E7
:1013700000F00F0004432C8106B0BDE8F0870000A8
:1013800000380140C1F308028280704700BFFEE7C9
:101390002DE9F04105462C464FF480411248FFF7F5
:1013A0009BF800261BE0274607F08007802F04D11A
:1013B00040210E48FFF792F803E040210B48FFF769
:1013C0008BF86006040E4FF480410748FFF786F85B
:1013D0004FF480410448FFF77FF8701CC6B2082E16
:1013E000E1DBBDE8F0810000001001400018014081
:1013F00010B50446FFF776F87820FFF7C9FFFFF72E
:101400009DF80020FFF7C4FFFFF798F82046FFF78C
:10141000BFFFFFF793F8FFF77DF810BD10B5044646
:10142000FFF760F87820FFF7B3FFFFF787F8402059
:10143000FFF7AEFFFFF782F82046FFF7A9FFFFF79F
:101440007DF8FFF767F810BD00BF704710B56FF06B
:101450000400FFF7FBFB0A4800680A49B0FBF1F003
:10146000094908700846007800EB4001C1EBC01044
:101470004FF6FF7101EAC0000449088010BD00006A
:101480000000002000127A00260000202800002022
:101490000146114A12884A434FF0E0235A61002264
:1014A0009A611A46126942F001021A6100BF4FF0B8
:1014B000E022106900F001021AB100F48032002A23
:1014C000F5D04FF0E022126922F001024FF0E02344
:1014D0001A6100229A6170472800002010B510247C
:1014E0004A48FEF7F5FFC0B2FF2877D00A20FFF781
:1014F000CFFF4648FEF7ECFFC0B2FF28F5D0082129
:101500004248FEF7E9FF07214048FEF7E7FF3F4862
:10151000FEF7DEFFC0B2772806D0B72806D0D7285E
:1015200006D0E72808D105E00F2405E00B2403E0EE
:10153000002401E00A2400BF00BF04213348FEF765
:10154000CBFF0B213148FEF7C9FF3048FEF7C0FF43
:10155000C0B27B2806D0BB2806D0DB2806D0EB28FB
:1015600008D105E00E2405E0092403E0082401E089
:10157000072400BF00BF02212448FEF7ADFF0D2164
:101580002248FEF7ABFF2148FEF7A2FFC0B27D283C
:1015900006D0BD2806D0DD2806D0ED2808D105E00C
:1015A0000D2405E0062403E0052401E0042400BF27
:1015B00000BF01211548FEF78FFF0E211348FEF7EB
:1015C0008DFF1248FEF784FFC0B27E2807D0BE28E8
:1015D00007D0DE2807D0EE2809D106E013E00C245E
:1015E00005E0032403E0022401E0012400BF00BF62
:1015F0000F210648FEF770FF00BF0448FEF768FFA2
:10160000C0B2F028F9D1204610BD0000000801400A
:1016100008B500260024002555274FF4A060FEF7EA
:10162000FDFFFFF713FF4FF4E13000F02FFA4FF406
:10163000E13000F0ABF94FF4E13000F0E7F9FEF7EC
:101640008BFFFFF715F80221EF20FFF785F941F630
:101650001F413120FFF7D0FB33E1701CC6B21420CC
:1016600096FBF0F100FB1160002874D1002695482C
:10167000007830B1012839D002286DD003286CD110
:10168000B4E091480078F0B100208F4908708F488D
:101690000088552817D110238DA200210846FFF796
:1016A00031F91020042300908D480288002108465B
:1016B000FFF7E4F81020042300908A4802880021F4
:1016C0003020FFF7DBF8102387A202210020FFF76C
:1016D00019F9102387A204210020FFF713F9102322
:1016E00086A206210020FFF70DF994E0102387A2BF
:1016F00000210846FFF706F91023864802780021EA
:101700003020FFF769F8102383A202210020FFF7A1
:10171000F9F88048007841280CD1102080490090C9
:101720000A5D302101EBC401C8B201230221FFF799
:10173000A5F834E07748007842280FD11020794985
:1017400000900A5D302101EBC401C8B201230221DF
:10175000FFF794F823E05FE02EE05BE06D4800784F
:1017600043280CD11020704900900A5D302101EB14
:10177000C401C8B201230221FFF780F80FE06548D9
:1017800000784F280BD1102351A202210020FFF72F
:10179000B9F8102365A202210020FFF7B3F8102347
:1017A00064A204210020FFF7ADF8102363A20621F4
:1017B0000020FFF7A7F82EE0102354A200210846CE
:1017C000FFF7A0F810235348027800213020FFF7DC
:1017D00003F810235DA204210020FFF793F81023E3
:1017E0005CA206210020FFF78DF814E05C48007829
:1017F00010280ED0102336A202210020FFF782F815
:101800001020022300905648027819460020FFF766
:1018100035F800E000BF00BF5248007800284DD0E6
:101820003C480078412815D139464F48FFF7AAFDBA
:101830000A20FFF72DFEAA214B48FFF7A3FD0A203F
:10184000FFF726FE3648415D4748FFF79BFD0A201B
:10185000FFF71EFE2F480078422815D1394643482D
:10186000FFF790FD0A20FFF713FEBB213F48FFF76B
:1018700089FD0A20FFF70CFE2A48415D3B48FFF72F
:1018800081FD0A20FFF704FE22480078432815D185
:1018900039463748FFF776FD0A20FFF7F9FDCC21DE
:1018A0003348FFF76FFD0A20FFF7F2FD1E48415D48
:1018B0002F48FFF767FD0A20FFF7EAFD0520FFF735
:1018C000E7FDCAE614000020340000203C000020A0
:1018D0002020202020202020202020202020000048
:1018E0003E00002040000020564C4320646576698D
:1018F000636500004D4F4445203100006669782043
:10190000706F7374696F6E73000000004C45443A49
:1019100020000000240000206E756D733A20000046
:1019200058000020620000206C00002073656E6487
:10193000210000004D4F44452032000073656E6465
:10194000206E756D62657273000000004D4F444556
:101950002033000073656E64206D75736963000049
:1019600025000020190000200038014000480040F8
:10197000004C004010B50246012000E050430B1E11
:10198000A1F10104E1B2F9D110BD000010B586B09B
:10199000044601210820FFF769F801218804FFF7B8
:1019A00055F84FF48060ADF8140003208DF8160050
:1019B00018208DF8170005A91248FEF7B5FC4FF462
:1019C0000060ADF8140004208DF8170005A90D483B
:1019D000FEF7AAFC01940020ADF80800ADF80A005B
:1019E000ADF80C00ADF810000C20ADF80E0001A908
:1019F0000548FFF75BFC01210348FFF721FC06B017
:101A000010BD0000000C01400048004010B586B039
:101A1000044601211020FFF729F80121C804FFF72F
:101A200015F84FF48060ADF8140003208DF816000F
:101A300018208DF8170005A91248FEF775FC4FF421
:101A40000060ADF8140004208DF8170005A90D48BA
:101A5000FEF76AFC01940020ADF80800ADF80A001A
:101A6000ADF80C00ADF810000C20ADF80E0001A987
:101A70000548FFF71BFC01210348FFF7E1FB06B017
:101A800010BD000000100140004C004010B586B0B1
:101A90000446012144F20400FEF7E8FF4FF4007011
:101AA000ADF8140003208DF8160018208DF81700EB
:101AB00005A91948FEF738FC4FF48060ADF8140012
:101AC00004208DF8170005A91348FEF72DFC2520EA
:101AD0008DF8000000208DF8010001208DF8020033
:101AE0008DF803006846FEF761FD01940020ADF813
:101AF0000800ADF80A00ADF80C00ADF810000C209D
:101B0000ADF80E0001A90548FFF7D0FB01210348FD
:101B1000FFF796FB06B010BD0008014000380140F9
:101B20000000000000000000002F0000000007007F
:101B3000070000147F147F1400242A7F2A120062F9
:101B400064081323003649552250000005030000A5
:101B500000001C224100000041221C000014083E2D
:101B600008140008083E0808000000A060000008F3
:101B70000808080800006060000000201008040247
:101B8000003E5149453E0000427F40000042615105
:101B90004946002141454B31001814127F1000279F
:101BA00045454539003C4A49493000017109050362
:101BB00000364949493600064949291E0000363693
:101BC00000000000563600000008142241000014F6
:101BD00014141414000041221408000201510906D3
:101BE00000324959513E007C1211127C007F494954
:101BF0004936003E41414122007F4141221C007F85
:101C000049494941007F09090901003E4149497A92
:101C1000007F0808087F0000417F4100002040410C
:101C20003F01007F08142241007F40404040007F78
:101C3000020C027F007F0408107F003E4141413EBC
:101C4000007F09090906003E4151215E007F091904
:101C500029460046494949310001017F0101003F01
:101C60004040403F001F2040201F003F4038403F81
:101C700000631408146300070870080700615149E5
:101C8000454300007F41410000552A552A55000078
:101C900041417F00000402010204004040404040F6
:101CA000000001020400002054545478007F48448E
:101CB000443800384444442000384444487F0038C5
:101CC0005454541800087E0901020018A4A4A47CEE
:101CD000007F080404780000447D400000408084B8
:101CE0007D00007F102844000000417F4000007C00
:101CF00004180478007C080404780038444444380C
:101D000000FC242424180018242418FC007C080457
:101D1000040800485454542000043F444020003C30
:101D20004040207C001C2040201C003C4030403CB7
:101D3000004428102844001CA0A0A07C0044645447
:101D40004C4414141414141400000000000000008B
:101D50000000000000000000000000F8000000008B
:101D6000000000333000000000100C06100C0600CC
:101D7000000000000000000040C07840C078400033
:101D8000043F04043F040400007088FC0830000095
:101D9000001820FF211E0000F008F000E0180000ED
:101DA00000211C031E211E0000F0088870000000A6
:101DB0001E2123241927211010160E0000000000F8
:101DC0000000000000000000000000E01804020015
:101DD000000000071820400000020418E000000086
:101DE0000040201807000000404080F08040400084
:101DF0000202010F01020200000000F000000000DA
:101E00000101011F010101000000000000000000AD
:101E100080B0700000000000000000000000000022
:101E200000010101010101010000000000000000AB
:101E30000030300000000000000000008060180446
:101E4000006018060100000000E010080810E00023
:101E5000000F102020100F00001010F800000000EC
:101E60000020203F20200000007008080888700033
:101E700000302824222130000030088888483000B3
:101E80000018202020110E000000C02010F80000D3
:101E900000070424243F240000F80888880808006C
:101EA0000019212020110E0000E010888818000081
:101EB000000F112020110E0000380808C838080053
:101EC0000000003F000000000070880808887000D3
:101ED000001C222121221C0000E010080810E00054
:101EE0000000312222110F00000000C0C0000000DD
:101EF0000000003030000000000000800000000002
:101F000000008060000000000000804020100800F9
:101F100000010204081020004040404040404000C2
:101F2000040404040404040000081020408000009D
:101F30000020100804020100007048080808F000A2
:101F40000000003036010000C030C828E810E00072
:101F50000718272423140B000000C038E0000000FD
:101F6000203C23020227382008F888888870000067
:101F7000203F202020110E00C0300808080838003B
:101F8000071820202010080008F808080810E000B2
:101F9000203F202020100F0008F88888E808100053
:101FA000203F20202320180008F88888E808100027
:101FB000203F200003000000C0300808083800005F
:101FC00007182020221E020008F808000008F80860
:101FD000203F210101213F20000808F808080000E7
:101FE0000020203F2020000000000808F80808001A
:101FF000C08080807F00000008F888C02818080092
:10200000203F20012638200008F8080000000000CA
:10201000203F20202020300008F8F800F8F80800C1
:10202000203F003F003F200008F830C00008F808BB
:10203000203F200007183F00E01008080810E000CB
:102040000F10202020100F0008F808080808F000E2
:10205000203F210101010000E01008080810E00005
:102060000F18242438504F0008F88888888870009A
:10207000203F2000030C302000708808080838003A
:102080000038202121221C00180808F80808180030
:102090000000203F2000000008F808000008F808B1
:1020A000001F202020201F000878880000C8380862
:1020B000000007380E010000F80800F80008F800DA
:1020C000033C0700073C0300081868808068180874
:1020D00020302C03032C30200838C800C8380800F2
:1020E0000000203F2000000010080808C838080041
:1020F0002038262120201800000000FE02020200E5
:102100000000007F40404000000C30C00000000094
:10211000000000010638C00000020202FE000000BC
:10212000004040407F000000000004020202040062
:10213000000000000000000000000000000000009F
:102140008080808080808080000202040000000087
:10215000000000000000000000008080808000007F
:102160000019242222223F2008F80080800000006D
:10217000003F112020110E00000000808080000030
:10218000000E112020201100000000808088F8003F
:10219000000E112020103F20000080808080000071
:1021A000001F222222221300008080F088888818D5
:1021B0000020203F202000000000808080808000E0
:1021C000006B94949493600008F800808080000075
:1021D000203F210000203F20008098980000000050
:1021E0000020203F20200000000000809898000080
:1021F00000C08080807F000008F8000080808000A0
:10220000203F24022D302000000808F800000000C4
:102210000020203F2020000080808080808080007F
:10222000203F20003F20003F808000808080000011
:10223000203F210000203F2000008080808000009F
:10224000001F202020201F008080008080000000D0
:1022500080FFA12020110E000000008080808000FF
:10226000000E112020A0FF808080800080808000F0
:1022700020203F212000010000008080808080001D
:102280000033242424241900008080E08080000092
:102290000000001F202000008080000000808000DF
:1022A000001F202020103F20808080000080808040
:1022B00000010E30080601008080008000808080D0
:1022C0000F300C030C300F000080800080808000F5
:1022D0000020312E0E312000808080000080808020
:1022E00080818E70180601000080808080808000D0
:1022F0000021302C2221300000000000807C0202EE
:1023000000000000003F404000000000FF0000000F
:1023100000000000FF0000000002027C80000000BE
:102320000040403F000000000006010102020404DA
:1023300000000000000000005823000800000020FA
:10234000580000006C010008B0230008580000206D
:10235000202500008801000800A24A0400000000B7
:102360000000000001020304060708090001000044
:10237000000000000000000000000000410000001C
:10238000000000000000000000000000000000004D
:10239000000000000000000000000000000001023A
:1023A00003040102030406070809020406080000EA
:0400000508000131BD
:00000001FF
