:020000040800F2
:10000000F0260020D5010008E1120008910B00083D
:10001000B1120008AD070008331D00080000000001
:10002000000000000000000000000000A117000810
:10003000B1070008000000008B160008B518000882
:10004000EF010008EF010008EF010008EF010008D0
:10005000EF010008EF010008EF010008EF010008C0
:10006000EF010008EF010008FD070008EF0100089C
:10007000EF010008EF010008EF010008EF010008A0
:10008000EF010008EF010008EF010008EF01000890
:10009000EF010008EF010008EF01000879080008EF
:1000A000EF010008EF010008EF010008EF01000870
:1000B000EF010008EF010008EF010008EF01000860
:1000C000EF010008EF010008EF010008EF01000850
:1000D000EF010008111B0008EF010008EF01000804
:1000E000C5070008EF010008EF010008EF01000854
:1000F000EF010008EF010008EF010008EF01000820
:10010000EF010008EF01000851190008EF01000895
:10011000EF010008EF010008EF010008EF010008FF
:10012000EF010008EF010008EF010008EF010008EF
:1001300000F002F800F03FF80AA090E8000C8244BA
:100140008344AAF10107DA4501D100F034F8AFF297
:10015000090EBAE80F0013F0010F18BFFB1A43F0A5
:1001600001031847E47A0000047B0000103A24BF22
:1001700078C878C1FAD8520724BF30C830C144BF0C
:1001800004680C607047000000230024002500264E
:10019000103A28BF78C1FBD8520728BF30C148BFEA
:1001A0000B607047642900F06780002070471FB51E
:1001B0001FBD10B510BD00F0CBFA1146FFF7F7FFD9
:1001C00003F052FD00F0E9FA03B4FFF7F2FF03BCBD
:1001D00001F08FFE0948804709480047FEE7FEE727
:1001E000FEE7FEE7FEE7FEE7FEE7FEE7FEE7FEE7E7
:1001F00004480549054A064B70470000B918000835
:1002000031010008F0200020F0260020F02200201C
:10021000F0220020704710B54C1084EA530404D536
:100220004042C1F1000138BF491E1B4204D5524271
:10023000C3F1000338BF5B1E00F02EF914F0804FAD
:1002400004D04042C1F1000138BF491E14F0004FF4
:1002500004D05242C3F1000338BF5B1E10BD000042
:100260000FB4044910B503AA029800F0F1F910BCCC
:100270005DF814FBCC0000202DE9F0410646002477
:1002800010687529314616A510D0AFF300800028FC
:1002900002DA404213A507E031688A0701D512A5AA
:1002A00002E0490704D511A5012401E0AFF3008065
:1002B00000210A2206F1240709E0B0FBF2FCB0FBA2
:1002C000F2F302FB1C00303078541846491C002819
:1002D000F3D123462A463046BDE8F04100F05EB92E
:1002E000000000002D0000002B0000002000000096
:1002F0002DE9F05F894604464FF0000ADFF824B18B
:10030000FB44C0F820A02046E168884700287DD043
:10031000252806D0D4E901219047206A401C20629C
:10032000F1E700255F462046E16888472028064619
:1003300007DB312E05D2B81910F8200C08B105439F
:10034000F1E7A80701D525F00405C4F81CA0002793
:10035000C4F818A02A2E09D0304601F0C3FD38B3E6
:1003600004EB8708303EC8F8186019E059F8041B00
:10037000204604EB87029161E1688847012F064619
:1003800018D1E069002820DA25F020051DE0D8F812
:10039000180000EB800006EB40003038C8F8180069
:1003A0002046E1688847064601F09CFD0028EED112
:1003B000012F0AD02E2E08D12046E16888477F1CE5
:1003C0000646022F45F02005C4DBA069002803DAA9
:1003D000404245F00105A061E80701D025F0100575
:1003E000A6B1A6F14100192802D8203645F40065CF
:1003F0004A463146204625604D46FFF7D3FE60B1A0
:10040000012807D0ED1D25F0070000E007E000F10E
:10041000080978E705F1040975E730467AE7206AAC
:10042000BDE8F09F8E78000040EA010310B59B07FD
:100430000FD1042A0DD310C808C9121F9C42F8D04E
:1004400020BA19BA884201D9012010BD4FF0FF30FF
:1004500010BD1AB1D30703D0521C07E0002010BD15
:1004600010F8013B11F8014B1B1B07D110F8013BA1
:1004700011F8014B1B1B01D1921EF1D1184610BD82
:1004800002F0FF0343EA032242EA024200F0F4B81A
:10049000704770477047704753EA020C00F069805C
:1004A0002DE9F04B4FF00006002B1FBFB3FA83F588
:1004B00003FA05F424FA05F65E4012BF1643B2FAB9
:1004C00082F502FA05F4C5F120051EBF22FA05FCEB
:1004D00044EA0C04203556EA044C4FEA144418BF91
:1004E000641C4FF000084FF00009904271EB030CC0
:1004F00039D3002919BFB1FA81F701FA07F6B0FA2A
:1005000080F700FA07F6C7F120071EBF20FA07FCA4
:1005100046EA0C062037B6FBF4FCA7EB0507103FB4
:1005200007F01F0BCBF120060CFA0BFB2CFA06F69A
:1005300044BFB3460026202FA4BF5E464FF0000BF9
:100540005BEA060C08BF4FF0010B19EB0B09ABFB84
:10055000027C48EB0608C01B06FB02CC0BFB03CC5D
:1005600071EB0C01C1E70B46024641464846BDE827
:10057000F08B13B54FF000004FF00001AFF3008097
:10058000BDE81C40704710B500F096F8006810BD3B
:1005900010B5044600F090F8046010BD2DE9F04756
:1005A0000D4699469246044600F1240801688806E3
:1005B00004D5E06921F01001216000E00120A8428B
:1005C00001DD471B00E00027A1697A1902EB090051
:1005D000081AA0612078C00602D42046AFF300803C
:1005E000002608E0D4E901211AF806009047206AA5
:1005F000401C761C20624E45F4DB2078C0060AD5EC
:100600002046AFF3008006E0D4E901213020904776
:10061000206A401C2062381EA7F10107F4DC07E0C5
:10062000D4E9012118F805009047206A401C206297
:10063000281EA5F10105F3DC2046AFF300802078E9
:10064000000602D50220BDE8F0870120FBE700008C
:10065000074B70B50D467B4400F037F8044628463A
:1006600000F046F810B14FF0FF3070BD204670BD6D
:100670002F2B00004FF000020429C0F0128010F070
:10068000030C00F03B80CCF1040CBCF1020F18BF4E
:1006900000F8012BA8BF20F8022BA1EB0C0100F001
:1006A0002DB85FEAC17C24BF00F8012B00F8012BB4
:1006B00048BF00F8012B7047004870478C2000208D
:1006C00001694A1C02610878704700B58FB0CDE916
:1006D00001310021059105497944CDE90310114606
:1006E0006846FFF705FE0FB000BD0000E5FFFFFF05
:1006F000007B00F0800070474FF0000200B5134609
:1007000094469646203922BFA0E80C50A0E80C5031
:10071000B1F12001BFF4F7AF090728BFA0E80C50E2
:1007200048BF0CC05DF804EB890028BF40F8042BDB
:1007300008BF704748BF20F8022B11F0804F18BF48
:1007400000F8012B70470000004870478C20002003
:100750007546FFF7F9FFAE4605006946534620F09F
:100760000700854618B020B5FFF742FDBDE82040E0
:100770004FF000064FF000074FF000084FF0000B5D
:1007800021F00701AC46ACE8C009ACE8C009ACE810
:10079000C009ACE8C0098D46704710B50446AFF3F8
:1007A00000802046BDE81040FFF70EBD00BFFEE709
:1007B000704701B502E00098401E009000980028A4
:1007C000F9D108BD10B501200649087006A0FFF751
:1007D00047FD03F065F9084908704FF4AA7000F06E
:1007E000C5F810BDBC000020696E20696E7465728A
:1007F000727570740A000000B900002010B51A4824
:100800000068132826DD19480068462822DA1648B1
:100810000068032190FBF1F201FB1200D0B9002423
:1008200000E0641C5F2CFCDD63240CE010480068D1
:100830000E49096801EBC10202EB01110D4A02EBFE
:1008400081010855641E002CF0DA08480068401C3D
:100850000649086004480068401C034908601020ED
:1008600000F08AF810BD0000C0000020C400002085
:10087000148122422401002010B5002003490860A1
:1008800003490860402000F077F810BDC400002044
:10089000C00000201FB50121202000F007FF01212A
:1008A000084600F003FF1020ADF8080048208DF83E
:1008B0000B0003208DF80A0002A92B4800F0CCF8A9
:1008C0004020ADF8080048208DF80B0003208DF87B
:1008D0000A0002A9244800F0BFF82020ADF8080063
:1008E00048208DF80B0003208DF80A0002A91E484D
:1008F00000F0B2F8102000F03FF80421032000F0CF
:100900008BF8402000F038F80621032000F084F82E
:100910005020009000208DF804000C208DF8050078
:1009200001208DF80600684600F02CF80A208DF8AA
:100930000C0003208DF80D0002208DF80E00012020
:100940008DF80F0003A800F0CDFC17208DF80C00E7
:1009500000208DF80D008DF80E0001208DF80F009D
:1009600003A800F0BFFC1FBD00140140014908604E
:1009700070470000140401400149086070470000FE
:1009800014040140002123498279002A3AD00A4602
:10099000126803689A430B461A600A1D12680368BE
:1009A0009A430B1D1A60027911440A6803681A43BE
:1009B0000A60184A0832126803689A43154B0833D4
:1009C0001A601A1D126803689A43124B0C331A609E
:1009D0004279102A0ED11A1F126803681A430D4B70
:1009E00008331A601A1D126803681A43094B0C3346
:1009F0001A600DE00749427911440A6803681A43F6
:100A00000A6005E0027911440A6803689A430A60A3
:100A1000704700000004014030B500228B071C0F16
:100A20000F2303FA04F20B4B8C1053F8243093433A
:100A3000084C8D1044F8253023468C1053F8243090
:100A40008C07240F00FA04F42343024C8D1044F861
:100A5000253030BD080001402DE9F0410246002557
:100A60000026002000230024002791F803C00CF08A
:100A70000F0591F803C00CF0100CBCF1000F03D06F
:100A800091F802C04CEA050591F800C0BCF1000FD6
:100A900031D0146800202BE04FF0010C0CFA00F369
:100AA000B1F800C00CEA03069E4220D183004FF04B
:100AB0000F0C0CFA03F7BC4305FA03FC4CEA0404E0
:100AC00091F803C0BCF1280F06D14FF0010C0CFACD
:100AD00000FCC2F814C00AE091F803C0BCF1480F52
:100AE00005D14FF0010C0CFA00FCC2F810C0401CFC
:100AF0000828D1D31460B1F800C0BCF1FF0F34DD79
:100B0000546800202EE000F1080C4FF0010808FAAC
:100B10000CF3B1F800C00CEA03069E4221D1830019
:100B20004FF00F0C0CFA03F7BC4305FA03FC4CEA38
:100B3000040491F803C0BCF1280F05D100F1080CA2
:100B400008FA0CF8C2F8148091F803C0BCF1480F01
:100B500007D100F1080C4FF0010808FA0CF8C2F8B0
:100B60001080401C0828CED35460BDE8F0810146B7
:100B7000886880B270470246002093680B400BB132
:100B8000012000E00020704741617047016170471B
:100B900000BFFEE710B54FF400510848FFF7F6FF1D
:100BA00010210748FFF7F2FF10210548FFF7ECFF7F
:100BB0004FF400510148FFF7E7FF10BD001001405E
:100BC0000018014010B54FF400510648FFF7DEFF52
:100BD00010210548FFF7D8FF10210348FFF7D6FF83
:100BE00010BD0000001001400018014010B54FF486
:100BF00000510448FFF7CAFF4FF400510148FFF7C6
:100C0000C3FF10BD0010014010B501214448FFF79B
:100C1000B2FF01281FD143A0FFF722FB4348007811
:100C2000012816D142480078012805D141480088A2
:100C3000401C00B23F4908803D480078032807D196
:100C40003C4988684FF07E5105F07EF9394988604B
:100C500000E000BF00BF02213148FFF78CFF0128F0
:100C60001FD135A0FFF7FCFA30480078012816D1D3
:100C70002F480078012805D12E480088401E00B278
:100C80002C4908802A480078032807D12949886818
:100C90004FF07E5105F060FC2649886000E000BFFF
:100CA00000BF04211E48FFF766FF01280DD124A0D4
:100CB000FFF7D6FA1E480078401E1D490870084606
:100CC0000078012801DA0320087008211448FFF792
:100CD00052FF01280DD11CA0FFF7C2FA144800787A
:100CE000401C1349087008460078032801DD0120E4
:100CF000087020210A48FFF73EFF01280FD100F0BD
:100D000033FB13A0FFF7ACFA08480078401C0749F2
:100D1000087008460078062801DD0020087010BD24
:100D2000001801406164640A000000001400002003
:100D300015000020F80000207375620A0000000012
:100D40006C6173740A0000006E6578740A0000001C
:100D5000616E6F746865720A0000000008B50121B9
:100D6000402000F0A3FC2F20ADF8000028208DF8D3
:100D7000030069460148FFF76FFE08BD00180140F7
:100D80002DE9FC4107460C4615466B4606224321D9
:100D9000682000F0B7F906467EB99DF803009DF87B
:100DA000021040EA012000B220809DF805009DF865
:100DB000041040EA012000B228803046BDE8FC81E2
:100DC00010B500200E4908600E48006820F47040FD
:100DD0000C4908600846006840F440500860002054
:100DE0000949C1F8AC0100F011F80120044908607C
:100DF00000F00CF800200449C1F8A80110BD000063
:100E0000A8812142040C01400080214210B502203B
:100E100001F0AAFA10BD000008B50121082000F079
:100E200045FC4FF44060ADF8000010208DF8030041
:100E300003208DF8020069460448FFF70DFE4FF4C9
:100E400040610248FFF7A2FE08BD0000000C01400F
:100E500010B500200E4908600E48006820F470406C
:100E60000C4908600846006840F4405008600120C2
:100E70000949C1F8AC01FFF7C9FF01200449086026
:100E8000FFF7C4FF00200449C1F8A80110BD00000D
:100E9000A8812142040C01400080214270B5054622
:100EA00000241648006820F4704014490860084681
:100EB000006840F400400860002614E0002010495B
:100EC0000860FFF7A3FF01200E49C1F8A8016006E2
:100ED000040E0B487C38006808B1601CC4B2FFF7F0
:100EE00095FF701CC6B2082EE8DB15B9FFF7B0FFFE
:100EF00001E0FFF765FF204670BD0000040C0140D3
:100F0000A88121420080214270B504461248006841
:100F100020F47040104908600846006840F44050D2
:100F2000086000200D490860002512E0E0090B4927
:100F3000091D08606006040E01200949C1F8A801D6
:100F4000FFF764FF002005490860FFF75FFF681C9A
:100F5000C5B2082DEADB70BD040C0140A881214216
:100F60000080214210B50E48006820F470400C4902
:100F700008600846006840F44050086001200949B4
:100F800008600949C1F8A801FFF740FF00200549A2
:100F90000860FFF73BFF00200349C1F8A80110BD1E
:100FA000040C0140AC8121420080214210B50E4862
:100FB000006820F470400C4908600846006840F45E
:100FC000405008600020094908600949C1F8AC0197
:100FD000FFF71CFF0120054908600549C1F8AC0175
:100FE000FFF714FF10BD0000040C0140A88121424E
:100FF0000080214210B500241448006820F470409D
:10100000124908600846006840F40040086001206A
:101010000F490860FFF7FAFE01200E49C1F8A80148
:10102000FFF7F4FE07E0601CC4B2FA2C03DDFFF703
:10103000BDFF012010BD0648803800680028F2D1AD
:101040000349091F086000BFF4E70000040C0140D9
:10105000AC8121420080214210B5FFF7DDFE8021E6
:101060006B2000F0D3F8642001F058F900216B20C8
:1010700000F0CCF8032000F087F8002000F07CF8A6
:10108000322000F0A6F80021382000F0BFF800213F
:101090006A2000F0BBF80021232000F0B7F880217F
:1010A000372000F0B3F8752000F00FF80446682CE4
:1010B0000AD101216B2000F0A9F800216C2000F07A
:1010C000A5F8322000F085F810BD70B50446FFF792
:1010D00049FFD020FFF718FFFFF78CFF2046FFF7EE
:1010E00013FFFFF787FFFFF73DFFD120FFF70CFF4E
:1010F000FFF780FF0020FFF7D1FE0546FFF756FF00
:10110000284670BD2DE9F04106460F4614461D469F
:10111000FFF728FF002141EA4601C8B2FFF7F4FEBD
:10112000FFF768FF20B1FFF741FF0120BDE8F08124
:101130003846FFF7E9FEFFF75DFFFFF713FF0121D8
:1011400001EB4601C8B2FFF7DFFEFFF753FF0DE0EA
:10115000012C04D10020FFF7A1FE287003E001203C
:10116000FFF79CFE2870601EC4B26D1C002CEFD1EE
:10117000FFF71CFF0020D9E710B50446E006010E7A
:101180001C2000F043F810BD10B50446E006010E27
:101190001B2000F03BF810BD70B504460025BC2CA8
:1011A00001DB012510E0622C01DB02250CE02A2C7A
:1011B00001DB032508E0142C01DB042504E00A2CE4
:1011C00001DB052500E0062529461A2000F01EF85F
:1011D00070BD70B50446B4F57A7F01DD4FF47A74C2
:1011E000042C00DA04244FF47A7090FBF4F0401ED3
:1011F000C5B22946192000F009F80546264604EB39
:10120000D671C1F34F00FFF7C7FF70BD70B505463B
:101210000C46FFF7A7FED020FFF776FEFFF7EAFEA9
:1012200018B1FFF7C3FE012070BD2846FFF76CFE22
:10123000FFF7E0FE2046FFF767FEFFF7DBFE18B181
:10124000FFF7B4FE0120EFE7FFF7B0FE0020EBE769
:101250002DE9F04105460E4617469846FFF782FEF7
:10126000002141EA4501C8B2FFF74EFEFFF7C2FE7A
:1012700020B1FFF79BFE0120BDE8F0813046FFF76B
:1012800043FEFFF7B7FE00240CE018F80400FFF758
:101290003BFEFFF7AFFE18B1FFF788FE0120EBE73A
:1012A000601CC4B2BC42F0DBFFF780FE0020E3E725
:1012B00000BFFEE74B200849C881152008804FF485
:1012C000FA70488040F6B83088800448886040F65C
:1012D000C410888170470000F800002000003442EC
:1012E0007047000070B5002100230F22C47804B3BA
:1012F000154C246804F4E064C4F5E064210AC1F1EB
:101300000403CA40447804FA03F18478144021436A
:1013100009010E4C0678A155047804F01F0501243C
:10132000AC4005786D11AD0005F1E025C5F8004130
:1013300009E0047804F01F050124AC40044D067850
:10134000761145F8264070BD0CED00E000E400E0A9
:1013500080E100E002490143024A11607047000049
:101360000000FA050CED00E070B5002418E004F16F
:10137000B000002100F07DF90021084600F079F965
:101380000021102000F075F9002505E00121002062
:1013900000F06FF9681CC5B2802DF7DB601CC4B289
:1013A000082CE4DB70BD000008B50121502000F0DE
:1013B0007DF94FF40050ADF8000010208DF80300C7
:1013C00003208DF8020069464448FFF745FB4FF4BF
:1013D00000514248FFF7DAFB1020ADF800008DF80D
:1013E000030003208DF8020069463D48FFF734FBF7
:1013F00010213B48FFF7CAFBC82000F08FFF0021F7
:10140000AE2000F036F90021084600F032F9002144
:10141000102000F02EF90021402000F02AF90021D0
:10142000B02000F026F90021812000F022F90021EF
:10143000FF2000F01EF90021A12000F01AF9002180
:10144000A62000F016F90021A82000F012F90021D2
:101450003F2000F00EF90021C82000F00AF9002119
:10146000D32000F006F90021084600F002F900211F
:10147000D52000F0FEF80021802000F0FAF80021CD
:10148000D82000F0F6F80021052000F0F2F8002145
:10149000D92000F0EEF80021F12000F0EAF8002158
:1014A000DA2000F0E6F80021122000F0E2F8002136
:1014B000DB2000F0DEF80021302000F0DAF8002117
:1014C0008D2000F0D6F80021142000F0D2F8002181
:1014D000AF2000F0CEF8FFF747FF08BD0010014035
:1014E0000018014070B504460D4605F1B00000211A
:1014F00000F0BFF8102141EA1410002100F0B9F803
:1015000004F00F00002100F0B4F870BD2DE9F047A1
:1015100007460E469046994600250024A8F1200073
:10152000C5B27F2F02DD0027B01CC6B2B9F1100F83
:1015300024D131463846FFF7D5FF002408E004EBFC
:101540000511194A505C012100F093F8601CC4B2E7
:10155000082CF4DB701CC1B23846FFF7C3FF00242F
:1015600009E004EB051108310F4A505C012100F03D
:1015700080F8601CC4B2082CF3DB12E03146384618
:10158000FFF7B0FF00240AE005EB4501074A02EB34
:101590004101085D012100F06CF8601CC4B2062C0A
:1015A000F2DBBDE8F0870000A27500087A7300083E
:1015B0002DE9FF5F074691461E460E9D4FF0000A3B
:1015C000002435E0301B401EC1B20A2003F068FD44
:1015D000B9FBF0F00A21B0FBF1F201FB1208BAF1FD
:1015E000000F14D1701EA04211DDB8F1000F0CD114
:1015F000AB4605EBDB71491001FB0471C8B22B4609
:1016000020220199FFF782FF10E04FF0010AAB465C
:1016100005EBDB71491001FB0471C8B208F1300120
:10162000CAB22B460199FFF771FF00BF601CC4B21C
:10163000B442C7DBBDE8FF9F2DE9F04104460F46E9
:101640001546984600260FE0AA5D434639462046D7
:10165000FFF75CFF04F10800C4B2782C02DD00241F
:10166000B81CC7B2701CC6B2A85D0028ECD1BDE89A
:10167000F08170B504460D461DB1E0B200F0A2FB4A
:1016800002E0E0B200F088FB70BD704729B1064A65
:10169000D2690243044BDA6104E0034AD26982430F
:1016A000014BDA61704700000010024029B1064A80
:1016B00092690243044B9A6104E0034A92698243AF
:1016C000014B9A61704700000010024030B50021C4
:1016D0000022002400232D4D6D6805F00C0121B17E
:1016E000042905D0082923D105E0294D056022E011
:1016F000274D05601FE0254D6D6805F47012234DE0
:101700006D6805F48034022505EB92421CB9214D29
:10171000554305600BE01D4D6D6805F400351DB1A6
:101720001C4D5543056002E0194D5543056002E02C
:10173000174D056000BF00BF144D6D6805F0F00146
:101740000909154D6B5C0568DD4045600F4D6D68FE
:1017500005F4E061090A104D6B5C4568DD40856069
:101760000A4D6D6805F46051C90A0B4D6B5C456804
:10177000DD40C560054D6D6805F44041890B074D9E
:101780006B5CC568B5FBF3F5056130BD0010024028
:1017900000127A0000093D00D2000020E200002083
:1017A000704710B500F002F810BD00000CB5002025
:1017B000019000903348006840F48030314908605F
:1017C00000BF3048006800F4003000900198401CD1
:1017D0000190009818B90198B0F5A06FF1D129488F
:1017E000006800F4003010B10120009001E00020FA
:1017F00000900098012843D12348006840F0100071
:10180000214908600846006820F003000860084687
:10181000006840F0020008601A48406819494860B2
:101820000846406848600846406840F48060486068
:101830000846406820F47C1048600846406840F440
:10184000E81048600846006840F08070086000BFFB
:101850000C48006800F000700028F9D00948406882
:1018600020F00300074948600846406840F0020045
:10187000486000BF0348406800F00C000828F9D118
:101880000CBD00000010024000200240042808D1D6
:101890004FF0E021096941F004014FF0E0221161AD
:1018A00007E04FF0E021096921F004014FF0E02248
:1018B000116170477047000010B51348006840F090
:1018C00001001149086008464068104908400E4967
:1018D0004860084600680E4908400B490860084601
:1018E000006820F4802008600846406820F4FE006C
:1018F00048604FF41F008860FFF753FF4FF000600F
:101900000449086010BD0000001002400000FFF80C
:10191000FFFFF6FE08ED00E010B54FF0804000F04C
:1019200084F804B2204610BD4FF080429084704786
:1019300010B5034800F079F804B2204610BD00004D
:1019400000080040014A1080704700002408004051
:1019500010B50121124800F06BF8F8B101F038FD24
:1019600001F04EFD0F4801680F48006802F0A6FA2A
:101970000E480078401C0D4908700846007819216F
:1019800090FBF1F201FB120020B90020074908701A
:10199000FFF73AF90121024800F038F810BD0000C5
:1019A000000C00407C000020780000204D0000204A
:1019B0007FB505460C4601210820FFF767FEADF80C
:1019C0000850ADF804400020ADF80A00ADF806005C
:1019D00001A90D4800F04AF8012211460A4800F01A
:1019E00038F832208DF8000000208DF801008DF8C5
:1019F000020001208DF803006846FFF773FC012107
:101A0000014800F006F87FBD000C0040CA43028286
:101A1000704721B1028842F00102028004E002888E
:101A20004FF6FE731A40028070470146888C70475B
:101A300030B50246002000230024158A05EA010380
:101A4000958905EA010413B10CB1012000E00020E2
:101A500030BD1AB183890B43838102E083898B43B4
:101A60008381704781867047018770470022028812
:101A70001D4B98420ED01D4B98420BD0B0F1804FB9
:101A800008D01B4B984205D01A4B984202D01A4BF3
:101A9000984204D14FF68F731A404B881A43174B64
:101AA000984207D0164B984204D04FF6FF431A4095
:101AB000CB881A4302808B8883850B8803850A4B69
:101AC00098420BD0094B984208D00E4B984205D053
:101AD0000D4B984202D00D4B984201D10B7A0386F0
:101AE0000123838270470000002C01400034014034
:101AF0000004004000080040000C004000100040BE
:101B000000140040004001400044014000480140F2
:101B100010B540F225511D4800F04AF810B31B489B
:101B200000F002F9C4B21A48008800F40040C8B9B5
:101B30001748008800F4804060B10A2C03D00020D0
:101B40001349088020E01248008840F40040104902
:101B5000088019E00D2C06D10D48008840F4804023
:101B60000B49088010E00A480088C0F30D000949BD
:101B70000C5407480088401C054908800846008826
:101B8000C72801DD0020088010BD0000003801409A
:101B9000D0000020C41F002021B1828942F40052ED
:101BA000828104E082894DF6FF731A40828170477A
:101BB00070B50246002400230025002040F66A1676
:101BC000B14200D100BFC1F3421501F01F0301264D
:101BD00006FA03F3012D02D19689334006E0022D67
:101BE00002D1168A334001E0968A33400C12012656
:101BF00006FA04F41688344013B10CB1012000E059
:101C0000002070BDF0B5034600240026002500200A
:101C100040F66A17B94200D100BF1846C1F342141A
:101C200001F01F06012707FA06F5012C01D10C303F
:101C300004E0022C01D1103000E014301AB1076822
:101C40002F43076002E00768AF430760F0BD000064
:101C50002DE9F04786B005460E460024A24600BF97
:101C6000A1460027B08900B100BF2F462C8A4CF650
:101C7000FF700440F08804432C82AC894EF6F310C8
:101C80000440B08831890843718908430443AC811A
:101C9000AC8A4FF6FF400440B0890443AC8201A8EF
:101CA000FFF714FD1F48874202D1DDF810A001E0C4
:101CB000DDF80CA0A88900F4004040B10AEBCA008E
:101CC00000EB0A1031684900B0FBF1F807E00AEBBD
:101CD000CA0000EB0A1031688900B0FBF1F86420FB
:101CE000B8FBF0F004012009642101FB1089A889E8
:101CF00000F4004040B1322000EBC900B0FBF1F02D
:101D000000F00700044308E0322000EB09106421D2
:101D1000B0FBF1F000F00F0004432C8106B0BDE8E9
:101D2000F08700000038014001468888C0F30800B1
:101D3000704700BFFEE700002DE9F04105462C4644
:101D40004FF400511248FEF71FFF00261BE0274604
:101D500007F08007802F04D110210E48FEF716FFF0
:101D600003E010210B48FEF70FFF6006040E4FF44E
:101D700000510748FEF70AFF4FF400510448FEF7F0
:101D800003FF701CC6B2082EE1DBBDE8F081000045
:101D9000001001400018014010B50446FEF7FAFE9D
:101DA0007820FFF7C9FFFEF721FF0020FFF7C4FFEF
:101DB000FEF71CFF2046FFF7BFFFFEF717FFFEF7F9
:101DC00001FF10BD10B50446FEF7E4FE7820FFF7D2
:101DD000B3FFFEF70BFF4020FFF7AEFFFEF706FF55
:101DE0002046FFF7A9FFFEF701FFFEF7EBFE10BD4F
:101DF000490050EAC12018BF04204A0D18BF40F026
:101E0000010040F2FF72B2EB515F08BF40F00200E8
:101E1000012808BF052070472DE9F0414F1E00EB57
:101E2000C7010446D1E9000115461E4637F00602F7
:101E30000DD02A46334603F081FD7F1E04EBC70315
:101E4000D3E9002303F02CFB37F00602F1D1022F77
:101E500025D0042F13D0062F18BFBDE8F0812A46E5
:101E6000334603F06BFDD4E90A2303F019FB2A463D
:101E7000334603F063FDD4E9082303F011FB2A463F
:101E8000334603F05BFDD4E9062303F009FB2A4641
:101E9000334603F053FDD4E9042303F001FB2A4643
:101EA000334603F04BFDD4E9022303F0F9FA2A4646
:101EB000334603F043FDD4E90023BDE8F04103F0CD
:101EC000EFBA012204F0EFBB002213461046114680
:101ED00003F096BB024A0020110704F0E4BB0000A7
:101EE00001FDFFFF30380A2801D201207047002091
:101EF0007047014600BF70472DE9FE4F06460F466A
:101F00000025684601F04EF9002442E056F824000E
:101F100057F82410A0EB010ABAF1000F01DB51467B
:101F200001E0CAF10001084604F0AEF983464FF023
:101F30008F4104F077F880465DF82400002104F01A
:101F400033F916D05DF82410404604F06BF8824651
:101F50004FF07E5104F000FB814629F0004A0F4803
:101F6000416A504604F0BCFA12D20120A040054359
:101F70000EE00A48C169404604F0B2F905D30748AB
:101F8000016A404604F0ACFA02D20120A0400543A9
:101F9000641C032CBADB2846BDE8FE8F5C67000892
:101FA0002DE9F04704460D462946204604F0D4FAB0
:101FB000074639460B4804F0C7F980460A49B1F98B
:101FC00000102A2201FB02F004F05EF98146494626
:101FD000404604F0C1FA824604F01AF9064630463B
:101FE000BDE8F0870000B4435E00002010B5034850
:101FF00001680348FFF7D4FF404210BD50000020A5
:10200000000020412DE9F04D8D4F21F0004A86B0AF
:1020100005460C46BA452ADBAAEB070028430AD03E
:102020008848824501DC1AD1CDB106B02846BDE80A
:10203000F04DFFF746BF844A844B284603F07EFCF0
:1020400007460E46824A834B2846214603F076FC1B
:1020500006B03A463346BDE8F04D03F021BA012000
:10206000FEF796FA06B0BDE8F04DFFF72DBF7A48AF
:10207000824542DABAF1795F0BDA2846FFF7B8FEFB
:10208000042808BFFFF726FF284606B02146BDE812
:10209000F08D2A460B46104603F050FC834602465C
:1020A0006E480E460B4606217844FFF7B5FE5A46A9
:1020B000334603F043FC804669488A465A46334615
:1020C00004217844FFF7A8FE5A46334603F036FC55
:1020D00000223B4603F0E4F902460B4640465146D7
:1020E00003F08EFA2A46234603F028FC06B02A465F
:1020F0002346BDE8F04D03F0D3B9284624F0004153
:1021000000223D463B4603F017FD4FF0FF3204F03E
:10211000CAFA0646024653480F460B460621784443
:10212000FFF77AFE32463B4603F008FCCDE900019A
:102130004D4832463B4604217844FFF76DFE324657
:102140003B4603F0FBFB00222B4603F0A9F9834634
:1021500002913046394603F041F8804643480D4627
:10216000504517DCDDE900015A46029B03F048FAAE
:1021700042462B4603F0E2FB42462B4603F090F921
:10218000012204F090FA304A304B03F0C7FD304A88
:10219000304B4CE04FF0000A52460B46404603F0ED
:1021A0007FF9CDE9031052462B461046194603F03D
:1021B000C5FB32463B4603F0BFFCDDE9033203F0CA
:1021C0001FFA06460F46DDE900015A46029B03F05E
:1021D00017FA8346009101223046394604F063FA2B
:1021E000194A1A4B03F0A8FC06460F460122404646
:1021F000294604F058FA5A46009B03F09FFB3246EA
:102200003B4603F08BFD06460F4601225046294609
:1022100004F049FA0E4DDFF858802A46434603F091
:102220008BFC32463B4603F087FC2A46434603F0CC
:1022300083FC002CD8BF81F0004106B0BDE8F08DD2
:102240000000F03F0000F07F075C143326A6913CAD
:10225000182D4454FB21F93F0000E03FFC5A0000D8
:10226000125B0000865A00009C5A00003333EF3F97
:10227000FB21E93F2DE9F0410446E07800F0C0067B
:10228000E07800F03F05607800F0010098B1EF10B1
:102290002846E91705EB5171C910A5EBC101491C8E
:1022A00001F0FF080B48006820B10A484146026867
:1022B0003846904700BF607800F0080030B105480C
:1022C000406818B1B011034A516888470020BDE842
:1022D000F0810000E800002010B56FF00400FFF767
:1022E000D5FA0A4800680A49B0FBF1F009490870BC
:1022F0000846007800EB4001C1EBC0104FF6FF71BB
:1023000001EAC0000449088010BD00000000002060
:1023100000127A00C8000020CA0000200146114ABD
:1023200012884A434FF0E0235A6100229A611A460C
:10233000126942F001021A6100BF4FF0E0221069F9
:1023400000F001021AB100F48032002AF5D04FF0FB
:10235000E022126922F001024FF0E0231A6100220C
:102360009A617047CA0000200146114A12784A4318
:102370004FF0E0235A6100229A611A46126942F036
:1023800001021A6100BF4FF0E022106900F0010263
:102390001AB100F48032002AF5D04FF0E022126921
:1023A00022F001024FF0E0231A6100229A61704787
:1023B000C80000202DE9F05F04460D464FF480610F
:1023C0002548FEF7D8FB4FEA001A4FF40071224867
:1023D000FEF7D1FB0AEBC00A4FF480711E48FEF7EE
:1023E000CAFB0AEB800A80211B48FEF7C4FB0AEBFC
:1023F000400A40211848FEF7BEFB504400F0FF0998
:10240000484600F029FF154908800846B0F9000049
:1024100003F03AFF8346214603F096FF82461049B7
:1024200003F000FE814603F0F3FE06460D48B0F9C6
:10243000000003F029FF8346294603F085FF82460A
:10244000094903F0EFFD814603F0E2FE074606EB83
:1024500007084046BDE8F09F0018014068000020D2
:102460000000C841600000200000C8422DE9FC5F68
:1024700004464D48B0F9000003F049FA07464B4ABC
:102480004B4B03F05BFA05460E464A48B0F9000094
:1024900003F03DFA0746484A484B03F04FFA82469C
:1024A0002A46334602F0FCFFCDE9000103F000FAB2
:1024B00000B2404908800846B0F900003A49088057
:1024C0003F480078022858DB00203D4908703D480D
:1024D00000683D4908603D49B1F9001001FB04F076
:1024E00003F0D2FE3A4908603849B1F9040003F01C
:1024F000CBFE054636480168284603F0F1FE07D2B8
:102500003249B1F9040003F0BFFE3149086012E01E
:102510002E49B1F9020003F0B7FE05462C480168C8
:10252000284603F0DDFF06D22849B1F9020003F086
:10253000ABFE274908602548816825480068FFF7F9
:1025400039FF204908602148B0F90C000968884229
:1025500005DA1E48B0F90C001A4908600DE01B4866
:10256000B0F90C00404217490968884205DD174858
:10257000B0F90C0040421349086011480078401C33
:102580000F4908700F4909680F4A1268891A0C4AE6
:10259000127801FB02F000EBD0710B4A126802EBDB
:1025A00061094846BDE8FC9F9E0000209A999999D0
:1025B0009999B93F60000020CDCCCCCCCCCCEC3F7D
:1025C0009C000020A4000020A0000020F8000020B3
:1025D0008000002038B5044664B120208DF800004A
:1025E00028208DF8010030208DF8020038208DF869
:1025F000030004E0A32204216846FDF741FF6A4678
:10260000042140F69E2002F00BFD02F0F5F838BDE3
:102610003EB5044602208DF80000CA208DF8010066
:10262000E3208DF8020009208DF803006A4604219A
:10263000682002F0F5FCA3208DF8000004F04000B3
:1026400048B1C0208DF80100C8208DF80200C220DA
:102650008DF8030006E0A3208DF801008DF802003C
:102660008DF8030004F4C07048B1C4208DF8040054
:10267000CC208DF80500C6208DF8060006E0A320CA
:102680008DF804008DF805008DF80600A3208DF864
:1026900007008DF808008DF809006A460A2140F607
:1026A000A72002F0BDFC04F0030018B120208DF833
:1026B000000002E0D8208DF800006A46012140F6B3
:1026C000B62002F0ADFC04F0200018B1012000F0AB
:1026D000ADF802E0002000F0A9F804F4C07008B3DF
:1026E00004F4807060B1B2208DF800008B208DF86A
:1026F0000100B6208DF802009B208DF803000BE04E
:10270000B0208DF8000080208DF80100B4208DF8F5
:10271000020090208DF803006A46042140F6A220B2
:1027200002F07EFC04F0010020B3F8208DF80000D8
:102730006A4601214FF40B6002F072FCFA21072077
:1027400000F02CFC072000F0F3FB012000F013FC4C
:10275000642000F0F3FC4FF4FA7000F002FDC82191
:10276000304800F0A3FB282000F0BCFB0A2000F05A
:10277000CCFB08E0D8208DF800006A4601214FF418
:102780000B6002F04DFC04F0020018B1D9208DF866
:10279000000002E0D8208DF800006A46012140F2D6
:1027A0003D7002F03DFC04F0040018B1012000F07F
:1027B00069F802E0002000F065F804F0100018B19C
:1027C0000120FFF707FF02E00020FFF703FF44F0BE
:1027D00008001549488102F00FF80020124988735B
:1027E00004F0400018B10846807B801D887304F413
:1027F000C07020B10C48807B801D0B49887304F0A9
:10280000140020B10848807B10300749887304F019
:10281000030020B10448807B001D03498873002019
:102820003EBD000009E3CA02E80000203EB50446B0
:102830006CB10EA1D1E900208968CDE90020029198
:102840006A4609214FF4976002F0EAFB3EBD0AA2F6
:10285000D2E900109268CDE9010200916A4609218F
:102860004FF4976002F0DCFBF0E70000B8AAB38DEC
:10287000B4980D355D000000B8AAAAAAB088C3C5F7
:10288000C700000038B5044664B1C0208DF80000D0
:10289000C2208DF80100C4208DF80200C6208DF8FA
:1028A000030004E08B2204216846FDF7E9FD6A4637
:1028B000042140F6982002F0B3FB01F09DFF38BDE3
:1028C00010B5C8234FF48062024940F6F63001F09B
:1028D00027FE10BD846700082DE9F04F8DB0074634
:1028E000884615469946DDE9166B002400203080A5
:1028F0006B49887B5A4605A901F0DEFE18B1601EBF
:102900000DB0BDE8F08F6648807A00F01400002812
:1029100067D09DF8140000069DF8151040EA0140AC
:102920009DF8161040EA01209DF817100843286012
:102930009DF8180000069DF8191040EA01409DF826
:102940001A1040EA01209DF81B10084368609DF8AA
:102950001C0000069DF81D1040EA01409DF81E1065
:1029600040EA01209DF81F100843A8609DF8200050
:1029700000069DF8211040EA01409DF8221040EA2F
:1029800001209DF823100843E86004F11000C4B250
:10299000286800140190686800140290A868001468
:1029A0000390E8680014049001984043029901FBE9
:1029B0000100039901FB0100049901FB010ABAF12E
:1029C000706F02DBBAF1885F05DD01F015FF0020B2
:1029D0003080401E94E7B6F9000040F480703080EB
:1029E00000BF2F48807A00F0400020B305A9601C8A
:1029F000085C095D40EA012000B2A8F8000005A9C2
:102A0000E01C095C05AAA01C105C41EA002000B291
:102A1000A8F8020005A9601D095C201D105C41EAB0
:102A2000002000B2A8F80400A01DC4B2B6F900004E
:102A300040F0080030801A48408900F4C07008B3A4
:102A400005A9601C085C095D40EA012000B23880DD
:102A500005A9E01C095C05AAA01C105C41EA002045
:102A600000B2788005A9601D095C201D105C41EA58
:102A7000002000B2B880A01DC4B2B6F9000040F03A
:102A8000700030800648807A00F0030018B105A974
:102A90000819FFF7EFFB484601F00AFA00202FE77C
:102AA000E800002070B588B0064601A801F08CFB54
:102AB000BDF804000021C90341EA5045C40344485D
:102AC000007A00F0030056F8200005904048007A94
:102AD00000F0040010B10598404205903C48007A8F
:102AE000C0F3C10056F8200006903948007A00F083
:102AF000200010B10698404206903548007AC0F395
:102B0000811056F8200007903148008900F4807049
:102B100010B10798404207900598C117A0FB042305
:102B200001FB043100FB0510810041EA9270059021
:102B30000698C117A0FB042301FB043100FB05101C
:102B4000810041EA927006900798C117A0FB042308
:102B500001FB043100FB0510810041EA92700790EF
:102B60000598000E8DF808000598000C8DF80900F6
:102B70000598000A8DF80A000598C0B28DF80B0080
:102B80000698000E8DF80C000698000C8DF80D00CC
:102B90000698000A8DF80E000698C0B28DF80F0056
:102BA0000798000E8DF810000798000C8DF81100A2
:102BB0000798000A8DF812000798C0B28DF813002C
:102BC00002AA0C214FF4257002F02AFA08B070BD59
:102BD000E800002030B585B0044616A207CA02AB53
:102BE00007C3C82C03DD4FF0FF3005B030BDC8204F
:102BF00090FBF4F0401E85B2280A8DF80000E8B280
:102C00008DF801006A46022140F2162002F008FA0F
:102C100010B14FF0FF30E8E702AA0C2140F6C120C6
:102C200002F0FEF910B14FF0FF30DEE70448848176
:102C30000020DAE7FEF2ABC4AAF1DFDFBBAFDFDFD3
:102C4000E80000201FB504464848007A00F0030061
:102C500054F8200001904548007A00F0040010B1BB
:102C60000198404201904148007AC0F3C10054F8F5
:102C7000200002903D48007A00F0200010B1029838
:102C8000404202903948007AC0F3811054F8200085
:102C900003903648008900F4807010B103984042D8
:102CA00003903349019880FB0101800F40EA8100C5
:102CB00001902F49029880FB0110820042EA917036
:102CC00002902B49039880FB0110820042EA917028
:102CD00003900198000E8DF800000198000C8DF80B
:102CE00001000198000A8DF802000198C0B28DF829
:102CF00003006A4604214FF4747002F091F918B190
:102D00004FF0FF3004B010BD0298000E8DF80000A7
:102D10000298000C8DF801000298000A8DF802005C
:102D20000298C0B28DF803006A4604214FF4757012
:102D300002F076F910B14FF0FF30E3E70398000E90
:102D40008DF800000398000C8DF801000398000A2C
:102D50008DF802000398C0B28DF803006A46042182
:102D60004FF4767002F05CF9CCE70000E800002038
:102D700009E3CA0210B586B0044647A00068039074
:102D800046A00068029046A00068019045A0006837
:102D9000009004F0030003A9085C8DF8140003A858
:102DA000C4F3C101405C8DF8150003A8C4F3811180
:102DB000405C8DF8160004F0030002A9085C8DF851
:102DC000100002A8C4F3C101405C8DF8110002A8F4
:102DD000C4F38111405C8DF8120005AA032140F272
:102DE000264002F01DF918B14FF0FF3006B010BDBB
:102DF00004AA032140F22A4002F012F910B14FF068
:102E0000FF30F3E7019805900098049004F0040067
:102E100058B19DF8140040F001008DF814009DF8A1
:102E2000100040F001008DF8100004F0200058B1AF
:102E30009DF8150040F001008DF815009DF8110077
:102E400040F001008DF8110004F4807058B19DF835
:102E5000160040F001008DF816009DF8120040F0B9
:102E600001008DF8120005AA03214FF4886002F0DA
:102E7000D7F810B14FF0FF30B8E704AA032140F2B1
:102E8000314002F0CDF810B14FF0FF30AEE7064808
:102E900004810020AAE700004CCD6C000CC92C0076
:102EA0003656760026466600E8000020F8B505464E
:102EB0000E464FF47A7095FBF0F000FB06F4200EFE
:102EC0008DF80000200C8DF80100200A8DF802001A
:102ED000E0B28DF803006A4604214FF4AE7002F0B0
:102EE0009FF8F8BD38B50446052094FBF0F084B295
:102EF00020128DF80000E0B28DF801006A46022130
:102F00004FF4AD7002F08CF838BD38B5044605209A
:102F100094FBF0F084B220128DF80000E0B28DF83E
:102F200001006A4602214FF4AC7002F079F838BD16
:102F300038B504460020009004F0010020B19DF84F
:102F4000000040F03000009004F0020020B19DF835
:102F5000000040F00C00009004F0040020B19DF847
:102F6000000040F0030000906A4601214FF4A47075
:102F700002F056F838BD38B50446012C01DA0124B8
:102F800002E0042C00DD0424601EC0B200906A46FA
:102F9000012140F24F1002F043F838BD2DE9FC4703
:102FA00006460F4606F0070010B1B7F5C86F03DDFF
:102FB0004FF0FF30BDE8FC87384603F07DF98146CD
:102FC000594903F02FF88046684601F0D7F89DF87C
:102FD0000000022806D0042816D0082826D0102881
:102FE00048D135E04FF08D41404603F0ADF98146C0
:102FF00003F02AF984B24D49404603F0A5F9814611
:1030000003F022F985B238E04FF08C41404603F0DE
:103010009BF9814603F018F984B24549404603F014
:1030200093F9814603F010F985B226E04FF08B4109
:10303000404603F089F9814603F006F984B23D4920
:10304000404603F081F9814603F0FEF885B214E0B2
:103050004FF08A41404603F077F9814603F0F4F8D7
:1030600084B23549404603F06FF9814603F0ECF82D
:1030700085B202E04FF0FF309CE700BF20128DF8D0
:103080000400E0B28DF8050028128DF80600E8B2C1
:103090008DF8070006F00100A0B101AA02214FF44B
:1030A000EA7001F0BDFF10B14FF0FF3082E70DF183
:1030B000060202214FF4927001F0B2FF10B14FF0FE
:1030C000FF3077E706F00200A0B101AA02214FF419
:1030D000EC7001F0A5FF10B14FF0FF306AE70DF181
:1030E000060202214FF4947001F09AFF10B14FF0E4
:1030F000FF305FE706F00400A0B101AA02214FF4FF
:10310000EE7001F08DFF10B14FF0FF3052E70DF17E
:10311000060202214FF4967001F082FF10B14FF0C9
:10312000FF3047E7002045E70000484300004046E5
:103130000000C045000040450000C04438B50446CA
:10314000052094FBF0F085B228128DF80000E8B25B
:103150008DF801006A4602214FF4EF7001F060FF24
:1031600038BD38B50446052094FBF0F085B228122E
:103170008DF80000E8B28DF801006A4602214FF494
:10318000ED7001F04DFF38BD00BF054A128802F016
:103190004002002AF9D0C2B2014B1B1D1A807047B1
:1031A000003801407CB5054628494968087801ABDC
:1031B00004220D21FDF7A6FF08B107207CBD9DF874
:1031C0000700C0F301109DF8041001F0E00140EA8F
:1031D000E1008DF800009DF80700C0F381009DF824
:1031E000051001F0E00140EAE1008DF801009DF8D2
:1031F000070000F003009DF8061001F0E00140EA2E
:10320000E1008DF8020000241CE01DF8040018B94C
:10321000002045F8240013E00D4845F8240006E09E
:1032200055F824000B4903F08FF845F824001DF8E9
:103230000400401EC0B20DF804000028F0D100BF09
:10324000601CC4B2032CE0DB0020B7E718000020AC
:103250007B14AE3E1D5A843F014600200C2940D00D
:1032600008DC092961D2DFE801F060141A20266029
:103270002B313700182949D006DC0E2936D00F290A
:1032800039D0102951D13CE01C2944D01E294CD101
:1032900046E06FF0130001224C4B1A7093E06FF080
:1032A00009000222494B1A708DE06FF00E000322D4
:1032B000464B1A7087E000200422444B1A7082E0CB
:1032C0006FF004000622414B1A707CE06FF0090099
:1032D00007223E4B1A7076E00A2008223B4B1A70F8
:1032E00071E005200C22394B1A706CE000200E2290
:1032F000364B1A7067E06FF004000F22334B1A70E0
:1033000061E014201022314B1A705CE00F2018226B
:103310002E4B1A7057E00A201C222C4B1A7052E0D8
:1033200005201E22294B1A704DE0284A1278012AE6
:1033300002D16FF0130045E0244A1278022A03D02C
:10334000224A1278072A02D16FF009003AE01F4A98
:103350001278032A02D16FF00E0033E01B4A127874
:10336000042A03D0194A12780E2A01D1002029E03C
:10337000164A1278062A03D0144A12780F2A02D16C
:103380006FF004001EE0114A1278082A03D00F4A99
:1033900012781C2A01D10A2014E00C4A12780C2A57
:1033A00003D00A4A12781E2A01D105200AE0074AF2
:1033B0001278102A01D1142004E0044A1278182A45
:1033C00000D10F2000BF00BF70470000A800002000
:1033D00010B5054A0549064800F00EFE054A0649A3
:1033E0000648FDF7CDFC10BD580000205400002019
:1033F00050000020600000205E0000205C000020E3
:1034000010B5FFF7E5FF00F033F813490860FEF749
:10341000EDFD124908601048006801F0C7FF10492F
:1034200008600D480068FFF721F80E4908600B4856
:1034300000680B490968401A0A49096808440A49A2
:1034400008600648006806490968401A0549096885
:10345000401A0649086010BD640000206C0000207E
:103460007000002074000020780000207C00002004
:1034700070B5FEF751FA0446FEF75AFA05460020E9
:10348000FEF752FA0020FEF75DFA231E01DB184614
:1034900000E05842291E01DB0E4600E04E42821930
:1034A00002EBD270401070BD2DE9F04F87B0054699
:1034B0000C46914601208DF8100000208DF8110077
:1034C000FE4A1268917CFD4A5268107804AB0222D1
:1034D000FDF7BEFE20B14FF0FF3007B0BDE8F08F22
:1034E000C820FEF71BFF00208DF81000F34A126879
:1034F000D17BF24A5268107804AB0122FDF7A8FE96
:1035000010B14FF0FF30E8E7EC4A12685179EB4A0E
:103510005268107804AB0122FDF79AFE10B14FF00B
:10352000FF30DAE7E54A1268917CE44A5268107885
:1035300004AB0122FDF78CFE10B14FF0FF30CCE759
:10354000DE4A1268D17DDD4A5268107804AB012250
:10355000FDF77EFE10B14FF0FF30BEE7D74A12688C
:103560001179D64A5268107804AB0122FDF770FE3B
:1035700010B14FF0FF30B0E70C208DF81000CF4AAB
:1035800012681179CD4A5268107804AB0122FDF718
:103590005FFE10B14FF0FF309FE70F20FEF7BEFE39
:1035A000C648806A407A8DF81000C44A1268917843
:1035B000C24A5268107804AB0122FDF749FE10B1EF
:1035C0004FF0FF3089E7BD48806A007A8DF810001F
:1035D000BA4A12685178B94A5268107804AB01228D
:1035E000FDF736FE10B14FF0FF3076E7B9F1000F6E
:1035F00007D0B248806A807A40F0E0008DF8100071
:1036000004E0AE48806A807A8DF81000AB4A1268F8
:103610009179AA4A5268107804AB0122FDF718FE8E
:1036200010B14FF0FF3058E7B9F1000F07D0A348B1
:10363000806AC07A40F0E0008DF8100003E0A048F6
:10364000C07A8DF810009D4A1268D1799B4A526861
:10365000107804AB0122FDF7FBFD10B14FF0FF30F5
:103660003BE7B9F1000F02D0C820FEF757FE40201B
:103670008DF81000914A12681179904A52681078BA
:1036800004AB0122FDF7E4FD10B14FF0FF3024E759
:1036900078208DF81000894A12685179874A52685B
:1036A000107804AB0122FDF7D3FD10B14FF0FF30CD
:1036B00013E783498889FEF731FE00208DF810005A
:1036C0007E4A126851797D4A5268107804AB012213
:1036D000FDF7BEFD10B14FF0FF30FEE6774A1268ED
:1036E000917A764A5268107804AB0222FDF70AFDFF
:1036F00010B14FF0FF30F0E69DF811009DF810106A
:1037000040EA012B0C209BFBF0F0C6B20020A86021
:1037100068602860A06060602060824665E0674A5B
:103720001268D17A654A5268107804AB0C22FDF712
:10373000E9FC10B14FF0FF30CFE69DF811009DF885
:10374000101040EA012000B2ADF808009DF8130007
:103750009DF8121040EA012000B2ADF80A009DF871
:1037600015009DF8141040EA012000B2ADF80C00DD
:10377000BDF90810206808442060BDF90A1060688F
:1037800008446060BDF90C10A0680844A0609DF872
:1037900017009DF8161040EA012000B2ADF80000B5
:1037A0009DF819009DF8181040EA012000B2ADF80C
:1037B00002009DF81B009DF81A1040EA012000B29B
:1037C000ADF80400BDF90010286808442860BDF970
:1037D0000210686808446860BDF90410A8680844CD
:1037E000A8600AF1010000F0FF0AB24597DB3448F7
:1037F000D0F800C02868C117090441EA1041070445
:10380000624600233846FCF706FD32460023CDE928
:103810000201FCF700FD28602948D0F800C0686864
:10382000C117090441EA10410704624600233846E3
:10383000FCF7F1FC32460023CDE90201FCF7EBFC7A
:1038400068601F48D0F800C0A868C117090441EAA1
:1038500010410704624600233846FCF7DCFC324680
:103860000023CDE90201FCF7D6FCA8601448D0F88B
:1038700004C02168C817000440EA11480F046246DA
:10388000002338464146FCF7C6FC32460023CDE90A
:103890000201FCF7C0FC20600948D0F804C0606851
:1038A000C117090441EA1041070462460023384663
:1038B000FCF7B1FC3246002304E0000018000020B1
:1038C0005C670008CDE90201FCF7A5FC60601148C7
:1038D000D0F804C0A068C117090441EA10410704E8
:1038E000624600233846FCF796FC32460023CDE9B9
:1038F0000201FCF790FCA060A068002804DDA0682D
:10390000A0F58030A06003E0A06800F58030A060E2
:103910000020E2E55C6700082DE9FC5F06460F46E3
:1039200000253D494968087801AB03220D21FDF7C8
:10393000E9FB10B10720BDE8FC9F9DF8040000F0F2
:103940001F008DF804009DF8050000F01F008DF8A1
:1039500005009DF8060000F01F008DF80600002409
:1039600056E056F8240057F82410A0EB010BBBF1E9
:10397000000F01DB594601E0CBF10001084602F0DF
:1039800083FC4FF08F41009002F04CFB814601A870
:10399000005D68B32149086802F08EFC83465946F1
:1039A0001F4802F03FFB804604E01E49404602F0FB
:1039B000CBFC804601A8005D401EC0B201A908559D
:1039C0000028F2D14146484602F02CFB83464FF0D6
:1039D0007E5102F0C1FD82462AF0004B0F488169FA
:1039E000584602F07DFD12D20120A04005430EE0B2
:1039F0000A480169484602F073FC05D3074841694B
:103A0000484602F06DFD02D20120A0400543641C2F
:103A1000032CA6DB28468EE7180000205C67000810
:103A200000B04C4554E3853F10B50446204600F0F5
:103A30000FF80346E01C00F00BF843EAC00083B225
:103A4000A01D00F005F843EA801083B2184610BDAF
:103A5000014691F90020002A01DD00201EE091F9C5
:103A60000020002A01DA042018E091F90120002A40
:103A700001DD012012E091F90120002A01DA052080
:103A80000CE091F90220002A01DD022006E091F904
:103A90000220002A01DA062000E00720704700001B
:103AA00070B5002500246C48FDF761F8064606F461
:103AB000F045042D07D0102D34D0402D62D0B5F53F
:103AC000807F7DD190E04FF4D4616348FDF75CF8CE
:103AD00000241EE04FF48060A04081B25E48FDF7F4
:103AE00055F804215C48FDF746F880B14FF6FF70A9
:103AF000FCF75FFE04215848FDF73DF838B1574800
:103B0000005D5749087001205649087003E0601CA9
:103B1000C4B2042CDEDB00BF4FF4D4614E48FDF785
:103B200035F890E04FF4D4614B48FDF72DF80024B0
:103B30001FE04FF48060A04081B24748FDF726F8AF
:103B400010214548FDF717F888B14FF6FF70FCF7D4
:103B500030FE10214048FDF70EF840B13F48001DEF
:103B6000005D3F49087001203E49087003E0601C79
:103B7000C4B2042CDDDB00BF4FF4D4613648FDF73E
:103B800005F860E04FF4D4613348FCF7FDFF0024F2
:103B900021E04FF48060A04081B22F48FCF7F6FF8F
:103BA00040212D48FCF7E7FF98B14FF6FF70FCF776
:103BB00000FE40212848FCF7DEFF50B1274800E016
:103BC00040E00830005D2649087001202549087052
:103BD00003E0601CC4B2042CDBDB00BF4FF4D461F3
:103BE0001D48FCF7D3FF2EE04FF4D4611A48FCF7D0
:103BF000CBFF00241DE04FF48060A04081B2164846
:103C0000FCF7C4FF4FF480711348FCF7B4FF70B1A8
:103C10004FF480711048FCF7AEFF40B10F480C30F4
:103C2000005D0F49087001200E49087003E0601C18
:103C3000C4B2042CDFDB00BF4FF4D4610648FCF7AC
:103C4000A5FF00E000BF00BF4FF4AA710248FCF7D7
:103C50009BFF0348007870BD001C0140A9000020B4
:103C6000BA000020BB00002008B500244FF4A0607B
:103C7000FDF770FBFEF730FB00F01BF94FF4E1306D
:103C800001F0D2FAFDF76AF8FDF78EFB69A0FCF7A8
:103C9000E7FAFDF7E1F96AA0FCF7E2FA02E06BA0AF
:103CA000FCF7DEFA00F01AFA0028F8D1FCF7F2FD72
:103CB00041F61F413120FDF77BFEB9E0601CC4B224
:103CC0003C2094FBF0F100FB1140002872D100244D
:103CD0006248006802F09CFA05466148B0F900307D
:103CE0006048B0F9002029465FA0FCF7B9FA6248A5
:103CF0000078012804D0022815D0032839D125E006
:103D000010233C2202217820FDF700FC1023202202
:103D100004217820FDF7FAFB1023202206217820C9
:103D2000FDF7F4FB26E01023202202217820FDF786
:103D3000EDFB10233C2204217820FDF7E7FB102344
:103D4000202206217820FDF7E1FB13E0102320223A
:103D500002217820FDF7DAFB1023202204217820AD
:103D6000FDF7D4FB10233C2206217820FDF7CEFB83
:103D700000E000BF00BF4148007810B1012852D1D7
:103D800019E010233EA200210846FDF755FC102340
:103D90003CA202210020FDF74FFC10233BA204218E
:103DA0000020FDF749FC102339A206210020FDF771
:103DB00043FC39E039E0102337A200210846FDF723
:103DC0003BFC102336A202210020FDF735FC102316
:103DD00034A204210020FDF72FFC102332A206217B
:103DE0000020FDF729FC102000903048B0F9002099
:103DF000022319464420FDF7DBFB1020022300229A
:103E0000042100904420FDF7D3FB2849886802F084
:103E10001BFA0546102002232A4606210090442062
:103E2000FDF7C6FB00E000BF00BF0520FEF776FAF5
:103E300044E700004D5055496E69740A00000000C7
:103E40004D5055737563636565640A00444D507544
:103E50006E737563636565640A000000500000209E
:103E6000600000205E00002025642C202025642CAA
:103E7000202025640A000000150000201400002006
:103E80004355470057796D616E00000053756E0011
:103E90004368656E00000000646972504944000088
:103EA000500000004900000044000000F80000201D
:103EB000704700B5FDF7FEF900BD000070B504467F
:103EC0000D4641F67860844201DD044603E029484E
:103ED000844200DA044641F67860854201DD0546F9
:103EE00003E02448854200DA0546002C0EDB402121
:103EF0002148FCF749FE80211F48FCF747FE1F4878
:103F0000008881B21E48FDF7ADFD0EE080211A4801
:103F1000FCF73AFE40211848FCF738FE17480088A5
:103F2000404281B21648FDF79DFD002D10DB4FF495
:103F300080711148FCF728FE4FF400710E48FCF721
:103F400025FE1048008881B20D48FDF78DFD10E078
:103F50004FF400710848FCF717FE4FF480710648D3
:103F6000FCF714FE07480088404281B20448FDF780
:103F70007BFD70BD88E1FFFF00100140780000204C
:103F8000000400407C00002070B50446002624F0A8
:103F90000104184890F8240008B1002070BD1548AD
:103FA000807A10B94FF0FF30F8E71248057C807A2C
:103FB0002040104908740846007CA04202D04FF00F
:103FC000FF3600E0002614B90A48007D18B1012030
:103FD00001F0BCF802E0002001F0B8F83CB100F0BC
:103FE0000BFC20B1034805744FF0FF30D6E7304694
:103FF000D4E70000180000202DE9F04F93B082466E
:104000004FF07E5B002012901190109009A80AA931
:104010000FAB05AACDE900100BA90DA8FEF75CFCBB
:1040200018B1012013B0BDE8F08FBDF8280000F4EE
:10403000807000284CD0059802F026F904464FF015
:104040009D4101F0EFFF8346069802F01DF90446FA
:104050004FF09D4101F0E6FF1290079802F014F92D
:1040600004464FF09D4101F0DDFF1190089802F0E9
:104070000BF904464FF09D4101F0D4FF10905946D2
:104080004FF0804002F060F90190119902F05CF964
:1040900003904FF04040129902F056F901901099A8
:1040A00002F052F90290039901F04EFF049001F0E2
:1040B0001FFF0646FDF7A6FF80464FF06632064B0F
:1040C00001F03CFC044601F0B9F9CAF8000001E037
:1040D0000220A7E70020A5E766A64C4070B50024A3
:1040E000FCF79AFE00F024F9002840D1782000F077
:1040F0002FFFC4B20CB1012070BD7820FFF744FF40
:10410000C4B20CB10220F7E7642000F0D3FEC4B2C1
:104110000CB10320F0E7FEF7D3FBC4B20CB10420CE
:10412000EAE71548FFF780FC0546FEF723FEC4B218
:104130000CB10520E0E740F27310FEF769FAC4B253
:104140000CB10620D8E76420FEF744FDC4B20CB1E0
:104150000720D1E700F0AFFF04460CB10820CBE701
:10416000012000F0A3FDC4B21CB10920C4E70A205D
:10417000C2E70020C0E700004400002001461148CB
:10418000407A30B1012807D0022808D003280CD18A
:1041900008E0022008700BE00420087008E0082006
:1041A000087005E01020087002E04FF0FF30704703
:1041B00000BF0448C07C18B108784006000E0870A3
:1041C0000020F4E71800002001461348407A30B17F
:1041D000012808D002280AD0032810D10BE04FF4A0
:1041E000804008800EE041F69C7008800AE04FF4A1
:1041F0008050088006E04FF40060088002E04FF035
:10420000FF30704700BF0448C07C10B108884010E0
:1042100008800020F5E70000180000200146024851
:10422000007C0870002070471800002001460F48ED
:10423000007A30B1012807D0022809D003280FD115
:104240000AE0FA2008800EE04FF4FA7008800AE0D5
:104250004FF47A70088006E04FF4FA60088002E0BC
:104260000020088000BF00BF002070471800002019
:1042700001460E48007A30B1012807D0022808D044
:1042800003280CD108E00A4808600BE009480860E0
:1042900008E00948086005E00848086002E04FF0BF
:1042A000FF30704700BF0020FBE70000180000202F
:1042B000000003430000834233330342333383411E
:1042C00001461248C07A082817D2DFE800F0170428
:1042D000070A0D101318BC20088013E06220088024
:1042E00010E02A2008800DE0142008800AE00A204F
:1042F000088007E00520088004E000BF00BF002020
:10430000088000BF00BF0020704700001800002098
:104310000146064890F8240010B14FF0FF30704776
:104320000248C08908800020F9E70000180000203A
:104330001CB580208DF80000654A1268917C644AA3
:10434000526810786B460122FCF782FF10B14FF0E3
:10435000FF301CBD6420FDF7E1FF00208DF8000058
:104360005B4A1268917C5A4A526810786B46012267
:10437000FCF76EFF10B14FF0FF30EAE7544A1268C5
:10438000917D534A526810786B460622FCF7BAFEBC
:1043900010B14FF0FF30DCE79DF80500C007400F7B
:1043A0009DF8031001F0010140EA41009DF8011061
:1043B00001F0010140EA010494B1012C03D1012173
:1043C0004348C17431E0022C03D100214048C1743C
:1043D0002BE021463FA0FBF743FF4FF0FF30B8E74B
:1043E0003B4A1268D1783A4A526810786B460122EB
:1043F000FCF788FE10B14FF0FF30AAE79DF80000EF
:1044000000F00F042CB93D48FBF72AFF4FF0FF30B6
:104410009FE7042C06D13AA0FBF722FF01212C488C
:10442000C17402E000212A48C174FF21284881722A
:10443000FF2027490872FF2125484172C1724FF6BB
:10444000FF71C181FF21017481740121017380F822
:104450002210002180F8231041750175163001608B
:1044600041608160163880F8241080F82510C184DE
:104470004FF4FA6000F062FC10B14FF0FF3068E7D3
:10448000022000F02BFB10B14FF0FF3061E72A2033
:1044900000F0CEFC10B14FF0FF305AE7322000F0B0
:1044A00009FD10B14FF0FF3053E70020FFF76CFD1E
:1044B00010B14FF0FF304CE7002000F051FB10B17D
:1044C0004FF0FF3045E7002000F042FD002040E7BC
:1044D00018000020556E737570706F7274656420DB
:1044E000736F6674776172652070726F6475637440
:1044F000207265762025642E0A000000F87B0008F3
:1045000048616C662073656E736974697669747945
:10451000207061727420666F756E642E0A00000050
:104520002DE9F04385B005460E4690469946294848
:1045300090F8250020B14FF0FF3005B0BDE8F083C2
:1045400016B94FF0FF30F8E7002423E0281B1028AD
:1045500001DD102000E0281B87B2321939462046C1
:1045600000F05EFD10B14FF0FF30E6E701AA3946DA
:10457000204600F001F910B14FF0FF30DDE73019AF
:104580003A4601A9FBF750FF10B16FF00100D4E7E4
:10459000E01984B2AC42D9DB4FEA28208DF8000044
:1045A00008F0FF008DF801000A4A1268917E094A5E
:1045B000526810786B460222FCF74AFE10B14FF0A9
:1045C000FF30BAE70121034880F82510A0F82690B3
:1045D0000020B2E71800002038B50446282C02DD80
:1045E0004FF0FF3038BDDCB9002000F0EBFB0020BD
:1045F0008DF8000007208DF801002E4A1268917C8A
:104600002C4A526810786B460222FCF721FE10B14A
:104610004FF0FF30E6E70021264801750020E1E772
:10462000012000F0CFFB20208DF80000012C06D1E6
:1046300000208DF80100052000F0FAFB17E0052CA2
:1046400006DC01208DF80100052000F0F1FB0EE0F2
:10465000142C06DC02208DF801000A2000F0E8FB93
:1046600005E003208DF80100142000F0E1FB9DF827
:104670000100072101EB8010C0B28DF801000D4A46
:104680001268917C0B4A526810786B460222FCF744
:10469000DFFD10B14FF0FF30A4E70821054881721B
:1046A00000210173012101750020FFF76DFC00203E
:1046B00098E7000018000020F8B504460F4616469B
:1046C0002C4890F8240010B94FF0FF30F8BD29486D
:1046D000807A10B94FF0FF30F8E7264A1268917AD5
:1046E000244A526810786B460222FCF70BFD10B189
:1046F0004FF0FF30EAE79DF801009DF8001040EA16
:104700000125A54203DA00203070401EDEE719487B
:1047100040684088B5EB600F17DD164A1268517C7F
:10472000144A526810786B460122FCF7EBFC10B17A
:104730004FF0FF30CAE79DF8000000F0100020B1F4
:1047400000F05AF86FF00100C0E7E2B2094B1B68B5
:10475000D97A084B5B6818783B46FCF7D3FC10B15C
:104760004FF0FF30B2E795FBF4F0401E30700020B0
:10477000ACE7000018000020F8B504460D461646C8
:1047800016B94FF0FF30F8BD1A48807A10B94FF0D3
:10479000FF30F8E720128DF80000E0B28DF801003C
:1047A0009DF801002844134949684989884202DD7F
:1047B0004FF0FF30E7E70F4A1268117E0D4A52684A
:1047C00010786B460222FCF743FD10B14FF0FF302A
:1047D000D9E7EAB2074B1B68597D064B5B6818782E
:1047E0003346FCF78FFC10B14FF0FF30CBE70020D1
:1047F000C9E700001800002008B57048807A10B999
:104800004FF0FF3008BD002000906C4A1268D17B49
:104810006A4A526810786B460122FCF719FD10B104
:104820004FF0FF30EEE7654A12685179634A5268EB
:1048300010786B460122FCF70BFD10B14FF0FF30F2
:10484000E0E75E4A126811795C4A526810786B465C
:104850000122FCF7FDFC10B14FF0FF30D2E75748C2
:1048600090F82400002853D00C200090534A12687E
:104870001179524A526810786B460122FCF7E8FC25
:1048800010B14FF0FF30BDE73220FDF747FDC020EB
:1048900000904A48807A00F0010020B19DF80000A5
:1048A00040F020000090454A12681179434A52684E
:1048B00010786B460122FCF7CBFC10B14FF0FF30B3
:1048C000A0E73E48407C10B10220009001E00020AB
:1048D00000903A4A1268D17B384A526810786B4689
:1048E0000122FCF7B5FC10B14FF0FF308AE7002041
:1048F0000090324A12685179304A526810786B46FB
:104900000122FCF7A5FC002855D04FF0FF3079E7D5
:1049100004200090294A12681179284A52681078B8
:104920006B460122FCF794FC10B14FF0FF3069E7B1
:104930002248807C20B92148807A00F0010010B91B
:104940004020009001E0602000901C4A126811791C
:104950001A4A526810786B460122FCF779FC10B1B4
:104960004FF0FF304EE73220FDF7D8FC1348407C73
:1049700010B10120009001E0002000900F4A126861
:10498000D17B0E4A526810786B460122FCF760FC1E
:1049900010B14FF0FF3035E7084A12685179074AE5
:1049A00052681078054B10330122FCF751FC10B10E
:1049B0004FF0FF3026E7002024E700001800002019
:1049C0002DE9F04F8DB083460F4602200C904248EF
:1049D00090F8240020B1002000F068F9012600E0E2
:1049E000002603A8FFF722FC05A8FFF7C7FB01A8D4
:1049F000FFF766FC02A8FFF78BFC374890F80AA087
:104A000004A8FFF70BFC002407E0002239465846B3
:104A1000FEF74AFD00B902E0641C022CF5DB00BF82
:104A2000022C01D1002528E0002407E0012206A97C
:104A300009A8FEF739FD00B902E0641C022CF5DB81
:104A400000BF022C01D1002517E006A93846FDF76A
:104A500053FA00F0FF0809A95846FEF75DFF00F081
:104A6000FF090025B9F1000F01D145F00105B8F1AA
:104A7000000F01D145F0020500BFFF201649087262
:104A8000FF2115484172C1724FF6FF71C181FF21AC
:104A90008172017401210173BDF80C0000F04EF920
:104AA0009DF8140000F01AF8BDF8040000F0C0F9F9
:104AB000BDF8080000F0FEF9504600F049FA9DF8F4
:104AC0001000FFF761FA16B1012000F0EFF8284658
:104AD0000DB0BDE8F08F00001800002038B5044686
:104AE0001E48807A10B94FF0FF3038BD022C06D036
:104AF000042C07D0082C08D0102C0CD108E0002082
:104B000000900BE00820009008E01020009005E0E5
:104B10001820009002E04FF0FF30E6E700BF0F489A
:104B2000407A9DF80010B0EBE10F01D10020DCE7E6
:104B30000A4A1268D179094A526810786B460122F4
:104B4000FCF786FB10B14FF0FF30CEE79DF8000078
:104B5000C110024841720020C7E700001800002081
:104B600038B504465048807CA04201D1002038BDB1
:104B7000002C46D04C4A126811794B4A5268107882
:104B80006B460122FCF7BEFA10B14FF0FF30EEE7A2
:104B90009DF8000020F020000090434A126811792F
:104BA000414A526810786B460122FCF751FB10B164
:104BB0004FF0FF30DBE70320FDF7B0FB0220009051
:104BC000394890F8220020B19DF8000040F08000A4
:104BD0000090354890F8230020B19DF8000040F087
:104BE00030000090304A1268117D2F4A52681078C8
:104BF0006B460122FCF72CFB002851D04FF0FF3010
:104C0000B5E7294A12681179274A526810786B462D
:104C10000122FCF777FA10B14FF0FF30A7E72248E6
:104C2000807A00F0010028B19DF8000040F02000DB
:104C3000009004E09DF8000020F0200000901A4A47
:104C400012681179184A526810786B460122FCF7F5
:104C5000FFFA10B14FF0FF3089E70320FDF75EFB4C
:104C6000114890F8220010B18020009001E000204F
:104C700000900D4890F8230020B19DF8000040F00E
:104C800030000090084A1268117D074A5268107877
:104C90006B460122FCF7DCFA10B14FF0FF3066E7FB
:104CA00001488474002062E71800002038B50446EB
:104CB000214890F82400A04201D1002038BD24B33F
:104CC0001D4890F8250010B94FF0FF30F6E700209E
:104CD00000F03CFA0020FFF743FF1749C88C00F0B2
:104CE000E9F8002000901449496808786B460122D1
:104CF0002321FCF7ADFA01210F4880F82410012090
:104D000000F024FAFFF778FD13E0002000F01EFA0F
:104D10000948007C00900849496808786B460122E0
:104D20002321FCF795FA0021034880F82410FFF7AF
:104D300063FD0020C2E700001800002038B50446DB
:104D40001F48807A10B94FF0FF3038BDFA2C09D0D7
:104D5000B4F5FA7F09D0B4F57A7F09D0B4F5FA6FCB
:104D60000CD108E0002000900BE00820009008E043
:104D70001020009005E01820009002E04FF0FF3076
:104D8000E3E700BF0E48007A9DF80010B0EBE10F9A
:104D900001D10020D9E70A4A12689179084A52687D
:104DA00010786B460122FCF753FA10B14FF0FF3038
:104DB000CBE79DF80000C010014908720020C4E74D
:104DC0001800002038B50446184890F82300A04287
:104DD00001D1002038BD14B13020009001E0002046
:104DE00000901248807C20B19DF8000040F0020045
:104DF00000900E4890F8220020B19DF8000040F08D
:104E000080000090094A1268117D084A52681078A3
:104E10006B460122FCF71CFA10B14FF0FF30D9E7C6
:104E2000024880F823400020D4E70000180000204A
:104E300038B504461E48807A10B94FF0FF3038BDAF
:104E4000BC2C02DB0120009015E0622C02DB02206A
:104E5000009010E02A2C02DB032000900BE0142CC1
:104E600002DB0420009006E00A2C02DB0520009003
:104E700001E0062000900E48C07A9DF8001088429C
:104E800001D10020DBE70A4A12689178084A52688B
:104E900010786B460122FCF7DBF910B14FF0FF30C0
:104EA000CDE79DF800100248C1720020C7E700005E
:104EB0001800002038B504462448807A10B94FF015
:104EC000FF3038BD214890F8240010B14FF0FF307A
:104ED000F7E71E48007D50B134B1282C04DCE0B265
:104EE000FFF77AFB0020ECE70020FFF775FB042CAE
:104EF00001DA042404E0B4F57A7F01DD4FF47A741A
:104F00004FF47A7090FBF4F0401EC0B200900F4A4C
:104F1000126851780D4A526810786B460122FCF7EE
:104F200097F910B14FF0FF30CBE79DF80000401C1F
:104F30004FF47A7191FBF0F081B20448C1810146CF
:104F4000C9894810FFF774FF0020BAE71800002055
:104F500038B5044604F0700010B10120009005E05F
:104F600014B10020009001E0402000902B4A12680C
:104F7000917C2A4A526810786B460122FCF768F946
:104F800020B1002125488172481E38BD9DF80000DF
:104F900020F04001214801730020009004F04000FF
:104FA00020B99DF8000040F00400009004F02000BB
:104FB00020B99DF8000040F00200009004F01000BD
:104FC00020B99DF8000040F00100009004F00800B6
:104FD00020B99DF8000040F0380000900F4A126898
:104FE000D17C0E4A526810786B460122FCF730F9EA
:104FF00020B1002109488172481EC6E724B1082C5F
:1050000002D00020FFF7DEFE044884720021017503
:105010003220FDF783F90020B7E7000018000020D8
:10502000F8B504460D46164616B94FF0FF30F8BDE8
:105030001A48807A10B94FF0FF30F8E720128DF847
:105040000000E0B28DF801009DF8010028441349EA
:1050500049684989884202DD4FF0FF30E7E70F4A8F
:105060001268117E0D4A526810786B460222FCF7D6
:10507000EFF810B14FF0FF30D9E7EAB2074B1B68E9
:10508000597D064B5B6818783346FCF7E1F810B1A0
:105090004FF0FF30CBE70020C9E7000018000020E8
:1050A00010B50246012000E050430B1EA1F101049F
:1050B000E1B2F9D110BD70B588B002A905A8FFF71B
:1050C0007FFC0446032C3ED101A8FFF7D1F80598D8
:1050D00001F0DAF80646019901F036F9054601F0CB
:1050E00097F80590069801F0CFF80646019901F06F
:1050F0002BF9054601F08CF80690079801F0C4F8EA
:105100000646019901F020F9054601F081F8079063
:1051100005A8FDF797FD6846FFF756F8BDF80010A3
:10512000029848430290BDF800100398484303904A
:10513000BDF8001004984843049002A8FDF7B2FCA3
:10514000002008B070BD0120FBE7000038B5044620
:10515000214890F82400C0B114B10220009001E071
:10516000002000901C4A1268D17B1B4A52681078BC
:105170006B460122FCF76CF810B14FF0FF3038BDE0
:105180009DF800101448417423E01348807A10B948
:105190004FF0FF30F3E724B10F48407C08B1002006
:1051A000EDE714B10120009001E0002000900A4AD0
:1051B0001268D17B084A526810786B460122FCF7CE
:1051C00047F810B14FF0FF30D9E79DF800100248C2
:1051D00041740020D3E70000180000202DE9F041C1
:1051E00006460F4600F0B4FC041E0D4618BF012011
:1051F000284320F00040C0F17F6000F1E040C00F84
:105200000ED0301C18BF0120384320F00040C0F100
:105210007F6000F1E040C00F04BF0120FBF7B8F948
:1052200020462946BDE8F08110B586B0044601212C
:1052300044F20400FCF73AFA4FF40070ADF81400A1
:1052400003208DF8160018208DF8170005A91C48BA
:10525000FBF702FC4FF48060ADF8140004208DF8D9
:10526000170005A91648FBF7F7FB25208DF800006D
:1052700000208DF8010001208DF802008DF8030058
:105280006846FCF72FF801940020ADF80800ADF84F
:105290000A00ADF80C00ADF810000C20ADF80E00BF
:1052A00001A90848FCF7D4FC012240F22551054829
:1052B000FCF7A8FC01210348FCF76EFC06B010BD0A
:1052C00000080140003801402DE9FC5F81468A4614
:1052D000A9EB0A0000F0D8FF04462C4801682046DC
:1052E00001F03AF905462A4901F02EF801902046CE
:1052F00000F0FEFD0746274A274B00F01FFB05463E
:1053000000F09CF88346214801684FF0804001F08E
:105310001BF80746214601F014F906461F480168AC
:10532000304600F011FE05461D4901F00DF80090D1
:105330001B49584601F0D4F801D24FF0000B19492F
:10534000584600F0CDFF01D24FF0000B0F48006827
:10535000124908600D4804605946019800F0F4FDB8
:105360008046009900F0F0FD05460F48006800F007
:105370008BFF0746294600F0E7FD064600F048FF90
:105380000949086008460068BDE8FC9F84000020C9
:10539000000034429A9999999999C93F8800002050
:1053A00000002041000020C18C00002070B50446A0
:1053B0001D480078042820DB00201B4908701B488A
:1053C00000681B4908601B49B1F90E002146FFF730
:1053D0007BFF164908600846006842F6E061884293
:1053E00003DD08461149086007E0104800681249CB
:1053F000884202DA08460D4908600B480078401CD4
:105400000949087009490968094A1268891A064A4F
:10541000127801FB02F0C11700EB9171044A126887
:1054200002EBA105284670BD9000002098000020E6
:1054300094000020F800002020D1FFFF21F000425E
:10544000A2F16052B2F5801F01F0004328BFD2F1F3
:105450007F6C0BD95FEA001C43EAC20242EB50703A
:1054600018BF704728BF20F001007047B2F5801FB9
:10547000BCBF184670474FEA410C1CF5001F02D212
:10548000084601F028B870B500F002FB0000008962
:10549000FFF7F6BF4FF00040A0F580007047000016
:1054A00010B591EA030F48BF83F0004300F13E843A
:1054B000841A71EB030C05D2121943EB0C03001B89
:1054C00061EB0C01DFF824E14FEA1154A4EB135C0B
:1054D0001EEA430F18BF9EEA445F73D023EA0E030F
:1054E000DCF1200E21EA045143F4801332D322FA76
:1054F0000CFE10EB0E0023FA0CFE41EB0E01CCF17A
:10550000200E03FA0EFE10EB0E0051F10001B1F572
:10551000801FCCF1200E32D201EB045112FA0EF2B0
:10552000BDE8104058BF7047401C38BF5FEA4202D8
:1055300018BF7047002814BF20F0010041F100019E
:105540004FEA410313F5001F38BF7047A1F1C04176
:1055500000F0ECBA012A43EB0302ACF1200CDCF1C1
:105560001F0E32BF4FF0000E23FA0CF310EB0300B6
:1055700041EB0451B4EB115FD0D0A1EB045101F524
:10558000801149085FEA300001EB04510ED350F15D
:10559000000038BF12FA0EFE08D1BDE81040C9E77E
:1055A000401C38BF5FEA4202CAD1C3E7BDE81040E1
:1055B0004FEA410313F5001F38BF7047A1F1C04106
:1055C00000F0B4BA9EEA445F08D011EA5E0FBDE86D
:1055D000104004BF01F0004100207047BDE81040BA
:1055E00070B500F055FA00BF64FBBE3E0000E0FF5E
:1055F00002494FF0000001F024B800BF0000F87F1E
:105600002DE9C04130B4DFF8A0C23CEA111418BF44
:105610003CEA131400F0EC8081EA03051CEA111443
:1056200044EAD57418BF1CEA131500F0C780A4EB38
:1056300005044FF0004545EAC12145EAC32341EA8C
:10564000505143EA525304F17F74994204F50034F7
:105650004FEAC0204FEAC22208BF904200F09C806F
:105660004FEA13650FF24016765D4FEA134506FBCD
:1056700005F7C7F1807706FB07F74FEAD737A7FB97
:1056800003687642C8F58038A7FB06CE38BFA8F17C
:10569000010807FB08E64FF0000EA6FB028CE6FBB4
:1056A00003CEDCF1000CCEF1004E38BFAEF1010E9E
:1056B000A6FB0C584FF000074FF00005E6FB0E87E5
:1056C000A1FB08C6A0FB07CE16EB0E0645F10005B0
:1056D000E1FB076515F1E04E7EBFA4F580345FEA7B
:1056E00046066D4116F1800745F100054FEA172780
:1056F0004FEA066647EA0567A6F1DE46B6F1805F27
:105700004FEA15251FD9384624F0010C05EBC4716A
:10571000BCF1FE6F01EB0C1102D8F0BCBDE80081BA
:1057200024425CBF01F5801E9EEAC47F02D4F0BC17
:10573000BDE80081244238D4F0BCA1F1C041BDE8ED
:10574000004100F0F3B94FEAD22242EA43524FEA55
:10575000D323A7FB02864FEAD02040EA415007FB43
:1057600003661EEA0E0F4FEAD12105FB026658BF01
:10577000A6EB0056B6EB00564FEA520E4EEAC37E39
:1057800018EB0E0E56EB530EBDD518EB02085E411A
:105790007F1C55F10005B6E74FF480154FF0000768
:1057A0004FF000064FF00008ADE7F0BC4FF00000EE
:1057B00001F1C04101F00041BDE8008111EA0C1F78
:1057C0000CEA131500D00CE013EA0C1F00F0258042
:1057D0004FF00000F0BC81EA030101F00041BDE898
:1057E0000081F0BCBDE8004181EA030100F09EB9F0
:1057F000F0BCBDE8004170B500F04AF9097EFC3EFE
:1058000000F007B881EA03014FF0000001F0004109
:10581000704781EA030100F089B9F0BCBDE800419E
:105820004FF0000021497047FFFDFBF9F7F5F4F256
:10583000F0EEEDEBE9E8E6E4E3E1E0DEDDDBDAD82B
:10584000D7D5D4D3D1D0CFCDCCCBCAC8C7C6C5C489
:10585000C2C1C0BFBEBDBCBBBAB9B8B7B6B5B4B3A0
:10586000B2B1B0AFAEADACABAAA9A8A8A7A6A5A48B
:10587000A3A3A2A1A09F9F9E9D9C9C9B9A9999984F
:105880009797969595949393929191908F8F8E8EF2
:105890008D8C8C8B8B8A898988888787868585847F
:1058A00084838382828181800000FF070000F87F6B
:1058B0004FEA41034FEA5353A3F58063D3F11E032C
:1058C000C8BFD3F1210C0CDD4FF0004242EAC122E7
:1058D00042EA505232FA03FC8CEAE17CACEBE17014
:1058E0007047102BC4BF0020704703F5787CBCF1D3
:1058F000FF3F04D06FF0004282EA2100704770B58C
:1059000000F0C6F84992248000207047F2E710F0BA
:10591000004248BF4042B0FA80F310FA03F10AD0C7
:10592000C3F11D0303F580634FEA415002EB0352BC
:1059300002EBD12170474FF000007047DFF848C1FB
:1059400070B51CEA111E1EBF1CEA13159EEA0C0F4F
:1059500095EA0C0F00F06F8081EA030423EA4C13F0
:105960004EEAD47E21EA4C1141F4801143F48013B5
:10597000AE44A1FB024CA0FB0365AEF17F7E36195D
:1059800055EB0C05A1FB034C4CF10003A0FB021CE2
:1059900016EB0C06654153F10003094218BF46F0AF
:1059A000010613F4007F0BD14FEA03314FEA0530B3
:1059B000340341EA155140EA16506FF003020AE041
:1059C0004FEAC3214FEAC520F40241EA555140EAAB
:1059D00056506FF0020202EB2E4201EB025585EAAF
:1059E000CE710AD05FEA440C18BF24F0004450F195
:1059F000000041F1000120EAD47040F2FE7C6245D3
:105A000000D270BDA84214BF4FF080444FF0404414
:105A1000002E08BF0024BEF1806FA8BFA1F1C041D5
:105A2000BDE8704080F282804FF0000001F1C0417B
:105A300001F0004170479EEA0C0F0CEA131518BFE5
:105A400095EA0C0F06D04FF0000081EA030E0EF02D
:105A5000004170BD00F01CF88900013E00F007B85D
:105A600000F009B84FEA430C5FEA5C5C08D081EAB9
:105A7000030100F05BB84FEA410C5FEA5C5CF6D1D1
:105A80004FF00000014970470000FF070000F87F59
:105A90000EF1020E2EF0030E5EF8046B364205D4B2
:105AA000012A43EB030515F5001F12D8012841EB2D
:105AB000010C1CF5001F0CD80ED14FEAD17C15F556
:105AC000001F0CEB4C0C0CF1020C08BF4CEBD37C10
:105AD00004E04FF0080C01E04FEAD37C0CEB4C05DE
