:020000040800F2
:1000000090250020D10100083D0800086506000881
:100010000D0800082D0400089F10000800000000D3
:10002000000000000000000000000000710B00084C
:100030003104000800000000590A0008850C00087F
:10004000EB010008EB010008EB010008EB010008E0
:10005000EB010008EB010008EB010008EB010008D0
:10006000EB010008EB0100087D040008EB0100082B
:10007000EB010008EB010008EB010008EB010008B0
:10008000EB010008EB010008EB010008EB010008A0
:10009000EB010008EB010008EB010008F90400087F
:1000A000EB010008EB010008EB010008EB01000880
:1000B000EB010008EB010008EB010008EB01000870
:1000C000EB010008EB010008EB010008EB01000860
:1000D000EB010008810E0008EB010008EB010008AD
:1000E00045040008EB010008EB010008EB010008E3
:1000F000EB010008EB010008EB010008EB01000830
:10010000EB010008EB010008E90C0008EB01000816
:10011000EB010008EB010008EB010008EB0100080F
:10012000EB010008EB010008EB010008EB010008FF
:1001300000F002F800F03CF80AA090E8000C8244BD
:100140008344AAF10107DA4501D100F031F8AFF29A
:10015000090EBAE80F0013F0010F18BFFB1A43F0A5
:10016000010318471C1600003C160000103A24BF7B
:1001700078C878C1FAD8520724BF30C830C144BF0C
:1001800004680C607047000000230024002500264E
:10019000103A28BF78C1FBD8520728BF30C148BFEA
:1001A0000B607047002070471FB51FBD10B510BD14
:1001B00000F00EF91146FFF7F7FF01F013F900F018
:1001C0002CF903B4FFF7F2FF03BC00F0CEFF0000F0
:1001D0000948804709480047FEE7FEE7FEE7FEE7DB
:1001E000FEE7FEE7FEE7FEE7FEE7FEE70448054917
:1001F000054A064B70470000890C000831010008D1
:10020000901F0020902500209021002090210020A8
:10021000704700000FB4044910B503AA029800F01B
:10022000A5F810BC5DF814FB380000202DE9F05F44
:10023000894604464FF0000ADFF824B1FB44C0F8B9
:1002400020A02046E168884700287DD0252806D0D8
:10025000D4E901219047206A401C2062F1E7002583
:100260005F462046E16888472028064607DB312E96
:1002700005D2B81910F8200C08B10543F1E7A8071A
:1002800001D525F00405C4F81CA00027C4F818A067
:100290002A2E09D0304600F061FF38B304EB8708FE
:1002A000303EC8F8186019E059F8041B204604EBEA
:1002B00087029161E1688847012F064618D1E069FD
:1002C000002820DA25F020051DE0D8F8180000EB02
:1002D000800006EB40003038C8F818002046E1687E
:1002E0008847064600F03AFF0028EED1012F0AD0D9
:1002F0002E2E08D12046E16888477F1C0646022F33
:1003000045F02005C4DBA069002803DA404245F02F
:100310000105A061E80701D025F01005A6B1A6F1FE
:100320004100192802D8203645F400654A46314676
:10033000204625604D46FFF735FF60B1012807D004
:10034000ED1D25F0070000E007E000F1080978E75F
:1003500005F1040975E730467AE7206ABDE8F09FA9
:100360002E1500007047704770477047074B70B5F7
:100370000D467B4400F011F80446284600F020F8B2
:1003800010B14FF0FF3070BD204670BD8B0E0000E5
:1003900001694A1C02610878704700B58FB0CDE949
:1003A00001310021059105497944CDE90310114639
:1003B0006846FFF73BFF0FB000BD0000E5FFFFFF01
:1003C000007B00F080007047004870472C1F002021
:1003D0007546FFF7F9FFAE4605006946534620F023
:1003E0000700854618B020B5FFF700FFBDE82040A4
:1003F0004FF000064FF000074FF000084FF0000BE1
:1004000021F00701AC46ACE8C009ACE8C009ACE893
:10041000C009ACE8C0098D46704710B50446AFF37B
:1004200000802046BDE81040FFF7CBBE00BFFEE7CE
:10043000704701B502E00098401E00900098002827
:10044000F9D108BD10B501200649087006A0FFF7D4
:10045000E1FE00F0E3FE084908704FF4AA7000F0D6
:1004600059F810BD2A000020696E20696E7465720B
:10047000727570740A0000002700002010B51A4839
:100480000068132826DD19480068462822DA164835
:100490000068032190FBF1F201FB1200D0B90024A7
:1004A00000E0641C5F2CFCDD63240CE01048006855
:1004B0000E49096801EBC10202EB01110D4A02EB82
:1004C00081010855641E002CF0DA08480068401CC1
:1004D0000649086004480068401C03490860102071
:1004E00000F01EF810BD00002C000020300000209D
:1004F000148122428C00002010B5002003490860BE
:1005000003490860402000F00BF810BD30000020C7
:100510002C000020014908607047000014040140CD
:100520000149086070470000140401402DE9F041C2
:10053000024600250026002000230024002791F811
:1005400003C00CF00F0591F803C00CF0100CBCF1C7
:10055000000F03D091F802C04CEA050591F800C0E5
:10056000BCF1000F31D0146800202BE04FF0010CDB
:100570000CFA00F3B1F800C00CEA03069E4220D149
:1005800083004FF00F0C0CFA03F7BC4305FA03FC91
:100590004CEA040491F803C0BCF1280F06D14FF0D7
:1005A000010C0CFA00FCC2F814C00AE091F803C078
:1005B000BCF1480F05D14FF0010C0CFA00FCC2F859
:1005C00010C0401C0828D1D31460B1F800C0BCF1A1
:1005D000FF0F34DD546800202EE000F1080C4FF0CE
:1005E000010808FA0CF3B1F800C00CEA03069E42B9
:1005F00021D183004FF00F0C0CFA03F7BC4305FA2E
:1006000003FC4CEA040491F803C0BCF1280F05D1A7
:1006100000F1080C08FA0CF8C2F8148091F803C035
:10062000BCF1480F07D100F1080C4FF0010808FA9F
:100630000CF8C2F81080401C0828CED35460BDE8E6
:10064000F0810146886880B27047024600209368B6
:100650000B400BB1012000E0002070474161704762
:100660000161704700BFFEE710B54FF40051084824
:10067000FFF7F6FF10210748FFF7F2FF10210548AA
:10068000FFF7ECFF4FF400510148FFF7E7FF10BD03
:10069000001001400018014010B54FF40051064809
:1006A000FFF7DEFF10210548FFF7D8FF10210348B0
:1006B000FFF7D6FF10BD00000010014000180140F8
:1006C00010B54FF400510448FFF7CAFF4FF4005132
:1006D0000148FFF7C3FF10BD0010014010B5012114
:1006E0003D48FFF7B2FF01281CD13C4800780128A3
:1006F00016D13B480078012805D13A480088401CB3
:1007000000B23849088036480078032807D13549B7
:1007100088684FF07E5100F007FF3249886000E0A2
:1007200000BF00BF02212C48FFF78FFF01281CD11A
:100730002A480078012816D129480078012805D1D7
:1007400028480088401E00B22649088024480078C6
:10075000032807D1234988684FF07E5100F092FFAB
:100760002049886000E000BF00BF04211A48FFF75D
:100770006CFF01280AD11A480078401E18490870F9
:1007800008460078012801DA032008700821124881
:10079000FFF75BFF01280AD111480078401C10497F
:1007A000087008460078032801DD01200870202128
:1007B0000948FFF74AFF01280CD100F083F80748E9
:1007C0000078401C0549087008460078062801DDBD
:1007D0000020087010BD0000001801401400002027
:1007E000150000206000002008B50121402000F025
:1007F00045F92F20ADF8000028208DF80300694648
:100800000148FFF793FE08BD0018014000BFFEE756
:100810004B200849C881152008804FF4FA704880A1
:1008200040F6B83088800448886040F6C41088815B
:100830007047000060000020000034427047000054
:1008400070B5002100230F22C47804B3154C24682E
:1008500004F4E064C4F5E064210AC1F10403CA4071
:10086000447804FA03F184781440214309010E4CC2
:100870000678A155047804F01F050124AC400578E2
:100880006D11AD0005F1E025C5F8004109E00478DF
:1008900004F01F050124AC40044D0678761145F89C
:1008A000264070BD0CED00E000E400E080E100E0D7
:1008B00002490143024A1160704700000000FA0536
:1008C0000CED00E070B5002418E004F1B000002148
:1008D00000F0B6F80021084600F0B2F80021102020
:1008E00000F0AEF8002505E00121002000F0A8F896
:1008F000681CC5B2802DF7DB601CC4B2082CE4DB99
:1009000070BD000008B50121502000F0B7F84FF489
:100910000050ADF8000010208DF8030003208DF882
:10092000020069464448FFF701FE4FF40051424877
:10093000FFF796FE1020ADF800008DF803000320AD
:100940008DF8020069463D48FFF7F0FD10213B4855
:10095000FFF786FEC82000F02DFC0021AE2000F03D
:100960006FF80021084600F06BF80021102000F01D
:1009700067F80021402000F063F80021B02000F06B
:100980005FF80021812000F05BF80021FF2000F0DB
:1009900057F80021A12000F053F80021A62000F014
:1009A0004FF80021A82000F04BF800213F2000F074
:1009B00047F80021C82000F043F80021D32000F0C0
:1009C0003FF80021084600F03BF80021D52000F058
:1009D00037F80021802000F033F80021D82000F003
:1009E0002FF80021052000F02BF80021D92000F07D
:1009F00027F80021F12000F023F80021DA2000F090
:100A00001FF80021122000F01BF80021DB2000F06D
:100A100017F80021302000F013F800218D2000F09D
:100A20000FF80021142000F00BF80021AF2000F097
:100A300007F8FFF747FF08BD00100140001801400C
:100A400070B504460D461DB1E0B200F071FB02E046
:100A5000E0B200F057FB70BD7047000029B1064AB4
:100A6000D2690243044BDA6104E0034AD26982434B
:100A7000014BDA61704700000010024029B1064ABC
:100A800092690243044B9A6104E0034A92698243EB
:100A9000014B9A61704700000010024030B5002100
:100AA0000022002400232D4D6D6805F00C0121B1BA
:100AB000042905D0082923D105E0294D056022E04D
:100AC000274D05601FE0254D6D6805F47012234D1C
:100AD0006D6805F48034022505EB92421CB9214D66
:100AE000554305600BE01D4D6D6805F400351DB1E3
:100AF0001C4D5543056002E0194D5543056002E069
:100B0000174D056000BF00BF144D6D6805F0F00182
:100B10000909154D6B5C0568DD4045600F4D6D683A
:100B200005F4E061090A104D6B5C4568DD408560A5
:100B30000A4D6D6805F46051C90A0B4D6B5C456840
:100B4000DD40C560054D6D6805F44041890B074DDA
:100B50006B5CC568B5FBF3F5056130BD0010024064
:100B600000127A0000093D004C0000205C000020CB
:100B7000704710B500F002F810BD00000CB5002061
:100B8000019000903348006840F48030314908609B
:100B900000BF3048006800F4003000900198401C0D
:100BA0000190009818B90198B0F5A06FF1D12948CB
:100BB000006800F4003010B10120009001E0002036
:100BC00000900098012843D12348006840F01000AD
:100BD000214908600846006820F0030008600846C4
:100BE000006840F0020008601A48406819494860EF
:100BF0000846406848600846406840F480604860A5
:100C00000846406820F47C1048600846406840F47C
:100C1000E81048600846006840F08070086000BF37
:100C20000C48006800F000700028F9D009484068BE
:100C300020F00300074948600846406840F0020081
:100C4000486000BF0348406800F00C000828F9D154
:100C50000CBD00000010024000200240042808D112
:100C60004FF0E021096941F004014FF0E0221161E9
:100C700007E04FF0E021096921F004014FF0E02284
:100C8000116170477047000010B51348006840F0CC
:100C900001001149086008464068104908400E49A3
:100CA0004860084600680E4908400B49086008463D
:100CB000006820F4802008600846406820F4FE00A8
:100CC00048604FF41F008860FFF753FF4FF000604B
:100CD0000449086010BD0000001002400000FFF849
:100CE000FFFFF6FE08ED00E010B501210D4800F011
:100CF0005AF8A8B10C480078401C0B490870084607
:100D00000078192190FBF1F201FB120020B90020BC
:100D100005490870FFF7E2FC0121024800F034F8B1
:100D200010BD0000000C0040160000207FB50546F5
:100D30000C4601210820FFF791FEADF80850ADF8F0
:100D400004400020ADF80A00ADF8060001A90D48E6
:100D500000F044F8012211460A4800F035F832202C
:100D60008DF8000000208DF801008DF802000120B0
:100D70008DF803006846FFF763FD0121014800F08C
:100D800006F87FBD000C0040CA430282704721B1C3
:100D9000028842F00102028004E002884FF6FE73EE
:100DA0001A400280704730B502460020002300241C
:100DB000158A05EA0103958905EA010413B10CB10E
:100DC000012000E0002030BD1AB183890B438381EC
:100DD00002E083898B4383817047000000220288F0
:100DE0001D4B98420ED01D4B98420BD0B0F1804F56
:100DF00008D01B4B984205D01A4B984202D01A4B90
:100E0000984204D14FF68F731A404B881A43174B00
:100E1000984207D0164B984204D04FF6FF431A4031
:100E2000CB881A4302808B8883850B8803850A4B05
:100E300098420BD0094B984208D00E4B984205D0EF
:100E40000D4B984202D00D4B984201D10B7A03868C
:100E50000123838270470000002C014000340140D0
:100E60000004004000080040000C0040001000405A
:100E7000001400400040014000440140004801408F
:100E800010B5002440F22551164800F043F830B365
:100E9000144800F0FBF81449144A127821F81200A3
:100EA0001248007820B908460088552800D010BDA7
:100EB0000E480078401C0D4908700846007802284A
:100EC0000DD1094840880A490880074880880949A7
:100ED000088000200549087001200749087000BFFC
:100EE000E5E70000003801404200002041000020FA
:100EF000480000204A0000204000002021B18289E3
:100F000042F40052828104E082894DF6FF731A4058
:100F10008281704770B5024600240023002500201E
:100F200040F66A16B14200D100BFC1F3421501F08C
:100F30001F03012606FA03F3012D02D196893340DF
:100F400006E0022D02D1168A334001E0968A334032
:100F50000C12012606FA04F41688344013B10CB1C1
:100F6000012000E0002070BDF0B5034600240026FB
:100F70000025002040F66A17B94200D100BF18468C
:100F8000C1F3421401F01F06012707FA06F5012CF0
:100F900001D10C3004E0022C01D1103000E01430FB
:100FA0001AB107682F43076002E00768AF43076084
:100FB000F0BD00002DE9F04786B005460E4600243E
:100FC000A24600BFA1460027B08900B100BF2F464E
:100FD0002C8A4CF6FF700440F08804432C82AC89C4
:100FE0004EF6F3100440B0883189084371890843F4
:100FF0000443AC81AC8A4FF6FF400440B0890443FF
:10100000AC8201A8FFF74AFD1F48874202D1DDF8F4
:1010100010A001E0DDF80CA0A88900F4004040B168
:101020000AEBCA0000EB0A1031684900B0FBF1F886
:1010300007E00AEBCA0000EB0A1031688900B0FB38
:10104000F1F86420B8FBF0F004012009642101FBF1
:101050001089A88900F4004040B1322000EBC9009B
:10106000B0FBF1F000F00700044308E0322000EB91
:1010700009106421B0FBF1F000F00F0004432C8153
:1010800006B0BDE8F08700000038014001468888BE
:10109000C0F308007047C1F308028280704700BFA8
:1010A000FEE700002DE9F04105462C464FF40051C3
:1010B0001248FFF7D3FA00261BE0274607F0800707
:1010C000802F04D110210E48FFF7CAFA03E0102147
:1010D0000B48FFF7C3FA6006040E4FF400510748AF
:1010E000FFF7BEFA4FF400510448FFF7B7FA701C3F
:1010F000C6B2082EE1DBBDE8F0810000001001401F
:101100000018014010B50446FFF7AEFA7820FFF74B
:10111000C9FFFFF7D5FA0020FFF7C4FFFFF7D0FAA9
:101120002046FFF7BFFFFFF7CBFAFFF7B5FA10BD78
:1011300010B50446FFF798FA7820FFF7B3FFFFF7E2
:10114000BFFA4020FFF7AEFFFFF7BAFA2046FFF7DD
:10115000A9FFFFF7B5FAFFF79FFA10BD30380A284C
:1011600001D2012070470020704700BF7047000087
:1011700010B56FF00400FFF771FD0A4800680A49D6
:10118000B0FBF1F0094908700846007800EB400117
:10119000C1EBC0104FF6FF7101EAC000044908809E
:1011A00010BD00000000002000127A003400002072
:1011B000360000200146114A12884A434FF0E023CE
:1011C0005A6100229A611A46126942F001021A61BC
:1011D00000BF4FF0E022106900F001021AB100F4E4
:1011E0008032002AF5D04FF0E022126922F001028D
:1011F0004FF0E0231A6100229A6170473600002008
:1012000000BF054A128802F04002002AF9D0C2B29B
:10121000014B1B1D1A8070470038014070B5002536
:1012200000246C48FFF70DFA064606F4F045042D3D
:1012300007D0102D34D0402D62D0B5F5807F7DD100
:1012400090E04FF4D4616348FFF708FA00241EE0F1
:101250004FF48060A04081B25E48FFF701FA04219C
:101260005C48FFF7F2F980B14FF6FF70FFF7E1F845
:1012700004215848FFF7E9F938B15748005D57494C
:10128000087001205649087003E0601CC4B2042CA9
:10129000DEDB00BF4FF4D4614E48FFF7E1F990E088
:1012A0004FF4D4614B48FFF7D9F900241FE04FF405
:1012B0008060A04081B24748FFF7D2F9102145482D
:1012C000FFF7C3F988B14FF6FF70FFF7B2F81021AE
:1012D0004048FFF7BAF940B13F48001D005D3F4963
:1012E000087001203E49087003E0601CC4B2042C61
:1012F000DDDB00BF4FF4D4613648FFF7B1F960E0A1
:101300004FF4D4613348FFF7A9F9002421E04FF4EA
:101310008060A04081B22F48FFF7A2F940212D48FC
:10132000FFF793F998B14FF6FF70FFF782F840216D
:101330002848FFF78AF950B1274800E040E008301C
:10134000005D2649087001202549087003E0601CF3
:10135000C4B2042CDBDB00BF4FF4D4611D48FFF79F
:101360007FF92EE04FF4D4611A48FFF777F9002493
:101370001DE04FF48060A04081B21648FFF770F97D
:101380004FF480711348FFF760F970B14FF480712A
:101390001048FFF75AF940B10F480C30005D0F4973
:1013A000087001200E49087003E0601CC4B2042CD0
:1013B000DFDB00BF4FF4D4610648FFF751F900E0CE
:1013C00000BF00BF4FF4AA710248FFF747F9034876
:1013D000007870BD001C014017000020280000208C
:1013E0002900002000BF002400BF552022490880AA
:1013F000FF204880002088804FF4A060FFF758FA53
:10140000FFF7B6FE00F03CF84FF4165000F03CF841
:10141000FFF7EAF9FFF776FA41F61F413120FFF7AF
:1014200085FC28E014484088002805DD12484088E3
:10143000401E1149488002E0FF200F4948800E48B5
:101440008088FF2805DA0C488088401C0A4988807B
:1014500002E000200849888000240AE0064830F8AD
:1014600014100648FFF717FE3220FFF7A3FE601C9A
:10147000C4B2032CF2DBD5E7420000200038014063
:1014800000B5FFF7C5F900BD10B586B004460121CF
:1014900044F20400FFF7F2FA4FF40070ADF81400C4
:1014A00003208DF8160018208DF8170005A91C4898
:1014B000FFF73CF84FF48060ADF8140004208DF87D
:1014C000170005A91648FFF731F825208DF8000010
:1014D00000208DF8010001208DF802008DF8030036
:1014E0006846FFF7ADF901940020ADF80800ADF8AB
:1014F0000A00ADF80C00ADF810000C20ADF80E009D
:1015000001A90848FFF756FD012240F22551054880
:10151000FFF72AFD01210348FFF7F0FC06B010BDDC
:10152000000801400038014090EA010F48BF81F0F7
:10153000004100F1AE80421A3CBF801A89184FEA80
:10154000D0524FF07F4C1CEA410FA2EBD15318BF91
:101550009CEA026F00F03B804FF0004C4CEA002008
:101560004CEA012121FA03FC10EB0C0C1ED202F113
:10157000FF325FEA1C2040EBC25038BF70471CF0BE
:101580007F0F4FEA400C18BFBCF17F4F38BF704748
:10159000C3F12003994008BF20F00100BCF17F4F48
:1015A00038BF7047A0F1C04000F066B84FEA3C0079
:1015B000000A40EBC25028BF1CF0FF0F4FEA400C5E
:1015C000E6D018BFBCF17F4F38BF7047EAE79CEA0E
:1015D000026F05D010EA5C0F08BF00F000407047B2
:1015E00010B500F003F800BF64FBBE3E0EF1020E22
:1015F0002EF0030E5EF8044B244204D44FEA41025D
:10160000B2F17F4F11D84FEA4003B3F17F4F0CD8AE
:101610000ED14FEAD07CB2F17F4F0CEB4C0C0CF1A9
:10162000020C08BF4CEBD17C04E04FF0080C01E049
:101630004FEAD17C0CEB4C0324FA03F404F00704CA
:10164000B4F1040C06D20EEB840CBDE810404CF053
:10165000010C6047DFE80CF0070802024FF0004081
:10166000A0F5800010BD0846420018BFD2F180727C
:1016700088BF00F0004010BDFF2141EAD050C005F6
:101680007047000090EA010F48BF81F000413FF52C
:1016900052AF421A04D882F00042A0EB020011447B
:1016A0004FEAD0524FF07F4C1CEA410FA2EBD153CE
:1016B00018BF9CEA026F4AD04FF0004C4CEA002061
:1016C0004CEA012121FA03FCB0EB0C0C0FD412F010
:1016D000FE0F36D05FEA4C001DD5001240EBC25021
:1016E00038BF70471CF03F0F18BF70470BE0A2F1E6
:1016F00001025FEA1C2040EBC25038BF70471CF06B
:101700007F0F18BF7047C3F12003994014BF401EDC
:1017100020F00100704780084FEA122308BF70478D
:10172000B0FA80FCA2EB0C02CCF1280C60FA0CF0B1
:1017300093EA122F04BF00EBC25070474FEAC37008
:101740007047130A5FEADC1008BF7047F6E79CEAAF
:10175000026F04D010EA5C0F08BF0020704710B57C
:10176000FFF744FF40DFF63E81F000407047040081
:10177000000800000000000000020001000010004E
:10178000A017000800000020600000006C010008A5
:1017900000180008600000203025000088010008C3
:1017A00000A24A040000000000000000010203043F
:1017B000060708090001000D0302010E0605040FCB
:1017C000090807100C0A0B000000000000000000D0
:1017D0000000000000000000000000000000000009
:1017E00000000000000000000000000000000000F9
:1017F00001020304010203040607080902040608A3
:0400000508000131BD
:00000001FF
