:020000040800F2
:10000000800900202D02000809110008CF0900080E
:10001000D7100008FD070008972200080000000024
:10002000000000000000000000000000BD160008F5
:10003000010800080000000065150008D11700083D
:10004000470200084702000847020008470200086C
:10005000470200084702000847020008470200085C
:10006000470200084702000847020008470200084C
:10007000470200084702000847020008470200083C
:10008000470200084702000847020008470200082C
:10009000470200084702000847020008470200081C
:1000A000470200084702000847020008470200080C
:1000B00047020008470200083119000847020008FB
:1000C00047020008470200084702000847020008EC
:1000D0004702000875200008470200084702000890
:1000E00047020008470200084702000847020008CC
:1000F00047020008470200084702000847020008BC
:100100004702000847020008691900084702000872
:10011000470200084702000847020008470200089B
:10012000470200084702000847020008470200088B
:1001300000F002F800F06BF80AA090E8000C82448E
:100140008344AAF10107DA4501D100F060F8AFF26B
:10015000090EBAE80F0013F0010F18BFFB1A43F0A5
:1001600001031847F86A0000186B00000A444FF0BA
:10017000000C10F8013B13F0070408BF10F8014B06
:100180001D1108BF10F8015B641E05D010F8016B4B
:10019000641E01F8016BF9D113F0080F1EBF10F8AF
:1001A000014BAD1C0C1B09D16D1E58BF01F801CBD2
:1001B000FAD505E014F8016B01F8016B6D1EF9D555
:1001C0009142D6D37047000000230024002500266A
:1001D000103A28BF78C1FBD8520728BF30C148BFAA
:1001E0000B607047642900F09F80752900F09C80A7
:1001F000782900F0D580632900F03482732900F05B
:100200003982002070471FB51FBD10B510BD00F02A
:100210006BFA1146FFF7F7FF03F010F800F089FAC8
:1002200003B4FFF7F2FF03BC02F0BBF809488047B4
:1002300009480047FEE7FEE7FEE7FEE7FEE7FEE7C8
:10024000FEE7FEE7FEE7FEE704480549054A064BE0
:1002500070470000D5170008310100088003002016
:1002600080090020800500208005002070470000E4
:100270000FB4044910B503AA029800F0FFF910BCAE
:100280005DF814FBB400002070B504468569006871
:10029000C10601D5302600E02026C00707D070BD7A
:1002A000D4E9012130469047206A401C20626D1E2F
:1002B000F6D570BD70B5044685690078C00707D1D2
:1002C00070BDD4E9012120209047206A401C2062A3
:1002D0006D1EF6D570BD70B50C460546012A05D0D9
:1002E0002878800600D5EA69002302E0012305E0B2
:1002F0005B1C934202D2E05C0028F9D1A869E618A1
:10030000C01AA861286A184428622846FFF7BCFF73
:1003100004E0D5E9012114F8010B9047B442F8D369
:100320002846FFF7C7FF70BD2DE9F04106460024BF
:1003300010687529314616A510D0AFF3008000284B
:1003400002DA404213A507E031688A0701D512A5F9
:1003500002E0490704D511A5012401E0AFF30080B4
:1003600000210A2206F1240709E0B0FBF2FCB0FBF1
:10037000F2F302FB1C00303078541846491C002868
:10038000F3D123462A463046BDE8F04100F007B9D4
:10039000000000002D0000002B00000020000000E5
:1003A00070B504460D4621461068AFF300802188E1
:1003B000090502D50F4A7A4402E00E4A7A440E3209
:1003C000002104F1240305E000F00F060009965D0A
:1003D0005E54491C0028F7D120780023000704D57B
:1003E000702D02D009B1022311322046BDE87040C1
:1003F00000F0D5B87F6600002DE9F05F894604461D
:100400004FF0000ADFF874B1FB44C0F820A020468A
:10041000E1688847002874D0252806D0D4E9012156
:100420009047206A401C2062F1E700265F46204684
:10043000E16888472028054607DB312D05D2781969
:1004400010F8200C08B10643F1E7B00701D526F0FB
:100450000406C4F81CA00027C4F818A02A2D09D04F
:10046000284601F097FF38B304EB8708303DC8F801
:10047000185019E059F8041B204604EB87029161DB
:10048000E1688847012F054618D1E069002820DA85
:1004900026F020061DE0D8F8180000EB800005EBE0
:1004A00040003038C8F818002046E1688847054603
:1004B00001F070FF0028EED1012F0AD02E2D08D1B7
:1004C0002046E16888477F1C0546022F46F020063B
:1004D000C4DBA069002803DA404246F00106A061AF
:1004E000F00701D026F010066C2D0BD0682D09D036
:1004F0004C2D39D06A2D35D0742D35D07A2D33D08E
:1005000016E038E0E1682F4620468847B8420546A5
:1005100009D16C2F26D04FF48060E1680643204655
:100520008847054604E06C2F1AD04FF480700643CC
:100530000DB3A5F14100192802D8203546F4006614
:100540004A462946204626604E46FFF74BFE80B1BC
:1005500001280BD0F61D26F0070000F1080956E728
:100560004020E4E78020D8E70020D6E706F1040920
:100570004DE7284652E7206ABDE8F09F5566000027
:10058000704770477047704710B500F089F80068F1
:1005900010BD10B5044600F083F8046010BD2DE9CD
:1005A000F0470D4699469246044600F1240801683A
:1005B000880604D5E06921F01001216000E00120E7
:1005C000A84201DD471B00E00027A1697A1902EB70
:1005D0000900081AA0612078C00602D42046FFF75F
:1005E00053FE002608E0D4E901211AF806009047DE
:1005F000206A401C761C20624E45F4DB2078C00641
:100600000AD52046FFF740FE06E0D4E9012130205C
:100610009047206A401C2062381EA7F10107F4DCD5
:1006200007E0D4E9012118F805009047206A401C32
:100630002062281EA5F10105F3DC2046FFF73AFEF3
:100640002078000602D50220BDE8F0870120FBE7F4
:1006500010B5436913B1AFF3008001E0FFF73BFE33
:10066000012010BD127800F124010A7000224A70A6
:100670000122EDE711684FF0FF32E9E7074B70B553
:100680000D467B4400F015F80446284600F024F897
:1006900010B14FF0FF3070BD204670BDC328000080
:1006A000004870471C03002001694A1C0261087859
:1006B000704700B58FB0CDE90131002105910549A2
:1006C0007944CDE9031011466846FFF795FE0FB057
:1006D00000BD0000E5FFFFFF007B00F080007047D9
:1006E000004870471C0300207546FFF7F9FFAE462F
:1006F00005006946534620F00700854618B020B52E
:10070000FFF7A2FDBDE820404FF000064FF00007C4
:100710004FF000084FF0000B21F00701AC46ACE8A9
:10072000C009ACE8C009ACE8C009ACE8C0098D4616
:10073000704710B50446AFF300802046BDE8104076
:10074000FFF76EBD10B54FF48061294800F032F913
:1007500028B128A20421142000F0D0FD04E026A234
:100760000421142000F0CAFD4FF40071204800F06D
:1007700021F928B11FA20421282000F0BFFD04E0C8
:100780001DA20421282000F0B9FD4FF48071184803
:1007900000F010F928B117A204213C2000F0AEFDB2
:1007A00004E015A204213C2000F0A8FD802110489F
:1007B00000F000F928B10FA20421502000F09EFDA6
:1007C00004E00DA20421502000F098FD40210848CB
:1007D00000F0F0F828B107A20421642000F08EFD9B
:1007E00004E005A20421642000F088FD10BD000093
:1007F00000180140310000003000000000BFFEE79B
:10080000704710B501F016F801F052F810BD2DE94F
:10081000F041024600250026002000230024002786
:1008200091F803C00CF00F0591F803C00CF0100C08
:10083000BCF1000F03D091F802C04CEA050591F815
:1008400000C0BCF1000F31D0146800202BE04FF045
:10085000010C0CFA00F3B1F800C00CEA03069E424A
:1008600020D183004FF00F0C0CFA03F7BC4305FABC
:1008700003FC4CEA040491F803C0BCF1280F06D134
:100880004FF0010C0CFA00FCC2F814C00AE091F819
:1008900003C0BCF1480F05D14FF0010C0CFA00FC6D
:1008A000C2F810C0401C0828D1D31460B1F800C0B1
:1008B000BCF1FF0F34DD546800202EE000F1080C7D
:1008C0004FF0010808FA0CF3B1F800C00CEA030677
:1008D0009E4221D183004FF00F0C0CFA03F7BC436A
:1008E00005FA03FC4CEA040491F803C0BCF1280F9C
:1008F00005D100F1080C08FA0CF8C2F8148091F840
:1009000003C0BCF1480F07D100F1080C4FF00108FB
:1009100008FA0CF8C2F81080401C0828CED35460A6
:10092000BDE8F081F0B50A4600230024002100252F
:1009300000F00046B6F1004F02D11D4EF16901E012
:100940001B4E7168C0F3034583B200F44016B6F540
:10095000401F08D121F07061154E766826F0706650
:10096000134F7E6012E000F48016B6F5801F06D1AA
:10097000032606FA05F4A14341F0706106E0460D36
:10098000360103FA06F6B14341F0706122B1460D1B
:10099000360103FA06F6314300F00046B6F1004F87
:1009A00002D1034EF16101E0014E7160F0BD000023
:1009B000000001400246002093680B400BB101206B
:1009C00000E000207047416170470161704700BF3F
:1009D000FEE7000008B50121442000F0E5FD1820E5
:1009E000ADF8000048208DF8030069460648FFF77F
:1009F0000EFF0120ADF8000028208DF803006946A5
:100A00000248FFF704FF08BD00180140000801403C
:100A100008B50121482000F0C7FD2020ADF80000F6
:100A200010208DF8030003208DF802006946094864
:100A3000FFF7EDFE20210748FFF7C7FF2020ADF8A4
:100A4000000069460448FFF7E2FE20210248FFF754
:100A5000BCFF08BD000C0140001801402DE9FC411D
:100A600004460D4616466B4606224321682000F0D8
:100A70005CFA0746BFB99DF801009DF8001040EAF6
:100A8000012000B220809DF803009DF8021040EA8A
:100A9000012000B228809DF805009DF8041040EA6E
:100AA000012000B230803846BDE8FC812DE9F84FC6
:100AB0006B4602224121682000F037FA9DF80100C0
:100AC0009DF8001040EA01200FFA80FA504604F029
:100AD000B6FA804600220B4B04F02AF906460A4A71
:100AE0000A4B04F075F8044604F040F883460849C0
:100AF000584604F059FF044604F0EEFE00B2BDE88B
:100B0000F88F000000407540A4703D0AD743424072
:100B10000000C84210B500200E4908600E48006869
:100B200020F470400C4908600846006840F44050CA
:100B3000086000200949C1F8AC0100F011F801205B
:100B40000449086000F00CF800200449C1F8A8012D
:100B500010BD0000A8812142040C01400080214208
:100B600010B5022001F0D4FF10BD000008B501212E
:100B7000082000F019FD4FF44060ADF8000010208F
:100B80008DF8030003208DF8020069460448FFF742
:100B90003EFE4FF440610248FFF717FF08BD00001A
:100BA000000C014010B500200E4908600E48006896
:100BB00020F470400C4908600846006840F440503A
:100BC000086001200949C1F8AC01FFF7C9FF012005
:100BD00004490860FFF7C4FF00200449C1F8A801D8
:100BE00010BD0000A8812142040C01400080214278
:100BF00070B5054600241648006820F4704014497A
:100C000008600846006840F400400860002614E0D0
:100C1000002010490860FFF7A3FF01200E49C1F82A
:100C2000A8016006040E0B487C38006808B1601CFF
:100C3000C4B2FFF795FF701CC6B2082EE8DB15B9E9
:100C4000FFF7B0FF01E0FFF765FF204670BD000031
:100C5000040C0140A88121420080214270B5044665
:100C60001248006820F47040104908600846006887
:100C700040F44050086000200D490860002512E053
:100C8000E0090B49091D08606006040E01200949AE
:100C9000C1F8A801FFF764FF002005490860FFF7CD
:100CA0005FFF681CC5B2082DEADB70BD040C014073
:100CB000A88121420080214210B50E48006820F42E
:100CC00070400C4908600846006840F440500860D5
:100CD0000120094908600949C1F8A801FFF740FF50
:100CE000002005490860FFF73BFF00200349C1F8D9
:100CF000A80110BD040C0140AC81214200802142BA
:100D000010B50E48006820F470400C490860084691
:100D1000006840F440500860002009490860094913
:100D2000C1F8AC01FFF71CFF012005490860054927
:100D3000C1F8AC01FFF714FF10BD0000040C014026
:100D4000A88121420080214210B500241448006887
:100D500020F47040124908600846006840F40040E2
:100D6000086001200F490860FFF7FAFE01200E49D4
:100D7000C1F8A801FFF7F4FE07E0601CC4B2FA2C2A
:100D800003DDFFF7BDFF012010BD06488038006875
:100D90000028F2D10349091F086000BFF4E70000F2
:100DA000040C0140AC8121420080214230B587B063
:100DB0000020069005900490039002900190FFF7A8
:100DC000D5FE80216B2000F034F9642001F07AFE1A
:100DD00000216B2000F02DF9032000F0E8F800203E
:100DE00000F0DDF8322000F007F90021382000F093
:100DF00020F900216A2000F01CF90021232000F0D6
:100E000018F98021372000F014F9752000F070F8EF
:100E10000546682D0AD101216B2000F00AF9002156
:100E20006C2000F006F9322000F0E6F800202A4994
:100E300008602A4908602A4908602A4908802A4926
:100E400008802A490880002440E004AA05A906A8D1
:100E500002F086FAC0BB01AA02A903A8FFF7FEFDB3
:100E60001D480699006804F007FC1B4908601E48ED
:100E70000088BDF80810084400B21B4908801B48D0
:100E80000088BDF80410084400B218490880002CFE
:100E900017DD4FF080411048006804F05BFC0E49FC
:100EA00008601149B1F9000000EBD07149100E4AF9
:100EB00011800E49B1F9000000EBD07149100B4AC6
:100EC0001180012001F0FEFD601C84B2B4F57A7F30
:100ED000BBDB07B030BD000014000020180000206C
:100EE0001C00002020000020220000202400002000
:100EF00070B50446FFF7E0FED020FFF7AFFEFFF726
:100F000023FF2046FFF7AAFEFFF71EFFFFF7D4FEE0
:100F1000D120FFF7A3FEFFF717FF0020FFF768FEC1
:100F20000546FFF7EDFE284670BD2DE9F041064667
:100F30000F4614461D46FFF7BFFE002141EA460159
:100F4000C8B2FFF78BFEFFF7FFFE20B1FFF7D8FE18
:100F50000120BDE8F0813846FFF780FEFFF7F4FE80
:100F6000FFF7AAFE012101EB4601C8B2FFF776FEAA
:100F7000FFF7EAFE0DE0012C04D10020FFF738FE58
:100F8000287003E00120FFF733FE2870601EC4B212
:100F90006D1C002CEFD1FFF7B3FE0020D9E710B590
:100FA0000446E006010E1C2000F043F810BD10B509
:100FB0000446E006010E1B2000F03BF810BD70B5A2
:100FC00004460025BC2C01DB012510E0622C01DB6E
:100FD00002250CE02A2C01DB032508E0142C01DBA0
:100FE000042504E00A2C01DB052500E0062529463E
:100FF0001A2000F01EF870BD70B50446B4F57A7F73
:1010000001DD4FF47A74042C00DA04244FF47A7072
:1010100090FBF4F0401EC5B22946192000F009F8F3
:101020000546264604EBD671C1F34F00FFF7C7FF14
:1010300070BD70B505460C46FFF73EFED020FFF7A9
:101040000DFEFFF781FE18B1FFF75AFE012070BDBB
:101050002846FFF703FEFFF777FE2046FFF7FEFD69
:10106000FFF772FE18B1FFF74BFE0120EFE7FFF725
:1010700047FE0020EBE72DE9F04105460E461746F6
:101080009846FFF719FE002141EA4501C8B2FFF773
:10109000E5FDFFF759FE20B1FFF732FE0120BDE864
:1010A000F0813046FFF7DAFDFFF74EFE00240CE03A
:1010B00018F80400FFF7D2FDFFF746FE18B1FFF75E
:1010C0001FFE0120EBE7601CC4B2BC42F0DBFFF75F
:1010D00017FE0020E3E700BFFEE700004B200849B1
:1010E000C881152008804FF4FA70488040F6B83067
:1010F00088800448886040F6C410888170470000EA
:1011000028020020000034427047000070B5002122
:1011100000230F22C47804B3154C246804F4E0645F
:10112000C4F5E064210AC1F10403CA40447804FA1A
:1011300003F184781440214309010E4C0678A1552F
:10114000047804F01F050124AC4005786D11AD0052
:1011500005F1E025C5F8004109E0047804F01F0519
:101160000124AC40044D0678761145F8264070BD48
:101170000CED00E000E400E080E100E00249014302
:10118000024A1160704700000000FA050CED00E013
:1011900007E040F2375100BF0A1EA1F10101FBD167
:1011A000401E0028F5D1704770B50646002415E0B2
:1011B00004F1B001C8B200F015F9012000F012F9F5
:1011C000102000F00FF9002504E0304600F036F959
:1011D000681CC5B2802DF8DB601CC4B2082CE7DBAC
:1011E00070BD000008B50121042000F0DDF93C20AD
:1011F000ADF8000003208DF8020010208DF80300E8
:1012000069463D48FFF703FB20213B48FFF7DDFB24
:1012100008213948FFF7D7FB3220FFF7B9FF082133
:101220003548FFF7D2FB0021AE2000F0ABF80021DB
:10123000D52000F0A7F80021802000F0A3F80021BD
:10124000A82000F09FF800213F2000F09BF800212B
:10125000D32000F097F80021084600F093F8002111
:10126000402000F08FF800218D2000F08BF8002145
:10127000142000F087F80021202000F083F80021DE
:10128000022000F07FF80021A12000F07BF800216F
:10129000C82000F077F80021DA2000F073F8002170
:1012A000122000F06FF80021812000F06BF800217F
:1012B000EF2000F067F80021D92000F063F800214A
:1012C000F12000F05FF80021DB2000F05BF8002146
:1012D000402000F057F80021A42000F053F800212E
:1012E000A62000F04FF80021AF2000F04BF80020BE
:1012F000FFF75AFF08BD0000000801402DE9F04744
:101300000446884615464FF000090026002741464E
:10131000204600F025F81CE0E85D203800F0FF09C9
:101320007E2C04DD002408F1010000F0FF080026F7
:1013300009E009EB4901094A02EB4101885D00F02F
:101340007DF8701CC6B2062EF3DBA01DC4B2781C5B
:10135000C7B2E85D0028DFD1BDE8F087E45D000892
:1013600070B504460D4605F1B001C8B200F03AF878
:10137000102141EA141000F035F804F00F0000F0DD
:1013800031F870BD70B504460E4626B104211448EC
:10139000FFF71BFB03E004211148FFF714FB0025B6
:1013A00017E020210E48FFF70EFB04F0800020B16B
:1013B00010210B48FFF709FB03E010210848FFF755
:1013C00002FB20210648FFF700FB6006040E681CA4
:1013D000C5B2082DE5DB04210148FFF7F6FA70BD20
:1013E0000008014070B50446082504211248FFF7A3
:1013F000EAFA20211048FFF7E6FA00BF16E004F0F1
:10140000800020B110210C48FFF7DFFA03E0102123
:101410000948FFF7D8FA20210748FFF7D6FA00BF9E
:1014200020210548FFF7CFFA6006040E281EA5F11B
:101430000101CDB2E3D170BD0008014070B5044692
:10144000082504211348FFF7C0FA00BF20211148E6
:10145000FFF7B9FA00BF16E004F0800020B11021B8
:101460000C48FFF7B2FA03E010210A48FFF7ABFA85
:1014700020210848FFF7A9FA00BF20210548FFF7FF
:10148000A2FA6006040E281EA5F10101CDB2E3D137
:1014900070BD00000008014030B589B005460C461B
:1014A0000121022000F060F80121112000F07CF8F9
:1014B00001212948FFF736FA4FF47070ADF820008B
:1014C00018208DF8230003208DF8220008A9234856
:1014D000FFF79DF9ADF81850ADF814400020ADF8B5
:1014E0001A00ADF8160005A91D4800F043FD602064
:1014F000ADF804000120ADF806000020ADF80A00A8
:10150000ADF80C0001A9164800F0D0FB08211448E2
:1015100000F018FC01A9124800F01EFC0821104838
:1015200000F06CFC01A90E4800F076FC08210C4884
:1015300000F0C2FC01A90A4800F0C8FC08210848D4
:1015400000F002FD0121064800F056FA012104488E
:1015500000F064FA09B030BD000C1A000010014020
:10156000000400407047000029B1064AD2690243D6
:10157000044BDA6104E0034AD2698243014BDA6129
:10158000704700000010024029B1064A1269024368
:10159000044B1A6104E0034A12698243014B1A6149
:1015A000704700000010024029B1064A92690243C8
:1015B000044B9A6104E0034A92698243014B9A61A9
:1015C000704700000010024029B1064AD268024369
:1015D000044BDA6004E0034AD2688243014BDA60CC
:1015E000704700000010024030B5002100220024A6
:1015F00000232D4D6D6805F00C0121B1042905D0A3
:10160000082923D105E0294D056022E0274D05601A
:101610001FE0254D6D6805F47012234D6D6805F4CB
:101620008034022505EB92421CB9214D55430560DB
:101630000BE01D4D6D6805F400351DB11C4D554383
:10164000056002E0194D5543056002E0174D056045
:1016500000BF00BF144D6D6805F0F0010909154D7C
:101660006B5C0568DD4045600F4D6D6805F4E06119
:10167000090A104D6B5C4568DD4085600A4D6D6858
:1016800005F46051C90A0B4D6B5C4568DD40C560CF
:10169000054D6D6805F44041890B074D6B5CC568CD
:1016A000B5FBF3F5056130BD0010024000127A0071
:1016B00000093D00BA000020CA000020704710B5A4
:1016C00000F002F810BD00000CB500200190009061
:1016D0003348006840F480303149086000BF30482A
:1016E000006800F4003000900198401C01900098C0
:1016F00018B90198B0F5A06FF1D12948006800F43D
:10170000003010B10120009001E00020009000980E
:10171000012843D12348006840F0100021490860A7
:101720000846006820F0030008600846006840F0A2
:10173000020008601A484068194948600846406835
:1017400048600846406840F4806048600846406849
:1017500020F47C1048600846406840F4E810486077
:101760000846006840F08070086000BF0C480068C0
:1017700000F000700028F9D00948406820F003000C
:10178000074948600846406840F00200486000BFD2
:101790000348406800F00C000828F9D10CBD000097
:1017A0000010024000200240042808D14FF0E02140
:1017B000096941F004014FF0E022116107E04FF0A8
:1017C000E021096921F004014FF0E0221161704726
:1017D0007047000010B51348006840F0010011493F
:1017E000086008464068104908400E4948600846AD
:1017F00000680E4908400B4908600846006820F45C
:10180000802008600846406820F4FE0048604FF4DD
:101810001F008860FFF753FF4FF000600449086025
:1018200010BD0000001002400000FFF8FFFFF6FEB0
:1018300008ED00E01FB501210846FFF795FE4FF0C7
:10184000804000F0F7F801210420FFF7ADFE0520ED
:10185000ADF8000004208DF8030069460D48FEF73E
:10186000D6FF00231A4603214FF0804000F0D6F93E
:101870000020ADF804004FF6FF70ADF8080001A994
:101880004FF0804000F076FB0121880700F0C6F899
:101890001FBD00000008014010B54FF0804000F06F
:1018A000DEF904B2204610BD4FF0804290847047AC
:1018B0001FB501210420FFF757FE134800F0BAF8C6
:1018C00001210820FFF770FEC020ADF800000420C1
:1018D0008DF8030069460D48FEF799FF00231A466C
:1018E0000321094800F09AF90020ADF804004FF6F2
:1018F000FF70ADF8080001A9034800F03BFB01218F
:10190000014800F08BF81FBD00080040000C0140AA
:1019100010B5034800F0A3F904B2204610BD000042
:1019200000080040014A1080704700002408004071
:1019300010B501210A4800F09EF901280AD1094991
:10194000086980470021064800F011FB6421044823
:1019500000F007FB0121024800F05DF810BD000017
:10196000000800402401002010B50121084800F0C3
:1019700082F958B10121064800F04DF801F0EEFB64
:10198000044801680448006801F084FC10BD0000B0
:10199000000C0040800000207C0000207FB5054640
:1019A0000C4601210820FFF7DFFDADF80850ADF827
:1019B00004400020ADF80A00ADF8060001A90D486A
:1019C00000F0D8FA012211460A4800F065F93220E9
:1019D0008DF8000000208DF801008DF80200012034
:1019E0008DF803006846FFF791FB0121014800F0E4
:1019F00015F87FBD000C004021B1028842F0800242
:101A0000028004E002884FF67F731A40028070471C
:101A1000CA4302827047CA430282704721B10288DA
:101A200042F00102028004E002884FF6FE731A4081
:101A30000280704710B504466848844208D10121ED
:101A4000C014FFF7C1FD0021E014FFF7BDFDC4E0A5
:101A5000B4F1804F08D101210846FFF795FD002120
:101A60000120FFF791FDB8E05D48844208D10121D3
:101A70000220FFF789FD00210220FFF785FDACE081
:101A80005848844208D101210420FFF77DFD002140
:101A90000420FFF779FDA0E05348844208D10121DA
:101AA0000820FFF771FD00210820FFF76DFD94E08D
:101AB0004E48844208D101211020FFF765FD002126
:101AC0001020FFF761FD88E04948844208D10121D8
:101AD0002020FFF759FD00212020FFF755FD7CE075
:101AE0004448844208D101214014FFF76DFD0021D4
:101AF0006014FFF769FD70E03F48844209D101217D
:101B0000C804FFF761FD00214FF40020FFF75CFDE2
:101B100063E03A48844209D101210805FFF754FDEA
:101B200000214FF48010FFF74FFD56E03448844207
:101B300009D101214805FFF747FD00214FF40010AE
:101B4000FFF742FD49E02F48844208D1012140209F
:101B5000FFF71AFD00214020FFF716FD3DE02A485F
:101B6000844208D101218020FFF70EFD0021802052
:101B7000FFF70AFD31E02548844208D10121801594
:101B8000FFF702FD0021A015FFF7FEFC25E020482D
:101B9000844209D101210804FFF716FD00214FF40A
:101BA0008030FFF711FD18E01A48844209D1012165
:101BB0004804FFF709FD00214FF40030FFF704FD52
:101BC0000BE01548844208D101218804FFF7FCFC92
:101BD00000214FF48020FFF7F7FC10BD002C0140DE
:101BE0000004004000080040000C004000100040CD
:101BF0000014004000340140004C014000500140FE
:101C00000054014000180040001C0040002000402B
:101C1000004001400044014000480140F0B50C463E
:101C200015461E460021002200230189028B038CE9
:101C30004FF6F877394021434FF6FC473A4040F2DF
:101C400001173A434FF6DD773B404FF6FF7707EA3F
:101C500006172F433B43018102830384F0BD0146F5
:101C6000888C704702460020138A0B400BB101207C
:101C700000E00020704730B5024600200023002419
:101C8000158A05EA0103958905EA010413B10CB12F
:101C9000012000E0002030BD1AB183890B4383810D
:101CA00002E083898B4383817047000070B5002474
:101CB00000220023058C4FF6FE7635400584028C09
:101CC0008388048B4FF68F752C40B51E2C400D88F1
:101CD0002C43751E2A400D892A434D882A43144DF2
:101CE000A8420BD0134DA84208D0134DA84205D0EE
:101CF000124DA84202D0124DA84213D14FF6F775EB
:101D00002A404D892A434FF6FB752A408D882A4385
:101D10004FF6FF652B404FF6FF552B408D892B4327
:101D2000CD892B4383800483CD888586028470BD52
:101D3000002C0140003401400040014000440140BB
:101D4000004801400A460021018B4FF6F773194005
:101D5000114301837047000070B500240022002366
:101D6000058C4FF6EF7635400584028C8388048B12
:101D700048F6FF752C404FF6FF452C400D884FF676
:101D8000FF7606EA05252C434FF6DF752A400D89BC
:101D900006EA05152A434D8806EA05152A43154D1E
:101DA000A84202D0144DA8421DD14FF67F752A409B
:101DB0004D894FF6FF7606EA05152A434FF6BF75A3
:101DC0002A408D8806EA05152A434FF6FF352B4039
:101DD0004FF2FF752B408D8906EA85052B43CD898F
:101DE00006EA85052B4383800483CD88058702841A
:101DF00070BD0000002C0140003401400A46002163
:101E0000018B4FF2FF7319404FF6FF7303EA022371
:101E1000194301837047000070B50024002200239D
:101E2000058C4FF6FF6635400584028C8388848BD1
:101E30004FF68F752C404FF6FC752C400D882C43C7
:101E40004FF6FF552A400D894FF6FF7606EA052525
:101E50002A434D8806EA05252A43154DA84202D09B
:101E6000144DA8421DD14FF2FF752A404D894FF6FF
:101E7000FF7606EA05252A434FF6FF352A408D886E
:101E800006EA05252A434EF6FF752B404DF6FF75F1
:101E90002B408D8906EA05152B43CD8906EA0515E9
:101EA0002B4383808483CD888587028470BD0000A6
:101EB000002C0140003401400A460021818B4FF67E
:101EC000F7731940114381837047000070B50022F9
:101ED00000230024058C4EF6FF7635400584038CE4
:101EE0008488828B48F6FF752A404FF6FF452A40CA
:101EF0000D884FF6FF7606EA05252A434DF6FF7555
:101F00002B400D8906EA05352B434D8806EA053539
:101F10002B430B4DA84202D00A4DA84208D14BF6E4
:101F2000FF752C408D894FF6FF7606EA85152C4308
:101F300084808283CD88A0F84050038470BD000067
:101F4000002C0140003401400A460021818B4FF2F1
:101F5000FF7319404FF6FF7303EA0223194381838D
:101F600070478185704781867047018770478184FB
:101F700070470000002202881D4B98420ED01D4B76
:101F800098420BD0B0F1804F08D01B4B984205D03F
:101F90001A4B984202D01A4B984204D14FF68F73D5
:101FA0001A404B881A43174B984207D0164B984259
:101FB00004D04FF6FF431A40CB881A4302808B8827
:101FC00083850B8803850A4B98420BD0094B9842B6
:101FD00008D00E4B984205D00D4B984202D00D4BC5
:101FE000984201D10B7A0386012383827047000057
:101FF000002C014000340140000400400008004073
:10200000000C00400010004000140040004001405F
:1020100000440140004801407FB505460C460121BF
:102020000420FFF7A1FAADF80850ADF804400020F5
:10203000ADF80A00ADF8060001A90D48FFF79AFFB8
:10204000012241210A48FFF727FE1E208DF80000DB
:1020500003208DF801008DF8020001208DF80300A7
:102060006846FFF753F801210148FFF7D7FC7FBD11
:102070000008004010B540F225511D4800F04AF814
:1020800010B31B4800F002F9C4B21A48008800F4EB
:102090000040C8B91748008800F4804060B10A2C9D
:1020A00003D000201349088020E01248008840F443
:1020B00000401049088019E00D2C06D10D48008819
:1020C00040F480400B49088010E00A480088C0F3C3
:1020D0000D0009490C5407480088401C0549088038
:1020E00008460088C72801DD0020088010BD0000D8
:1020F00000380140B80000205402002021B182893C
:1021000042F40052828104E082894DF6FF731A4046
:102110008281704770B5024600240023002500200C
:1021200040F66A16B14200D100BFC1F3421501F07A
:102130001F03012606FA03F3012D02D196893340CD
:1021400006E0022D02D1168A334001E0968A334020
:102150000C12012606FA04F41688344013B10CB1AF
:10216000012000E0002070BDF0B5034600240026E9
:102170000025002040F66A17B94200D100BF18467A
:10218000C1F3421401F01F06012707FA06F5012CDE
:1021900001D10C3004E0022C01D1103000E01430E9
:1021A0001AB107682F43076002E00768AF43076072
:1021B000F0BD00002DE9F04786B005460E4600242C
:1021C000A24600BFA1460027B08900B100BF2F463C
:1021D0002C8A4CF6FF700440F08804432C82AC89B2
:1021E0004EF6F3100440B0883189084371890843E2
:1021F0000443AC81AC8A4FF6FF400440B0890443ED
:10220000AC8201A8FFF7F0F91F48874202D1DDF840
:1022100010A001E0DDF80CA0A88900F4004040B156
:102220000AEBCA0000EB0A1031684900B0FBF1F874
:1022300007E00AEBCA0000EB0A1031688900B0FB26
:10224000F1F86420B8FBF0F004012009642101FBDF
:102250001089A88900F4004040B1322000EBC90089
:10226000B0FBF1F000F00700044308E0322000EB7F
:1022700009106421B0FBF1F000F00F0004432C8141
:1022800006B0BDE8F08700000038014001468888AC
:10229000C0F30800704700BFFEE7490050EAC120C4
:1022A00018BF04204A0D18BF40F0010040F2FF7231
:1022B000B2EB515F08BF40F00200012808BF0520C3
:1022C00070472DE9F0414F1E00EBC7010446D1E9EC
:1022D000000115461E4637F006020DD02A46334649
:1022E00002F0C4FE7F1E04EBC703D3E9002302F013
:1022F0006FFC37F00602F1D1022F25D0042F13D046
:10230000062F18BFBDE8F0812A46334602F0AEFE24
:10231000D4E90A2302F05CFC2A46334602F0A6FE0A
:10232000D4E9082302F054FC2A46334602F09EFE0C
:10233000D4E9062302F04CFC2A46334602F096FE0E
:10234000D4E9042302F044FC2A46334602F08EFE10
:10235000D4E9022302F03CFC2A46334602F086FE12
:10236000D4E90023BDE8F04102F032BC012203F0C1
:10237000CABC02F02DBC002213461046114602F0E2
:10238000D7BC0000024A0020110703F0BCBC0000CB
:1023900001FDFFFF30380A2801D2012070470020DC
:1023A0007047014600BF70472DE9F04704460D46CF
:1023B0002946204603F000FC074639460B4803F047
:1023C000F3FA80460A49B1F900102A2201FB02F013
:1023D00003F09EFA81464946404603F0EDFB8246F3
:1023E00003F07AFA06463046BDE8F0870000B443B1
:1023F0006400002010B5034801680348FFF7D4FFCC
:10240000404210BD60000020000020412DE9F04D49
:102410008D4F21F0004A86B005460C46BA452ADBAE
:10242000AAEB070028430AD08848824501DC1AD16C
:10243000CDB106B02846BDE8F04DFFF797BF844AFE
:10244000844B284602F012FE07460E46824A834B12
:102450002846214602F00AFE06B03A463346BDE859
:10246000F04D02F0B5BB0120FEF793F806B0BDE8D1
:10247000F04DFFF780BF7A48824542DABAF1795FC2
:102480000BDA2846FFF709FF042808BFFFF77AFF99
:10249000284606B02146BDE8F08D2A460B46104678
:1024A00002F0E4FD834602466E480E460B460621C6
:1024B0007844FFF706FF5A46334602F0D7FD8046C0
:1024C00069488A465A46334604217844FFF7F9FEA4
:1024D0005A46334602F0CAFD00223B4602F078FB22
:1024E00002460B464046514602F022FC2A4623464D
:1024F00002F0BCFD06B02A462346BDE8F04D02F0CE
:1025000067BB284624F0004100223D463B4602F0CE
:10251000ABFE4FF0FF3203F0F6FB0646024653488F
:102520000F460B4606217844FFF7CBFE32463B466A
:1025300002F09CFDCDE900014D4832463B460421A6
:102540007844FFF7BEFE32463B4602F08FFD002284
:102550002B4602F03DFB834602913046394601F09E
:1025600058F9804643480D46504517DCDDE9000127
:102570005A46029B02F0DCFB42462B4602F076FDF7
:1025800042462B4602F024FB012203F0BCFB304AFA
:10259000304B02F05BFF304A304B4CE04FF0000A0A
:1025A00052460B46404602F013FBCDE9031052465B
:1025B0002B461046194602F059FD32463B4602F0C2
:1025C00053FEDDE9033202F0B3FB06460F46DDE9B8
:1025D00000015A46029B02F0ABFB834600910122A8
:1025E0003046394603F08FFB194A1A4B02F03CFE85
:1025F00006460F4601224046294603F084FB5A4610
:10260000009B02F033FD32463B4602F01FFF0646B8
:102610000F4601225046294603F075FB0E4DDFF8A8
:1026200058802A46434602F01FFE32463B4602F0DF
:102630001BFE2A46434602F017FE002CD8BF81F04D
:10264000004106B0BDE8F08D0000F03F0000F07FD3
:10265000075C143326A6913C182D4454FB21F93F06
:102660000000E03FC4450000DA4500004E45000090
:10267000644500003333EF3FFB21E93F2DE9F84F7C
:1026800004460D4621F0004000917349814211DC5F
:102690007249884201DC06D12CB120462946BDE8AA
:1026A000F84FFFF763BE6E48002DCCBF6D496E49F1
:1026B000BDE8F88F6D49814211DD6D498142D8BF77
:1026C0004FF0FF366DDD20462946FFF7E6FD042872
:1026D00008BFFFF757FE20462946BDE8F88F654939
:1026E000654F25F00045814233DD6449814219DDA3
:1026F000002632464FF080432046294602F068FA11
:1027000080468A4601222046294603F0FCFA002230
:102710003B4602F09BFE4246534602F009FB04464C
:102720000D463EE001260022BA463B462046294699
:1027300002F04EFA80460F460022534620462946B4
:1027400002F084FE42463B4602F0F2FA04460D4691
:1027500027E04B4981421BDDDFF828A10226002239
:1027600053462046294602F081FC00223B4602F0F7
:102770002FFA80460F46002253462046294602F093
:1027800065FE42463B4602F0D3FA04460D4608E099
:10279000032622462B4600203B4902F0C9FA044694
:1027A0000D4622462B461046194602F05FFC8B462A
:1027B000824602460B4602F059FC07460246334861
:1027C00088460B4606217844FFF77BFD52465B4660
:1027D00002F04CFC82462E488B463A464346052181
:1027E0007844FFF76EFD3A46434602F03FFC02464E
:1027F0000B46002E504659460CDA02F0E9F9224603
:102800002B4602F033FC01B022462B46BDE8F04FC8
:1028100002F02ABD02F0DCF922462B4602F026FC2B
:102820001C4A7A4402EBC603D3E9002302F00EFEF1
:1028300022462B4602F00AFE174A7A4402EBC603F0
:10284000D3E9002302F010FD009A002AB8BF81F0FE
:102850000041BDE8F88F0000000010440000F07F48
:10286000182D4454FB21F93FFB21F9BF0000DC3F48
:102870000000203E0000F33F0000F03F0000E63F74
:10288000008003400000F83F0000F0BF66430000F6
:1028900024430000C24200008A4200002DE9F04DAE
:1028A0009446CCF1000423F000464CEA0404524F55
:1028B00046EAD4749A46884621F00042BC4206D8C3
:1028C000454240EA050442EAD474BC4204D9BDE85A
:1028D000F04D6246FFF74DBDAAF14055A5F17F6569
:1028E00055EA0C040BD0022404EAAA74434DDFF825
:1028F00010E144EAD87452EA000B04D00CE0BDE8C1
:10290000F04DFFF7BBBE002C14BF012CBDE8F08DCD
:10291000022C30D0032C32D056EA0C0B0AD0BE4227
:1029200020D1BA4209D126F0804622F080423346B7
:10293000114617E000291ADB25E0DFF8C8B0FB4498
:10294000002C04BFDBE90001BDE8F08D012C02BFC3
:10295000DBE9000181F00041BDE8F08D022C0AD0D6
:10296000032C0CD0BA4212D1B8F1000F0BDA234875
:102970002549BDE8F08D28462449BDE8F08D28465C
:102980007146BDE8F08D1D482149BDE8F08D921BD0
:1029900012153C2AC4BF19481D490EDCBAF1000FBC
:1029A000BEBF12F13C0F0020014606DB624602F07A
:1029B000BFF921F00041FFF761FE002C08BFBDE820
:1029C000F08D012C04BF81F00041BDE8F08D114A6B
:1029D000114B022C07D002F039FD2A46BDE8F04D1C
:1029E0000A4B02F033BD02F031FD2A46BDE8F04D3E
:1029F000064B02F039BC00000000F07F182D445453
:102A0000FB2109C01E420000FB21F9BFFB21094048
:102A1000FB21F93F075C143326A6A13C2DE9F041C8
:102A20000446E07800F0C006E07800F03F056078EA
:102A300000F0010098B1EF102846E91705EB51713D
:102A4000C910A5EBC101491C01F0FF080B48006843
:102A500020B10A48414602683846904700BF607876
:102A600000F0080030B10548406818B1B011034AC1
:102A7000516888470020BDE8F0810000180200205E
:102A800010B56FF00400FEF78FFE0A4800680A498F
:102A9000B0FBF1F0094908700846007800EB4001EE
:102AA000C1EBC0104FF6FF7101EAC0000449088075
:102AB00010BD00000000002000127A00AE000020CF
:102AC000B00000200146114A12884A434FF0E0232B
:102AD0005A6100229A611A46126942F001021A6193
:102AE00000BF4FF0E022106900F001021AB100F4BB
:102AF0008032002AF5D04FF0E022126922F0010264
:102B00004FF0E0231A6100229A617047B000002064
:102B10000146114A12784A434FF0E0235A610022DD
:102B20009A611A46126942F001021A6100BF4FF021
:102B3000E022106900F001021AB100F48032002A8C
:102B4000F5D04FF0E022126922F001024FF0E023AD
:102B50001A6100229A617047AE0000202DE9F05FF3
:102B600004460D464FF480612548FDF723FF4FEAE8
:102B7000001A4FF400712248FDF71CFF0AEBC00A4F
:102B80004FF480711E48FDF715FF0AEB800A802183
:102B90001B48FDF70FFF0AEB400A40211848FDF7DC
:102BA00009FF504400F0FF09484600F0DBF91549E1
:102BB00008800846B0F9000002F0AAFE83462146CC
:102BC00002F0F2FE8246104902F0C4FD814602F096
:102BD00083FE06460D48B0F9000002F099FE8346D8
:102BE000294602F0E1FE8246094902F0B3FD814622
:102BF00002F072FE074606EB07084046BDE8F09F6C
:102C0000001801406C0000200000C8416600002050
:102C10000000C8422DE9FC5F04464D48B0F90000B1
:102C200002F00DFA07464B4A4B4B02F01FFA0546DD
:102C30000E464A48B0F9000002F001FA0746484A39
:102C4000484B02F013FA82462A46334601F0C0FF91
:102C5000CDE9000102F0C4F900B2404908800846FD
:102C6000B0F900003A4908803F480078022858DB54
:102C700000203D4908703D4800683D4908603D49D5
:102C8000B1F9001001FB04F002F042FE3A4908607D
:102C90003849B1F9040002F03BFE054636480168A8
:102CA000284602F04DFE07D23249B1F9040002F085
:102CB0002FFE3149086012E02E49B1F9020002F0FE
:102CC00027FE05462C480168284602F039FF06D247
:102CD0002849B1F9020002F01BFE27490860254887
:102CE000816825480068FFF739FF204908602148BE
:102CF000B0F90C000968884205DA1E48B0F90C00EA
:102D00001A4908600DE01B48B0F90C004042174911
:102D10000968884205DD1748B0F90C0040421349A4
:102D2000086011480078401C0F4908700F49096875
:102D30000F4A1268891A0C4A127801FB02F000EB64
:102D4000D0710B4A126802EB61094846BDE8FC9F4E
:102D5000A20000209A9999999999B93F660000209C
:102D6000CDCCCCCCCCCCEC3FA0000020A8000020E7
:102D7000A400002028020020840000202DE9F04F4C
:102D80008DB00746884615469946DDE9166B002446
:102D9000002030806B49887B5A4605A900F0F2FB81
:102DA00018B1601E0DB0BDE8F08F6648807A00F063
:102DB0001400002867D09DF8140000069DF8151037
:102DC00040EA01409DF8161040EA01209DF81710D6
:102DD000084328609DF8180000069DF8191040EA85
:102DE00001409DF81A1040EA01209DF81B1008438D
:102DF00068609DF81C0000069DF81D1040EA014027
:102E00009DF81E1040EA01209DF81F100843A8609D
:102E10009DF8200000069DF8211040EA01409DF831
:102E2000221040EA01209DF823100843E86004F1D5
:102E30001000C4B228680014019068680014029061
:102E4000A86800140390E8680014049001984043B7
:102E5000029901FB0100039901FB0100049901FBA8
:102E6000010ABAF1706F02DBBAF1885F05DD00F08C
:102E7000E9FB00203080401E94E7B6F9000040F4E2
:102E80008070308000BF2F48807A00F0400020B36F
:102E900005A9601C085C095D40EA012000B2A8F8A1
:102EA000000005A9E01C095C05AAA01C105C41EA11
:102EB000002000B2A8F8020005A9601D095C201DD1
:102EC000105C41EA002000B2A8F80400A01DC4B2C2
:102ED000B6F9000040F0080030801A48408900F43C
:102EE000C07008B305A9601C085C095D40EA0120B8
:102EF00000B2388005A9E01C095C05AAA01C105C82
:102F000041EA002000B2788005A9601D095C201DFF
:102F1000105C41EA002000B2B880A01DC4B2B6F92E
:102F2000000040F0700030800648807A00F0030016
:102F300018B105A90819FFF771FD484600F0A4F97A
:102F400000202FE71802002000BF054A128802F077
:102F50004002002AF9D0C2B2014B1B1D1A807047F3
:102F600000380140014600220C2940D008DC092924
:102F700061D2DFE801F060141A2026602B3137009F
:102F8000182949D006DC0E2936D00F2939D010294E
:102F900051D13CE01C2944D01E294CD146E06FF0B1
:102FA00013020120504B18709CE06FF009020220C0
:102FB0004D4B187096E06FF00E0203204A4B1870CC
:102FC00090E000220420484B18708BE06FF0040260
:102FD0000620454B187085E06FF009020720424B30
:102FE00018707FE00A2208203F4B18707AE0052213
:102FF0000C203D4B187075E000220E203A4B1870E3
:1030000070E06FF004020F20374B18706AE0142252
:103010001020354B187065E00F221820324B1870C5
:1030200060E00A221C20304B18705BE005221E2055
:103030002D4B187056E02C480078012803D16FF012
:10304000130002464DE028480078022803D02648A5
:103050000078072803D16FF00900024641E02248BA
:103060000078032803D16FF00E00024639E01E48B5
:103070000078042803D01C4800780E2802D10020D4
:1030800002462EE018480078062803D0164800783B
:103090000F2803D16FF00400024622E012480078A6
:1030A000082803D0104800781C2802D10A200246C4
:1030B00017E00D4800780C2803D00B4800781E2834
:1030C00002D1052002460CE007480078102802D102
:1030D0001420024605E004480078182801D10F208A
:1030E000024600BF00BF7047AC00002000B587B0AB
:1030F000002006900590049003900290019004AA8D
:1031000005A906A800F02CF901AA02A903A8FDF759
:10311000A5FC0C480168069802F04EFD0A490860BB
:10312000BDF8080009490988401A00B2084908801A
:10313000BDF8040007490988401A00B20649088012
:1031400007B000BD14000020600000202200002015
:1031500064000020240000206600002010B5FFF766
:10316000C5FF00F033F813490860FFF743F912492F
:1031700008601048006801F0AFFC104908600D4875
:103180000068FFF747FD0E4908600B4800680B49CF
:103190000968401A0A49096808440A49086006484B
:1031A000006806490968401A05490968401A064935
:1031B000086010BD6800002070000020740000202E
:1031C000780000207C0000208000002070B5FEF711
:1031D00063FB0446FEF79CFB05460020FEF764FBFC
:1031E0000020FEF79FFB231E01DB184600E058423B
:1031F000291E01DB0E4600E04E42821902EBD2701E
:10320000401070BD08B501214020FEF7CDF94FF404
:10321000F860ADF8000048208DF8030003208DF819
:10322000020069460448FDF7F2FA4FF4F8610248DB
:10323000FDF7CBFB08BD0000001801404FF4A06073
:10324000FDF79CFF00F021F84FF4E13000F008FB9F
:10325000FFF716FCFDF7DCFBFDF7BCFBFDF7C2FF3B
:10326000FFF7D0FF022141F2BF20FEF715F9FDF76D
:10327000C8FAFDF79BFD41F61F413120FEF78EFB9A
:1032800001E0FDF75FFAFCE7704700B5FDF726FFA8
:1032900000BD000070B504460D4641F678608442DA
:1032A00001DD044603E02948844200DA044641F681
:1032B0007860854201DD054603E02448854200DA56
:1032C0000546002C0EDB40212148FDF77CFB8021C8
:1032D0001F48FDF77AFB1F48008881B21E48FEF7A1
:1032E00042FE0EE080211A48FDF76DFB4021184890
:1032F000FDF76BFB17480088404281B21648FEF785
:1033000032FE002D10DB4FF480711148FDF75BFB9E
:103310004FF400710E48FDF758FB1048008881B249
:103320000D48FEF722FE10E04FF400710848FDF74B
:103330004AFB4FF480710648FDF747FB07480088B9
:10334000404281B20448FEF710FE70BD88E1FFFFE5
:10335000001001407C00002000040040800000209C
:103360002DE9F04F99B004460D4616464FF07E57B2
:103370004FF000084FF000094FF0000A12A813A9FF
:1033800018AB0EAACDE9001014A916A8FFF7F6FC99
:1033900018B1012019B0BDE8F08FBDF84C0000F461
:1033A000807000287ED00E9802F0B2FA83464FF06B
:1033B0009D4102F0CFF907460F9802F0A9FA834623
:1033C0004FF09D4102F0C6F98046109802F0A0FA35
:1033D00083464FF09D4102F0BDF98146119802F0FD
:1033E00097FA83464FF09D4102F0B4F98246394680
:1033F0004FF0804002F0D8FA4946059002F0D4FA26
:10340000414607904FF0404002F0CEFA51460590F9
:1034100002F0CAFA0690079902F02EF9834602F0EC
:10342000FFF8CDE90801FEF7F1FF4FF06632544B8B
:10343000CDE90A0101F01AFECDE90C0101F096FB7D
:10344000206049464FF0804002F0AEFA49460290B3
:1034500002F0AAFA414604904FF0404002F0A4FA6C
:103460004146029002F0A0FA0390049902F0A4FBF6
:1034700083464FF07E5102F0FFF8059002F0D0F83D
:10348000CDE9080139464FF0804002F08DFA4146FF
:10349000039002F089FA494604904FF0804002F010
:1034A00083FA00E068E05146039002F07DFA83461B
:1034B000049902F0E1F8059002F0B2F8CDE90601B6
:1034C000DDE90823FFF7EAF94FF066322C4BCDE92E
:1034D0000A0101F0CBFDCDE90C0101F047FB2860AA
:1034E0005146504602F060FA49460490484602F0C0
:1034F0005BFA41460390404602F056FA3946019085
:10350000384602F051FA0090019902F0B5F80290A5
:10351000039902F051FB8346049902F04DFB05909C
:1035200002F07EF8CDE908015146384602F03CFA37
:1035300049460490404602F037FA0390049902F09D
:103540009BF84FF08041059002F02EFA834602F07E
:1035500067F8CDE90601DDE90823FFF79FF94FF091
:103560006632074BCDE90A0101F080FDCDE90C017F
:1035700001F0FCFA306001E002200BE7002009E7CF
:1035800066A64C40F8B504460F4616462C4890F8FF
:10359000240010B94FF0FF30F8BD2948807A10B9E7
:1035A0004FF0FF30F8E7264A1268917A244A5268B1
:1035B00010786B460222FDF7B8FC10B14FF0FF30D7
:1035C000EAE79DF801009DF8001040EA0125A542B8
:1035D00003DA00203070401EDEE71948406840885A
:1035E000B5EB600F17DD164A1268517C144A526819
:1035F00010786B460122FDF798FC10B14FF0FF30B8
:10360000CAE79DF8000000F0100020B100F01AF8A1
:103610006FF00100C0E7E2B2094B1B68D97A084B92
:103620005B6818783B46FDF780FC10B14FF0FF3027
:10363000B2E795FBF4F0401E30700020ACE70000CC
:103640002800002008B57048807A10B94FF0FF308C
:1036500008BD002000906C4A1268D17B6A4A52680B
:1036600010786B460122FDF706FD10B14FF0FF30D8
:10367000EEE7654A12685179634A526810786B46E2
:103680000122FDF7F8FC10B14FF0FF30E0E75E4A91
:10369000126811795C4A526810786B460122FDF776
:1036A000EAFC10B14FF0FF30D2E7574890F8240001
:1036B000002853D00C200090534A12681179524AC6
:1036C000526810786B460122FDF7D5FC10B14FF01F
:1036D000FF30BDE73220FFF7F5F9C02000904A48DF
:1036E000807A00F0010020B19DF8000040F0200039
:1036F0000090454A12681179434A526810786B4627
:103700000122FDF7B8FC10B14FF0FF30A0E73E48B2
:10371000407C10B10220009001E0002000903A4A65
:103720001268D17B384A526810786B460122FDF747
:10373000A2FC10B14FF0FF308AE700200090324A1F
:1037400012685179304A526810786B460122FDF7B1
:1037500092FC002855D04FF0FF3079E7042000900C
:10376000294A12681179284A526810786B4601225A
:10377000FDF781FC10B14FF0FF3069E72248807CF3
:1037800020B92148807A00F0010010B94020009053
:1037900001E0602000901C4A126811791A4A5268B0
:1037A00010786B460122FDF766FC10B14FF0FF3038
:1037B0004EE73220FFF786F91348407C10B1012014
:1037C000009001E0002000900F4A1268D17B0E4A61
:1037D000526810786B460122FDF74DFC10B14FF096
:1037E000FF3035E7084A12685179074A5268107865
:1037F000054B10330122FDF73EFC10B14FF0FF30B6
:1038000026E7002024E70000280000200146086881
:1038100070472DE9F04106460F4601F031FD041EC8
:103820000D4618BF0120284320F00040C0F17F6002
:1038300000F1E040C00F0ED0301C18BF012038430B
:1038400020F00040C0F17F6000F1E040C00F04BFF5
:103850000120FCF79EFE20462946BDE8F0810000CD
:1038600010B586B00446012144F20400FDF79CFE29
:103870004FF40070ADF8140003208DF816001820E6
:103880008DF8170005A91C48FCF7C1FF4FF48060B4
:10389000ADF8140004208DF8170005A91648FCF7B0
:1038A000B6FF25208DF8000003208DF801008DF86B
:1038B000020001208DF803006846FDF727FC019403
:1038C0000020ADF80800ADF80A00ADF80C00ADF826
:1038D00010000C20ADF80E0001A90848FEF76AFCA4
:1038E000012240F225510548FEF73EFC0121034824
:1038F000FEF704FC06B010BD00080140003801408E
:1039000030B595B0054613AB12AA09A9284600F0B8
:1039100039FA044614B1204615B030BD0020149089
:1039200026E0224909689DF8502001EBC20113AB43
:1039300011AA486801A900F025FA04460CB12046F6
:10394000EAE709A901A800F0BBFC60B99DF84400B2
:103950009DF84810884201DD0220DDE79DF8500007
:10396000124988750AE09DF85000401CC0B21490BE
:103970000E48007D9DF850108842D2DC00BF0B48F5
:10398000007D9DF85010884201D10420C4E714A99D
:10399000284600F0D7FA04460CB12046BCE79DF853
:1039A0005000024948750020B6E7000024010020BD
:1039B0002DE9F0419AB09C48847D007DA04202DC54
:1039C0001AB0BDE8F0819849096801EBC40106AB63
:1039D00007AA486808A900F0D5F908A993A0FCF740
:1039E00047FC002644E09048008B0121B14008408C
:1039F000D8B122218FA0FCF73BFC304600F028FB19
:103A000089492431471839468BA0FCF731FC222123
:103A100088A0FCF72DFC304600F01AFB82492431C7
:103A2000084410A941F8260018E0304600F010FBC9
:103A30007D492431085810A941F826007A48C07DF4
:103A400030B910A850F826107CA0FCF711FC05E056
:103A500010A850F826107AA0FCF70AFC9DF81C006C
:103A6000401EB04202D078A0FCF702FC701CC6B227
:103A70009DF81C008642B6DB74A0FCF7F9FB00F051
:103A800039FB6948407D0B280DD2DFE800F0060DB8
:103A9000151E27323F4E5F7287006349096851F84F
:103AA00034008047054690E05F4A126852F83410AF
:103AB00010988847054688E05B4B1B6853F8342014
:103AC000DDE91001904705467FE0574F3F6857F802
:103AD000343010A807C89847054676E0DFF848C19B
:103AE000DCF800C05CF8347010A80FC8B847054671
:103AF0006BE01498DFF830C10090DCF800C05CF88F
:103B0000347010A80FC8B84705465EE0DDE914011F
:103B1000DFF814C1CDE90001DCF800C05CF83470B6
:103B200010A80FC8B84705464FE0DDE914121698F3
:103B3000DFF8F4C0CDE900120290DCF800C05CF8B8
:103B4000347010A80FC8B84705463EE0DDE91423DD
:103B5000DDE91610DFF8D0C0CDE90023CDE9021071
:103B6000DCF800C05CF8347010A80FC8B8470546F0
:103B70002BE0DDE91523DDE91710CDE90123CDE9BF
:103B800003101498DFF8A0C00090DCF800C05CF8C7
:103B9000347010A80FC8B847054616E0DDE91623B3
:103BA000DDE91810CDE90223CDE90410DDE91401A7
:103BB000DFF874C0CDE90001DCF800C05CF83470B7
:103BC00010A80FC8B847054600BF00BF00F050FA64
:103BD0009DF8180001280CD11348C07D20B9294652
:103BE0001BA0FCF745FB07E029461BA0FCF740FBA8
:103BF00002E018A0FCF73CFB0B4890F8EC0088B101
:103C00000948D0F8F0000A21B0FBF1F201FB1207DD
:103C10000548D0F8F000B0FBF1F83A46414611A053
:103C2000FCF726FB00BFCBE6240100200D0A25731C
:103C3000280000002563000025730000256C750036
:103C400030582558000000002C000000290000001A
:103C50003D256C753B0D0A003D305825583B0D0A3B
:103C60000000000046756E6374696F6E2052756EB9
:103C70002054696D653A25642E2531646D730D0AF3
:103C800000000000F0B50346154600200022002683
:103C9000002455E01F782C2F01D104B901221F7890
:103CA000292F01D01F780FB904B94AE0002E34D172
:103CB0001F78302F02DB1F78392F11DD1F78612F1D
:103CC00002DB1F78662F0BDD1F78412F02DB1F7888
:103CD000462F05DD1F78582F02D01F78782F0CD182
:103CE00002B12EE01F78612F03DB1F78203F0F7099
:103CF00001E01F780F70491C1FE01F78222F04D1AC
:103D000002B11EE00126012417E01F78202F14D0F5
:103D10001F782C2F11D0FF2613E01F78222F00D1FF
:103D2000002402B10DE044B11F785C2F02D15B1C6E
:103D3000471CF8B21F780F70491C471CF8B25B1C77
:103D4000A8E700BF00270F702E70F0BD10B5044625
:103D5000002010700BE020780870641C491C10785B
:103D6000401C10701078984201DB012010BD2078B3
:103D7000202802D020780028EDD10020087000BF54
:103D8000F4E700002DE9FF4F85B080468946002703
:103D9000002004900390012002904FF0000B0025BA
:103DA00044461DE02078202816D005F07F00052825
:103DB00012DA0DB945F0800505F07F00042803D123
:103DC00020782A2800D00EE0207805F07F010DF839
:103DD0000100681CC5B202E0852D00D103E0641C1F
:103DE00020780028DED100BF8DB1002005F07F01D2
:103DF0000DF8010051A1684600F062FA18B90021DF
:103E00000898017002E001210898017000254FF028
:103E1000000A444614E0641C0AF1010000F0FF0AA5
:103E20002078202802D020782A2809D1204600F0C6
:103E3000D7F90646282E03D02A2E01D0CDF810A09F
:103E40002078282802D020780028E4D1444604981D
:103E500010B10498401C04444FF0000A002654E0BE
:103E6000207810B94FF0010A50E02078282803D1BB
:103E700016B9781CC7B213E02078292808D13EB9BA
:103E800017B1781EC7B201E04FF0010A47B93DE013
:103E90002078222804D10EB9012000E00020064637
:103EA00047B9207820282FD0207889F8000009F120
:103EB000010929E020782C2804D101200290681CF7
:103EC000C5B214E02078202811D0207828280ED000
:103ED0004DB9BBF1050F06DA20780DF80B000BF198
:103EE000010000F0FF0B0298401CC0B20290012FAD
:103EF0000AD10298022807D10298401CC0B2029051
:103F00000398401CC0B20390641CA9E700BF03984B
:103F1000012809D100200DF80B0008A1684600F027
:103F2000CFF908B900200390079903980870002082
:103F300089F80000504609B0BDE8F08F766F6964DB
:103F4000000000002DE9F043B5B005460F460024FF
:103F5000002604E000213D488155701CC6B20A2E9F
:103F6000F8DB06E06D1C287818B9012035B0BDE8F3
:103F7000F08328782828F5D16D1C61E034AA6946C1
:103F80002846FFF77FFE064635449DF8D00020B155
:103F9000012827D0FF284CD149E09DF8000000B34C
:103FA00033A9684600F027F906460EB10220DDE786
:103FB000204600F04DF825490A31339A0A50A1F104
:103FC0002400008B0121A140884320491A3908832D
:103FD00004211E480155601CC4B20A2C01DD0320D7
:103FE000C4E726E0684600F087F9401C00F0FF08AF
:103FF000204600F02DF815490A3100EB0109494629
:10400000684600F06EF911481A38018B0120A04073
:10401000014388B20D491A3908830C4800F804801E
:10402000601CC4B20A2C01DD03209FE701E00220DE
:104030009CE700BF2878292801D0287800B900E043
:104040009CE700BF3C70002090E700003E0100208C
:1040500002460020002105E0044B5B5C0344D8B21B
:104060004B1CD9B29142F7DB704700003E010020A3
:1040700010B501210D48FDF7F5FD012808D10C48C8
:10408000D0F8F0004FF6FF7108440949C1F8F0007C
:104090000648FDF7E4FD0649D1F8F010084404494C
:1040A000C1F8F0000846D0F8F00010BD000800404C
:1040B0002401002010B5044604EBC40000EB0410FA
:1040C0000122C2EB800081B24FF47A70FDF7A4FFA9
:1040D00001200149C87510BD2401002010B5024619
:1040E000012000E050430B1EA1F10104E1B2F9D11F
:1040F00010BD000010B501210848FDF789FC4FF6FE
:10410000FF710648FDF72DFF00210448FDF72FFF42
:1041100000200349C1F8F00010BD00000008004075
:104120002401002070B51D48008800F400400028DC
:1041300033D01A4805780020194948551948816834
:104140001748884704461CB91649C868804721E0CB
:10415000134800F0DDF80546012D00D02C46CCB107
:10416000012C06D0022C08D0032C0AD0042C10D12C
:104170000BE00DA0FCF77CF80BE00EA0FCF778F844
:1041800007E00FA0FCF774F803E010A0FCF770F84C
:1041900000BF00BF00200149088070BDB8000020AA
:1041A0005402002024010020BAAFCAFDB4EDCEF3C2
:1041B000210D0A00B2CECAFDB4EDCEF3210D0A00E6
:1041C000B2CECAFDCCABB6E0210D0A00CEB4D5D23A
:1041D000B5BDC6A5C5E4B5C4BAAFCAFD210D0A0078
:1041E0000146491C00E0491C0878202801D100291B
:1041F000F9D1087870472DE9F04307460E460025AF
:104200004FF00A083C46002030601FE02078392833
:1042100002DC207830280ADA2078462802DC207870
:10422000412804DA2078582809D1012D07D12078B7
:10423000412801DB4FF01008681CC5B205E020786A
:1042400000B904E00120BDE8F083641CDEE700BF94
:104250003C46B8F1100F0FD1032D01DA0220F2E72E
:104260002078302806D16078582803D1A41CA81ED5
:10427000C5B204E00320E6E70DB90420E3E71BE044
:104280000DB1681EC5B22078392806DC20783028A8
:1042900003DB2078A0F1300902E02078A0F1370993
:1042A00029464046FFF71AFF316809FB00103060CD
:1042B000641C207800B900E0E2E700BF0020C2E7FC
:1042C00002460AE010780B78984201D0012070472E
:1042D000107800B902E0521C491CF3E700BF00202F
:1042E000F5E706E002780A70027802B902E0401CA5
:1042F000491CF7E700BF70470146002005E00A7837
:1043000002B903E0421CD0B2491CF8E700BF704775
:1043100010B58CB004461E230BAA03A92046FFF754
:1043200015FD0090009810B101200CB010BD9DF853
:104330002C00044400200B900EE040489DF82C20F7
:1043400050F8221003A8FFF7BBFF00B908E09DF862
:104350002C00401CC0B20B909DF82C000728ECD319
:1043600000BF9DF82C00072863D2DFE800F00405A9
:104370003C5E6564630000BF31A0FBF779FF31A0AC
:10438000FBF776FF3FA0FBF773FF4EA0FBF770FF34
:104390005CA0FBF76DFF6BA0FBF76AFF79A0FBF752
:1043A00067FF86A0FBF764FF8BA0FBF761FF90A07F
:1043B000FBF75EFF94A0FBF75BFF99A0FBF758FFAC
:1043C0009EA0FBF755FFA4A0FBF752FFB0A0FBF7A0
:1043D0004FFFBDA0FBF74CFFC8A0FBF749FFD4A0DF
:1043E000FBF746FF9AE216A0FBF742FFE0A0FBF7BF
:1043F0003FFF00200B900EE0ED4800689DF82C2058
:1044000000EBC2004168EBA0FBF732FF9DF82C00E7
:10441000401CC0B20B90E648007D9DF82C108842ED
:10442000EADC07A0FBF724FF78E205A0FBF720FFFA
:10443000C4E171E245E219E2ECE10000D0000020A5
:104440000D0A00002D2D2D2D2D2D2D2D2D2D2D2D39
:104450002D2D2D2D2D2D2D2D2D2D2D2D55534D410A
:1044600052542056332E312D2D2D2D2D2D2D2D2D09
:104470002D2D2D2D2D2D2D2D2D2D2D2D2D2D2D2079
:104480000D0A00002020202055534D415254CAC728
:10449000D3C9414C49454E54454BBFAAB7A2B5C4F8
:1044A000D2BBB8F6C1E9C7C9B5C4B4AEBFDAB5F777
:1044B000CAD4BBA5BDBBD7E9BCFE2CCDA8B9FD2095
:1044C0000D0A0000CBFC2CC4E3BFC9D2D4CDA8B9DF
:1044D000FDB4AEBFDAD6FACAD6B5F7D3C3B3CCD0E3
:1044E000F2C0EFC3E6B5C4C8CEBACEBAAFCAFD2C8F
:1044F000B2A2D6B4D0D02ED2F2B4CB2CC4E3BFC972
:104500000D0A0000D2D4CBE6D2E2B8FCB8C4BAAFF0
:10451000CAFDB5C4CAE4C8EBB2CECAFD28D6A7B35B
:10452000D6CAFDD7D62831302F3136BDF8D6C629A8
:10453000A1A2D7D6B7FBB4AEA1A2BAAFCAFDC8EB51
:104540000D0A0000BFDAB5D8D6B7B5C8D7F7CEAADE
:10455000B2CECAFD292CB5A5B8F6BAAFCAFDD7EEC2
:10456000B6E0D6A7B3D63130B8F6CAE4C8EBB2CEBF
:10457000CAFD2CB2A2D6A7B3D6BAAFCAFDB7B52032
:104580000D0A0000BBD8D6B5CFD4CABE2ED0C2D437
:10459000F6B2CECAFDCFD4CABEBDF8D6C6C9E8D6DB
:1045A000C3B9A6C4DC2CD0C2D4F6BDF8D6C6D7AAEF
:1045B000BBBBB9A6C4DC2E0D0A000000BCBCCAF50A
:1045C000D6A7B3D63A7777772E6F70656E65647627
:1045D0002E636F6D0D0A000055534D415254D3D0D8
:1045E00037B8F6CFB5CDB3C3FCC1EE3A0D0A000023
:1045F0003F3A202020202020BBF1C8A1B0EFD6FAFE
:10460000D0C5CFA20D0A000068656C703A2020204A
:10461000BBF1C8A1B0EFD6FAD0C5CFA20D0A0000F9
:104620006C6973743A202020BFC9D3C3B5C4BAAF34
:10463000CAFDC1D0B1ED0D0A0A00000069643A203C
:1046400020202020BFC9D3C3BAAFCAFDB5C4494496
:10465000C1D0B1ED0D0A0A006865783A202020200B
:10466000B2CECAFD3136BDF8D6C6CFD4CABE2CBA3A
:10467000F3B8FABFD5B8F12BCAFDD7D6BCB4D6B4BF
:10468000D0D0BDF8D6C6D7AABBBB0D0A0A00000021
:104690006465633A20202020B2CECAFD3130BDF8D7
:1046A000D6C6CFD4CABE2CBAF3B8FABFD5B8F12B50
:1046B000CAFDD7D6BCB4D6B4D0D0BDF8D6C6D7AA1A
:1046C000BBBB0D0A0A00000072756E74696D653A15
:1046D000312CBFAAC6F4BAAFCAFDD4CBD0D0BCC669
:1046E000CAB13B302CB9D8B1D5BAAFCAFDD4CBD002
:1046F000D0BCC6CAB13B0D0A0A000000C7EBB0B47B
:10470000D5D5B3CCD0F2B1E0D0B4B8F1CABDCAE4CB
:10471000C8EBBAAFCAFDC3FBBCB0B2CECAFDB2A2F1
:10472000D2D4BBD8B3B5BCFCBDE1CAF82E0D0A008B
:104730002D2D2D2D2D2D2D2D2D2D2D2D2D2D2D2DA9
:104740002D2D2D2D2D2D2D2D2D2D414C49454E54EA
:10475000454B2D2D2D2D2D2D2D2D2D2D2D2D2D2D53
:104760002D2D2D2D2D2D2D2D2D2D2D200D0A000023
:104770002D2D2D2D2D2D2D2D2D2D2D2D2D2D2D2D69
:104780002D2D2D2D2D2D2D2D2DBAAFCAFDC7E5B503
:10479000A52D2D2D2D2D2D2D2D2D2D2D2D2D2D2DD1
:1047A0002D2D2D2D2D2D2D2D2D2D2D2D200D0A00B6
:1047B0002401002025730D0A0000000059A0FBF71A
:1047C00057FD00200B901AE0664909689DF82C20DF
:1047D00001EBC20101AB02AA486803A9FFF7D2FAB4
:1047E000604800689DF82C1050F8312003A95EA0A5
:1047F000FBF73EFD9DF82C00401CC0B20B905948C1
:10480000007D9DF82C108842DEDCAFF2CC30FBF747
:104810002FFD83E0AFF2D830FBF72AFD0BAA03A9E6
:104820002046FFF72FFA9DF82C00C8B9694603A867
:10483000FFF7E1FC0B909DF82C0020B94FA00099E8
:10484000FBF716FD0EE09DF82C00042801D0022095
:104850006BE54DA0FBF70CFD01204249C87501E056
:10486000022062E547A0FBF703FD57E045A0FBF7F8
:10487000FFFC0BAA03A92046FFF704FA9DF82C00C1
:10488000C8B9694603A8FFF7B6FC0B909DF82C0049
:1048900020B942A00099FBF7EBFC0EE09DF82C003C
:1048A000042801D0022040E53FA0FBF7E1FC0020F6
:1048B0002C49C87501E0022037E532A0FBF7D8FC8F
:1048C0002CE030A0FBF7D4FC0BAA03A92046FFF78D
:1048D000D9F99DF82C00C8B9694603A8FFF78BFCED
:1048E0000B909DF82C0078B91E49009881F8EC00D7
:1048F000084690F8EC0018B130A0FBF7B9FC07E0CF
:1049000035A0FBF7B5FC03E002200EE502200CE524
:104910001CA0FBF7ADFC01E0012006E500BF002074
:1049200003E500002D2D2D2D2D2D2D2D2D2D2D2D83
:104930002D2D2D2D2D2D2D2D2D2D2D2D2DBAAFCAFB
:10494000FD204944202D2D2D2D2D2D2D2D2D2D2DAE
:104950002D2D2D2D2D2D2D2D2D2D2D2D2D2D2D2D87
:10496000200D0A002401002025732069642069734A
:104970003A0D0A3058253038580D0A004845583A43
:10498000305825580D0A00003136BDF8D6C6B2CED3
:10499000CAFDCFD4CABE210D0A0000004445433AE7
:1049A000256C750D0A0000003130BDF8D6C6B2CEB8
:1049B000CAFDCFD4CABE210D0A00000052756E2078
:1049C00054696D652043616C63756C6174696F6EC9
:1049D000204F4E0D0A00000052756E2054696D651F
:1049E0002043616C63756C6174696F6E204F46463D
:1049F0000D0A00002DE9FC5F81468A46A9EB0A00FA
:104A000000F086FF04462C480168204601F0D4F8E7
:104A100005462A4900F0C8FF0190204600F000FE3C
:104A20000746274A274B00F021FB054600F09EF879
:104A30008346214801684FF0804000F0B5FF0746EB
:104A4000214601F0AEF806461F480168304600F0E6
:104A500013FE05461D4900F0A7FF00901B4958466C
:104A600001F06EF801D24FF0000B1949584600F0E2
:104A700067FF01D24FF0000B0F4800681249086031
:104A80000D4804605946019800F0F6FD80460099F3
:104A900000F0F2FD05460F48006800F039FF0746B8
:104AA000294600F0E9FD064600F016FF09490860B6
:104AB00008460068BDE8FC9F8800002000003442E2
:104AC0009A9999999999C93F8C000020000020413A
:104AD000000020C19000002070B504461D480078F9
:104AE000042820DB00201B4908701B4800681B4974
:104AF00008601B49B1F90E002146FFF77BFF1649FC
:104B000008600846006842F6E061884203DD084616
:104B10001149086007E0104800681249884202DA2B
:104B200008460D4908600B480078401C0949087088
:104B300009490968094A1268891A064A127801FB6C
:104B400002F0C11700EB9171044A126802EBA10553
:104B5000284670BD940000209C0000209800002092
:104B60002802002020D1FFFF0160704721F00042A1
:104B7000A2F16052B2F5801F01F0004328BFD2F1CC
:104B80007F6C0BD95FEA001C43EAC20242EB507013
:104B900018BF704728BF20F001007047B2F5801F92
:104BA000BCBF184670474FEA410C1CF5001F02D2EB
:104BB000084600F0C0BF70B500F002FB000000899D
:104BC000FFF7F6BF4FF00040A0F5800070470000EF
:104BD00010B591EA030F48BF83F0004300F13E8413
:104BE000841A71EB030C05D2121943EB0C03001B62
:104BF00061EB0C01DFF824E14FEA1154A4EB135CE4
:104C00001EEA430F18BF9EEA445F73D023EA0E03E7
:104C1000DCF1200E21EA045143F4801332D322FA4E
:104C20000CFE10EB0E0023FA0CFE41EB0E01CCF152
:104C3000200E03FA0EFE10EB0E0051F10001B1F54B
:104C4000801FCCF1200E32D201EB045112FA0EF289
:104C5000BDE8104058BF7047401C38BF5FEA4202B1
:104C600018BF7047002814BF20F0010041F1000177
:104C70004FEA410313F5001F38BF7047A1F1C0414F
:104C800000F0ECBA012A43EB0302ACF1200CDCF19A
:104C90001F0E32BF4FF0000E23FA0CF310EB03008F
:104CA00041EB0451B4EB115FD0D0A1EB045101F5FD
:104CB000801149085FEA300001EB04510ED350F136
:104CC000000038BF12FA0EFE08D1BDE81040C9E757
:104CD000401C38BF5FEA4202CAD1C3E7BDE81040BA
:104CE0004FEA410313F5001F38BF7047A1F1C041DF
:104CF00000F0B4BA9EEA445F08D011EA5E0FBDE846
:104D0000104004BF01F0004100207047BDE8104092
:104D100070B500F055FA00BF64FBBE3E0000E0FF36
:104D200002494FF0000000F0BCBF00BF0000F87F58
:104D30002DE9C04130B4DFF8A0C23CEA111418BF1D
:104D40003CEA131400F0EC8081EA03051CEA11141C
:104D500044EAD57418BF1CEA131500F0C780A4EB11
:104D600005044FF0004545EAC12145EAC32341EA65
:104D7000505143EA525304F17F74994204F50034D0
:104D80004FEAC0204FEAC22208BF904200F09C8048
:104D90004FEA13650FF24016765D4FEA134506FBA6
:104DA00005F7C7F1807706FB07F74FEAD737A7FB70
:104DB00003687642C8F58038A7FB06CE38BFA8F155
:104DC000010807FB08E64FF0000EA6FB028CE6FB8D
:104DD00003CEDCF1000CCEF1004E38BFAEF1010E77
:104DE000A6FB0C584FF000074FF00005E6FB0E87BE
:104DF000A1FB08C6A0FB07CE16EB0E0645F1000589
:104E0000E1FB076515F1E04E7EBFA4F580345FEA53
:104E100046066D4116F1800745F100054FEA172758
:104E20004FEA066647EA0567A6F1DE46B6F1805FFF
:104E30004FEA15251FD9384624F0010C05EBC47143
:104E4000BCF1FE6F01EB0C1102D8F0BCBDE8008193
:104E500024425CBF01F5801E9EEAC47F02D4F0BCF0
:104E6000BDE80081244238D4F0BCA1F1C041BDE8C6
:104E7000004100F0F3B94FEAD22242EA43524FEA2E
:104E8000D323A7FB02864FEAD02040EA415007FB1C
:104E900003661EEA0E0F4FEAD12105FB026658BFDA
:104EA000A6EB0056B6EB00564FEA520E4EEAC37E12
:104EB00018EB0E0E56EB530EBDD518EB02085E41F3
:104EC0007F1C55F10005B6E74FF480154FF0000741
:104ED0004FF000064FF00008ADE7F0BC4FF00000C7
:104EE00001F1C04101F00041BDE8008111EA0C1F51
:104EF0000CEA131500D00CE013EA0C1F00F025801B
:104F00004FF00000F0BC81EA030101F00041BDE870
:104F10000081F0BCBDE8004181EA030100F09EB9C8
:104F2000F0BCBDE8004170B500F04AF9097EFC3ED6
:104F300000F007B881EA03014FF0000001F00041E2
:104F4000704781EA030100F089B9F0BCBDE8004177
:104F50004FF0000021497047FFFDFBF9F7F5F4F22F
:104F6000F0EEEDEBE9E8E6E4E3E1E0DEDDDBDAD804
:104F7000D7D5D4D3D1D0CFCDCCCBCAC8C7C6C5C462
:104F8000C2C1C0BFBEBDBCBBBAB9B8B7B6B5B4B379
:104F9000B2B1B0AFAEADACABAAA9A8A8A7A6A5A464
:104FA000A3A3A2A1A09F9F9E9D9C9C9B9A99999828
:104FB0009797969595949393929191908F8F8E8ECB
:104FC0008D8C8C8B8B8A8989888887878685858458
:104FD00084838382828181800000FF070000F87F44
:104FE0004FEA41034FEA5353A3F58063D3F11E0305
:104FF000C8BFD3F1210C0CDD4FF0004242EAC122C0
:1050000042EA505232FA03FC8CEAE17CACEBE170EC
:105010007047102BC4BF0020704703F5787CBCF1AB
:10502000FF3F04D06FF0004282EA2100704770B564
:1050300000F0C6F84992248000207047F2E710F093
:10504000004248BF4042B0FA80F310FA03F10AD0A0
:10505000C3F11D0303F580634FEA415002EB035295
:1050600002EBD12170474FF000007047DFF848C1D4
:1050700070B51CEA111E1EBF1CEA13159EEA0C0F28
:1050800095EA0C0F00F06F8081EA030423EA4C13C9
:105090004EEAD47E21EA4C1141F4801143F480138E
:1050A000AE44A1FB024CA0FB0365AEF17F7E361936
:1050B00055EB0C05A1FB034C4CF10003A0FB021CBB
:1050C00016EB0C06654153F10003094218BF46F088
:1050D000010613F4007F0BD14FEA03314FEA05308C
:1050E000340341EA155140EA16506FF003020AE01A
:1050F0004FEAC3214FEAC520F40241EA555140EA84
:1051000056506FF0020202EB2E4201EB025585EA87
:10511000CE710AD05FEA440C18BF24F0004450F16D
:10512000000041F1000120EAD47040F2FE7C6245AB
:1051300000D270BDA84214BF4FF080444FF04044ED
:10514000002E08BF0024BEF1806FA8BFA1F1C041AE
:10515000BDE8704080F282804FF0000001F1C04154
:1051600001F0004170479EEA0C0F0CEA131518BFBE
:1051700095EA0C0F06D04FF0000081EA030E0EF006
:10518000004170BD00F01CF88900013E00F007B836
:1051900000F009B84FEA430C5FEA5C5C08D081EA92
:1051A000030100F05BB84FEA410C5FEA5C5CF6D1AA
:1051B0004FF00000014970470000FF070000F87F32
:1051C0000EF1020E2EF0030E5EF8046B364205D48B
:1051D000012A43EB030515F5001F12D8012841EB06
:1051E000010C1CF5001F0CD80ED14FEAD17C15F52F
:1051F000001F0CEB4C0C0CF1020C08BF4CEBD37CE9
:1052000004E04FF0080C01E04FEAD37C0CEB4C05B6
:1052100026FA05F606F00706B6F1040C06D20EEBE8
:10522000860CBDE870404CF0010C6047DFE80CF0E4
:10523000090B02024FF000414FF00000A1F50021E0
:1052400070BD19461046012851EB010418BFD4F572
:10525000001484BF002001F0004170BD0808A0F5D3
:1052600000114FEA3101704791EA030F10B581F048
:1052700000413FF5B5AC83F0004300F0EFB800000B
:105280002DE9F04101F5801CBCF5001FC0F2C38080
:105290004FEA115C21EA0C510CF1FD0C41F4801134
:1052A0005FEA5C0C0CF5C07C01D3400049413DA491
:1052B000890241EA905187028E0E0A0CA45D04FB1C
:1052C00004F602FB06F6C6F14046A4FB0662F60DA4
:1052D00046EA422606FB06F4A4FB01235242C3F130
:1052E000404338BF5B1EA6FB02420024E6FB0324BA
:1052F000D20B42EA4446A6FB0623A1FB02E2A3FB33
:1053000007E4A4184FF0000252F10002E3FB01424F
:105310006442C2F1404E38BFAEF1010EA6FB042339
:105320004FF00002E6FB0E32A2FB03464FF00004F2
:10533000B61954F10004E2FB0264A1FB06E6A4FBEB
:1053400007E816EB08064FF0000858F10008E4FBE8
:1053500001687642C8F1405838BFA8F10108A2FBA5
:1053600006E4A3FB08E52D194FF0000454F10004F6
:10537000E2FB0854A1FB05E6A7FB04E818EB0608CE
:105380004FF0000656F10006E1FB048618F12005F7
:1053900056F10006A809A8F11B08B10908F03F085A
:1053A000B8F10A0F40EA86601CD901EB0C51BDE848
:1053B000F08100BFFCF5EEE8E2DDD8D3CFCBC7C368
:1053C000C0BDB9B6B4B1AEACA9A7A5A3A19F9D9B22
:1053D0009A9896959392908F8D8C8B8988878685E5
:1053E00084838281A0FB006800FB01F208EB420885
:1053F000B8EB872807D5341858EB0104D5D5401CE5
:1054000051F10001D1E7341A78EB0104CDD4401EEC
:1054100071F10001C9E75FEA4C0C5FEA9C5C0DD1B9
:1054200005D34FF0000001F00041BDE8F081BDE878
:10543000F04170B5FFF7C4FE6DDBFFBEBDE8F04183
:105440004FF00000004970470000F87F10B591EA66
:10545000030F48BF83F000433FF5C2AB841A71EBE2
:10546000030C07D212198CF0004C43EB0C03001B09
:1054700061EB0C01DFF8A4E14FEA1154A4EB135CDB
:105480001EEA430F18BF9EEA445F00F0B08023EA93
:105490006E03524221EA0451C3EB6E0338BF5B1E18
:1054A000DCF1200E25D322FA0CFE10EB0E0043FA9D
:1054B0000CFE41EB0E01CCF1200E03FA0EFE10EBB8
:1054C0000E0051F10001CCF1200E29D412FA0EF297
:1054D00001EB0451BDE8104058BF7047401C1CBF91
:1054E000B2F1004F704700280CBF491C20F00100AA
:1054F000704712EB020E43EB030218BF4FF0010E90
:105500004EEA4202ACF1200CDCF11E0E54D943FAF3
:105510000CFE10EB0E0051F1FF31CCF11E0ED5D573
:105520000EF1010E12FA0EFE404141EB010101EBBA
:10553000445C5FEA5C5C10D910EBDE7001EB045157
:1055400038BFBEF1004FBDE8104018BF70470028BB
:105550000CBF491C20F00100704730D24FEAD42C18
:1055600011F5001124F400641BD0B1FA81F20B3A5A
:10557000A41AA41ED2F12003914030FA03F3194378
:10558000904001EBCC71002C01EB0451BDE81040C0
:10559000A8BF704701F1C0414FF0000001F0004189
:1055A0007047B0FA80F310FA03F100D110BDE41A8D
:1055B000173C4805C90AE4E701EB045110BD491046
:1055C00001EB0451BDE810404FEA300002E04FF01B
:1055D000000170474A0008BF0042F8D0B2F5001F32
:1055E00028BF704701F000414FF0000070479EEA6D
:1055F000445F07D011EA5E0FBDE8104004BF0021F0
:1056000000207047BDE8104070B5FFF7D9FD00BF1E
:1056100040DFF63E83F00041104670470000E0FF97
:1056200043004FEAD30C4FEA3C0C43401FBF4007F6
:105630000CF1605113F0FE4F70471CF0006F03D166
:1056400000200CF0004170470CF0004343EA50701A
:1056500010B540EACC0000F028FA00BF000000922C
:105660004FEA0001FFF7FABD4FF000414FF0000094
:10567000A1F500217047000090EA010F48BF81F0BA
:10568000004100F1A082421A3CBF801A89184FEAFB
:10569000D0524FF07F4C1CEA410FA2EBD15318BF00
:1056A0009CEA026F00F03B804FF0004C4CEA002077
:1056B0004CEA012121FA03FC10EB0C0C1ED202F182
:1056C000FF325FEA1C2040EBC25038BF70471CF02D
:1056D0007F0F4FEA400C18BFBCF17F4F38BF7047B7
:1056E000C3F12003994008BF20F00100BCF17F4FB7
:1056F00038BF7047A0F1C04000F01DBA4FEA3C002F
:10570000000A40EBC25028BF1CF0FF0F4FEA400CCC
:10571000E6D018BFBCF17F4F38BF7047EAE79CEA7C
:10572000026F05D010EA5C0F08BF00F00040704720
:1057300010B500F0BAF900BF64FBBE3E401058BF80
:10574000C0F14040491058BFC1F140418142EFF3E0
:10575000008070474FF47F0C1CEAD0121EBF1CEA79
:10576000D11392EA0C0F93EA0C0F00F0858090EAB7
:10577000010F48BF42F4807240F4000C41F4000075
:105780002CF07F4120F07F4000B58142A2EB030264
:105790000FF2081CACEB504EC0F100009EF800E088
:1057A0004FEA4E0E00FB0EFC38BF49004FEA2C1C9E
:1057B00002F5FA020CFB0EF34FEACE1E4FEA112C53
:1057C0004FEAC1210EEB635E42EB22420EFB0CFC62
:1057D0004FEA1C5300FB03114FEA112C4FEA013131
:1057E0000EFB0CFC4FEADC4C00FB0C11C14228BF45
:1057F00009184CEB03335DF804EB10EB410143EB6C
:10580000C250B2F57C0F38BF704729D512F0F00FA7
:105810001CBF00F1C04000F000407047008182834F
:105820008485868788898B8C8D8E8F9192939596AF
:1058300097999A9C9D9FA0A2A3A5A7A8AAACAEB039
:10584000B2B3B5B7B9BCBEC0C2C5C7C9CCCED1D43E
:10585000D7D9DCDFE2E6E9ECF0F3F7FAFE0000006E
:105860004FEA400C0CF1807CBCF17E4F28BF7047A2
:10587000B0F1C04000F05FB990EA010F0CEAD1131B
:1058800048BF42F48072624538BF634507D213F4C3
:105890007F0F16D080EA010000F00040704710B57D
:1058A00000F003F9097EFC3E00F005B880EA010033
:1058B00000F00040704780EA010000F0004000F076
:1058C0003AB912F47F0F04BF0248704780EA010022
:1058D00000F031B90000C07F41000B0ED3F19E02F1
:1058E00008D950F400034FEA032323FA02F048BF1B
:1058F0004042704710B500F0D8F800BF49922480AC
:10590000002070476FF0004282EA200070470000DC
:1059100010F0004148BF4042B0FA80F310FA03F2A1
:10592000C3F19D030BD051EAC35101EB1220530682
:1059300038BF704700F1010008BF20F00100704738
:1059400050EA010C00F113801CF5000F58BFBCF5A4
:10595000000F01D48842704707D710F5000F58BFD9
:1059600011F5000F15D488427047894270471CF525
:10597000000F04D5BCF5000FF7D5814270474FF0FA
:10598000807C1CEB400F38BF1CEB410F01D28142E1
:10599000704710B500F089F8922449004FF000508C
:1059A0004FF08051FFF7CABE4FF47F0C1CEAD012B3
:1059B0001EBF1CEAD11392EA0C0F93EA0C0F00F001
:1059C000478090EA010F48BF42F480724FF0004CCC
:1059D0004CEA00204CEA012102EB0302A0FB011378
:1059E000A2F50002002918BF43F001035B0028BFA5
:1059F0004FEA330342EB22425FEA132C4CEBC250D6
:105A00002EBFBCEB436FB2F57C0F70474FEA036CBF
:105A1000BCF1004F08BF20F00100B2F57C0F38BF89
:105A200070470BD582F0FF0212F5803FC8BF704768
:105A300000F1C040D8BF00F00040704700F5000CF6
:105A40005FEA4C0C48BF7047B0F1C04000F073B83B
:105A500090EA010F0CEAD11348BF42F4807262450C
:105A600038BF634504D280EA010000F0004070476F
:105A700010B500F01AF800BF8900013E00F007B829
:105A800000F009B85FEA410C5FEA1C6C08D080EABC
:105A9000010000F050B85FEA400C5FEA1C6CF6D1E0
:105AA0004FF00040A0F5800070470EF1020E2EF07E
:105AB000030E5EF8044B244204D44FEA4102B2F1D3
:105AC0007F4F11D84FEA4003B3F17F4F0CD80ED16E
:105AD0004FEAD07CB2F17F4F0CEB4C0C0CF1020C76
